{
  "_format": "hh-sol-artifact-1",
  "contractName": "BOCActivitiesFacet",
  "sourceName": "contracts/facets/BOCActivitiesFacet.sol",
  "abi": [
    {
      "anonymous": false,
      "inputs": [
        {
          "indexed": true,
          "internalType": "address",
          "name": "from",
          "type": "address"
        },
        {
          "indexed": true,
          "internalType": "address",
          "name": "to",
          "type": "address"
        },
        {
          "indexed": false,
          "internalType": "uint256",
          "name": "amount",
          "type": "uint256"
        },
        {
          "indexed": false,
          "internalType": "uint256",
          "name": "when",
          "type": "uint256"
        }
      ],
      "name": "EtherWithdraw",
      "type": "event"
    },
    {
      "anonymous": false,
      "inputs": [
        {
          "indexed": true,
          "internalType": "address",
          "name": "receiver",
          "type": "address"
        },
        {
          "indexed": true,
          "internalType": "address",
          "name": "sender",
          "type": "address"
        },
        {
          "indexed": false,
          "internalType": "uint256",
          "name": "id",
          "type": "uint256"
        },
        {
          "indexed": false,
          "internalType": "uint256",
          "name": "amout",
          "type": "uint256"
        },
        {
          "indexed": false,
          "internalType": "uint256",
          "name": "when",
          "type": "uint256"
        }
      ],
      "name": "GiftCreated",
      "type": "event"
    },
    {
      "anonymous": false,
      "inputs": [
        {
          "indexed": true,
          "internalType": "address",
          "name": "receiver",
          "type": "address"
        },
        {
          "indexed": true,
          "internalType": "address",
          "name": "sender",
          "type": "address"
        },
        {
          "indexed": false,
          "internalType": "uint256",
          "name": "id",
          "type": "uint256"
        },
        {
          "indexed": false,
          "internalType": "uint256",
          "name": "when",
          "type": "uint256"
        }
      ],
      "name": "MessageCreated",
      "type": "event"
    },
    {
      "anonymous": false,
      "inputs": [
        {
          "indexed": false,
          "internalType": "uint256",
          "name": "id",
          "type": "uint256"
        },
        {
          "indexed": true,
          "internalType": "address",
          "name": "from",
          "type": "address"
        },
        {
          "indexed": true,
          "internalType": "address",
          "name": "to",
          "type": "address"
        },
        {
          "indexed": false,
          "internalType": "enum BOCDiamondStorage.NotificationType",
          "name": "notificationType",
          "type": "uint8"
        },
        {
          "indexed": false,
          "internalType": "uint256",
          "name": "notificationTypeId",
          "type": "uint256"
        },
        {
          "indexed": false,
          "internalType": "uint256",
          "name": "when",
          "type": "uint256"
        }
      ],
      "name": "NotificationCreated",
      "type": "event"
    },
    {
      "anonymous": false,
      "inputs": [
        {
          "indexed": true,
          "internalType": "address",
          "name": "from",
          "type": "address"
        },
        {
          "indexed": true,
          "internalType": "address",
          "name": "to",
          "type": "address"
        },
        {
          "indexed": true,
          "internalType": "address",
          "name": "token",
          "type": "address"
        },
        {
          "indexed": false,
          "internalType": "uint256",
          "name": "amount",
          "type": "uint256"
        },
        {
          "indexed": false,
          "internalType": "uint256",
          "name": "when",
          "type": "uint256"
        }
      ],
      "name": "TokenWithdraw",
      "type": "event"
    },
    {
      "inputs": [
        {
          "internalType": "address",
          "name": "_userAddress",
          "type": "address"
        }
      ],
      "name": "sendEtherAsGift",
      "outputs": [],
      "stateMutability": "payable",
      "type": "function"
    },
    {
      "inputs": [
        {
          "internalType": "address",
          "name": "_userAddress",
          "type": "address"
        },
        {
          "internalType": "string",
          "name": "_msg",
          "type": "string"
        }
      ],
      "name": "sendMessage",
      "outputs": [],
      "stateMutability": "nonpayable",
      "type": "function"
    },
    {
      "inputs": [
        {
          "internalType": "address",
          "name": "_userAddress",
          "type": "address"
        },
        {
          "internalType": "uint256",
          "name": "_amount",
          "type": "uint256"
        }
      ],
      "name": "sendTokenAsGift",
      "outputs": [],
      "stateMutability": "nonpayable",
      "type": "function"
    }
  ],
  "bytecode": "0x6080604052348015600f57600080fd5b506127ef8061001f6000396000f3fe6080604052600436106100345760003560e01c806305ef3085146100395780634defe4cc14610062578063de6f24bb1461007e575b600080fd5b34801561004557600080fd5b50610060600480360381019061005b9190611b70565b6100a7565b005b61007c60048036038101906100779190611bb0565b610b67565b005b34801561008a57600080fd5b506100a560048036038101906100a09190611d23565b6113e7565b005b816100b181611997565b6100f0576040517f08c379a00000000000000000000000000000000000000000000000000000000081526004016100e790611ddc565b60405180910390fd5b60008211610133576040517f08c379a000000000000000000000000000000000000000000000000000000000815260040161012a90611e6e565b60405180910390fd5b600061013d6119f9565b60010160009054906101000a900473ffffffffffffffffffffffffffffffffffffffff1673ffffffffffffffffffffffffffffffffffffffff166370a08231336040518263ffffffff1660e01b81526004016101999190611e9d565b602060405180830381865afa1580156101b6573d6000803e3d6000fd5b505050506040513d601f19601f820116820180604052508101906101da9190611ecd565b1161021a576040517f08c379a000000000000000000000000000000000000000000000000000000000815260040161021190611f6c565b60405180910390fd5b3373ffffffffffffffffffffffffffffffffffffffff168373ffffffffffffffffffffffffffffffffffffffff1603610288576040517f08c379a000000000000000000000000000000000000000000000000000000000815260040161027f90611fd8565b60405180910390fd5b600073ffffffffffffffffffffffffffffffffffffffff168373ffffffffffffffffffffffffffffffffffffffff16036102f7576040517f08c379a00000000000000000000000000000000000000000000000000000000081526004016102ee90612044565b60405180910390fd5b600073ffffffffffffffffffffffffffffffffffffffff163373ffffffffffffffffffffffffffffffffffffffff1603610366576040517f08c379a000000000000000000000000000000000000000000000000000000000815260040161035d906120b0565b60405180910390fd5b61036f83611a26565b6103ae576040517f08c379a00000000000000000000000000000000000000000000000000000000081526004016103a59061211c565b60405180910390fd5b60006103b86119f9565b60050160008573ffffffffffffffffffffffffffffffffffffffff1673ffffffffffffffffffffffffffffffffffffffff168152602001908152602001600020905060008160040190508060020154816003015485610417919061216b565b1115610458576040517f08c379a000000000000000000000000000000000000000000000000000000000815260040161044f90612211565b60405180910390fd5b60006104626119f9565b60010160009054906101000a900473ffffffffffffffffffffffffffffffffffffffff1673ffffffffffffffffffffffffffffffffffffffff166323b872dd3330886040518463ffffffff1660e01b81526004016104c293929190612240565b6020604051808303816000875af11580156104e1573d6000803e3d6000fd5b505050506040513d601f19601f8201168201806040525081019061050591906122af565b905080610547576040517f08c379a000000000000000000000000000000000000000000000000000000000815260040161053e90612328565b60405180910390fd5b60006105516119f9565b60040160008873ffffffffffffffffffffffffffffffffffffffff1673ffffffffffffffffffffffffffffffffffffffff16815260200190815260200160002080549050905060006105a16119f9565b60020160008973ffffffffffffffffffffffffffffffffffffffff1673ffffffffffffffffffffffffffffffffffffffff1681526020019081526020016000208054905090506105ef6119f9565b60040160008973ffffffffffffffffffffffffffffffffffffffff1673ffffffffffffffffffffffffffffffffffffffff1681526020019081526020016000206040518060a00160405280600185610647919061216b565b81526020014281526020013373ffffffffffffffffffffffffffffffffffffffff1681526020018a73ffffffffffffffffffffffffffffffffffffffff168152602001898152509080600181540180825580915050600190039060005260206000209060050201600090919091909150600082015181600001556020820151816001015560408201518160020160006101000a81548173ffffffffffffffffffffffffffffffffffffffff021916908373ffffffffffffffffffffffffffffffffffffffff16021790555060608201518160030160006101000a81548173ffffffffffffffffffffffffffffffffffffffff021916908373ffffffffffffffffffffffffffffffffffffffff1602179055506080820151816004015550508661076e6119f9565b600a01600061077b6119f9565b60010160009054906101000a900473ffffffffffffffffffffffffffffffffffffffff1673ffffffffffffffffffffffffffffffffffffffff1673ffffffffffffffffffffffffffffffffffffffff16815260200190815260200160002060008a73ffffffffffffffffffffffffffffffffffffffff1673ffffffffffffffffffffffffffffffffffffffff1681526020019081526020016000206000828254610825919061216b565b92505081905550866108356119f9565b60050160008a73ffffffffffffffffffffffffffffffffffffffff1673ffffffffffffffffffffffffffffffffffffffff168152602001908152602001600020600401600301600082825461088a919061216b565b925050819055506108996119f9565b60020160008973ffffffffffffffffffffffffffffffffffffffff1673ffffffffffffffffffffffffffffffffffffffff1681526020019081526020016000206040518060c001604052806001846108f1919061216b565b81526020013373ffffffffffffffffffffffffffffffffffffffff1681526020018a73ffffffffffffffffffffffffffffffffffffffff16815260200160018561093b919061216b565b81526020016000600181111561095457610953612348565b5b81526020014281525090806001815401808255809150506001900390600052602060002090600602016000909190919091506000820151816000015560208201518160010160006101000a81548173ffffffffffffffffffffffffffffffffffffffff021916908373ffffffffffffffffffffffffffffffffffffffff16021790555060408201518160020160006101000a81548173ffffffffffffffffffffffffffffffffffffffff021916908373ffffffffffffffffffffffffffffffffffffffff1602179055506060820151816003015560808201518160040160006101000a81548160ff02191690836001811115610a5357610a52612348565b5b021790555060a0820151816005015550503373ffffffffffffffffffffffffffffffffffffffff168873ffffffffffffffffffffffffffffffffffffffff167f2cf032432db283c5954536ee2bf4aded90f2bc18fc246a75be09ce622dfc1ef4600185610ac0919061216b565b8a42604051610ad193929190612377565b60405180910390a38773ffffffffffffffffffffffffffffffffffffffff163373ffffffffffffffffffffffffffffffffffffffff167f7cda27d2a3ac1d9dddd79eddb9061460b879953e8e3aa39d77362ed49950941a600184610b35919061216b565b6000600187610b44919061216b565b42604051610b5594939291906123f6565b60405180910390a35050505050505050565b80610b7181611997565b610bb0576040517f08c379a0000000000000000000000000000000000000000000000000000000008152600401610ba790611ddc565b60405180910390fd5b60003411610bf3576040517f08c379a0000000000000000000000000000000000000000000000000000000008152600401610bea90611e6e565b60405180910390fd5b3373ffffffffffffffffffffffffffffffffffffffff168273ffffffffffffffffffffffffffffffffffffffff1603610c61576040517f08c379a0000000000000000000000000000000000000000000000000000000008152600401610c5890611fd8565b60405180910390fd5b600073ffffffffffffffffffffffffffffffffffffffff168273ffffffffffffffffffffffffffffffffffffffff1603610cd0576040517f08c379a0000000000000000000000000000000000000000000000000000000008152600401610cc790612044565b60405180910390fd5b600073ffffffffffffffffffffffffffffffffffffffff163373ffffffffffffffffffffffffffffffffffffffff1603610d3f576040517f08c379a0000000000000000000000000000000000000000000000000000000008152600401610d36906120b0565b60405180910390fd5b610d4882611a26565b610d87576040517f08c379a0000000000000000000000000000000000000000000000000000000008152600401610d7e9061211c565b60405180910390fd5b6000610d916119f9565b60050160008473ffffffffffffffffffffffffffffffffffffffff1673ffffffffffffffffffffffffffffffffffffffff168152602001908152602001600020905060008160040190508060020154816003015434610df0919061216b565b1115610e31576040517f08c379a0000000000000000000000000000000000000000000000000000000008152600401610e2890612211565b60405180910390fd5b6000610e3b6119f9565b60040160008673ffffffffffffffffffffffffffffffffffffffff1673ffffffffffffffffffffffffffffffffffffffff1681526020019081526020016000208054905090506000610e8b6119f9565b60020160008773ffffffffffffffffffffffffffffffffffffffff1673ffffffffffffffffffffffffffffffffffffffff168152602001908152602001600020805490509050610ed96119f9565b60040160008773ffffffffffffffffffffffffffffffffffffffff1673ffffffffffffffffffffffffffffffffffffffff1681526020019081526020016000206040518060a00160405280600185610f31919061216b565b81526020014281526020013373ffffffffffffffffffffffffffffffffffffffff1681526020018873ffffffffffffffffffffffffffffffffffffffff168152602001348152509080600181540180825580915050600190039060005260206000209060050201600090919091909150600082015181600001556020820151816001015560408201518160020160006101000a81548173ffffffffffffffffffffffffffffffffffffffff021916908373ffffffffffffffffffffffffffffffffffffffff16021790555060608201518160030160006101000a81548173ffffffffffffffffffffffffffffffffffffffff021916908373ffffffffffffffffffffffffffffffffffffffff160217905550608082015181600401555050346110586119f9565b600b0160008873ffffffffffffffffffffffffffffffffffffffff1673ffffffffffffffffffffffffffffffffffffffff16815260200190815260200160002060008282546110a7919061216b565b92505081905550346110b76119f9565b60050160008873ffffffffffffffffffffffffffffffffffffffff1673ffffffffffffffffffffffffffffffffffffffff168152602001908152602001600020600401600301600082825461110c919061216b565b9250508190555061111b6119f9565b60020160008773ffffffffffffffffffffffffffffffffffffffff1673ffffffffffffffffffffffffffffffffffffffff1681526020019081526020016000206040518060c00160405280600184611173919061216b565b81526020013373ffffffffffffffffffffffffffffffffffffffff1681526020018873ffffffffffffffffffffffffffffffffffffffff1681526020016001856111bd919061216b565b8152602001600060018111156111d6576111d5612348565b5b81526020014281525090806001815401808255809150506001900390600052602060002090600602016000909190919091506000820151816000015560208201518160010160006101000a81548173ffffffffffffffffffffffffffffffffffffffff021916908373ffffffffffffffffffffffffffffffffffffffff16021790555060408201518160020160006101000a81548173ffffffffffffffffffffffffffffffffffffffff021916908373ffffffffffffffffffffffffffffffffffffffff1602179055506060820151816003015560808201518160040160006101000a81548160ff021916908360018111156112d5576112d4612348565b5b021790555060a0820151816005015550503373ffffffffffffffffffffffffffffffffffffffff168673ffffffffffffffffffffffffffffffffffffffff167f2cf032432db283c5954536ee2bf4aded90f2bc18fc246a75be09ce622dfc1ef4600185611342919061216b565b344260405161135393929190612377565b60405180910390a38573ffffffffffffffffffffffffffffffffffffffff163373ffffffffffffffffffffffffffffffffffffffff167f7cda27d2a3ac1d9dddd79eddb9061460b879953e8e3aa39d77362ed49950941a6001846113b7919061216b565b60006001876113c6919061216b565b426040516113d794939291906123f6565b60405180910390a3505050505050565b816113f181611997565b611430576040517f08c379a000000000000000000000000000000000000000000000000000000000815260040161142790611ddc565b60405180910390fd5b3373ffffffffffffffffffffffffffffffffffffffff168373ffffffffffffffffffffffffffffffffffffffff160361149e576040517f08c379a000000000000000000000000000000000000000000000000000000000815260040161149590612487565b60405180910390fd5b60006114a86119f9565b60030160008573ffffffffffffffffffffffffffffffffffffffff1673ffffffffffffffffffffffffffffffffffffffff16815260200190815260200160002080549050905060006114f86119f9565b60020160008673ffffffffffffffffffffffffffffffffffffffff1673ffffffffffffffffffffffffffffffffffffffff1681526020019081526020016000208054905090506115466119f9565b60030160008673ffffffffffffffffffffffffffffffffffffffff1673ffffffffffffffffffffffffffffffffffffffff1681526020019081526020016000206040518060a0016040528060018561159e919061216b565b81526020014281526020013373ffffffffffffffffffffffffffffffffffffffff1681526020018773ffffffffffffffffffffffffffffffffffffffff168152602001868152509080600181540180825580915050600190039060005260206000209060050201600090919091909150600082015181600001556020820151816001015560408201518160020160006101000a81548173ffffffffffffffffffffffffffffffffffffffff021916908373ffffffffffffffffffffffffffffffffffffffff16021790555060608201518160030160006101000a81548173ffffffffffffffffffffffffffffffffffffffff021916908373ffffffffffffffffffffffffffffffffffffffff16021790555060808201518160040190816116c591906126be565b5050506116d06119f9565b60020160008673ffffffffffffffffffffffffffffffffffffffff1673ffffffffffffffffffffffffffffffffffffffff1681526020019081526020016000206040518060c00160405280600184611728919061216b565b81526020013373ffffffffffffffffffffffffffffffffffffffff1681526020018773ffffffffffffffffffffffffffffffffffffffff168152602001600185611772919061216b565b815260200160018081111561178a57611789612348565b5b81526020014281525090806001815401808255809150506001900390600052602060002090600602016000909190919091506000820151816000015560208201518160010160006101000a81548173ffffffffffffffffffffffffffffffffffffffff021916908373ffffffffffffffffffffffffffffffffffffffff16021790555060408201518160020160006101000a81548173ffffffffffffffffffffffffffffffffffffffff021916908373ffffffffffffffffffffffffffffffffffffffff1602179055506060820151816003015560808201518160040160006101000a81548160ff0219169083600181111561188957611888612348565b5b021790555060a0820151816005015550503373ffffffffffffffffffffffffffffffffffffffff168573ffffffffffffffffffffffffffffffffffffffff167f599da53e0e841007e399c4029b99e16514fb51a0249a4bdf3eb026705e7f71e66001856118f6919061216b565b42604051611905929190612790565b60405180910390a38473ffffffffffffffffffffffffffffffffffffffff163373ffffffffffffffffffffffffffffffffffffffff167f7cda27d2a3ac1d9dddd79eddb9061460b879953e8e3aa39d77362ed49950941a600184611969919061216b565b60018087611977919061216b565b4260405161198894939291906123f6565b60405180910390a35050505050565b60006119a16119f9565b60070160008373ffffffffffffffffffffffffffffffffffffffff1673ffffffffffffffffffffffffffffffffffffffff16815260200190815260200160002060050160019054906101000a900460ff169050919050565b6000807fd9e35282e2215880e2e89e7d63345ded769cf6489d8c377c2c5a8a3ce3eb68c390508091505090565b600081611a3281611997565b611a71576040517f08c379a0000000000000000000000000000000000000000000000000000000008152600401611a6890611ddc565b60405180910390fd5b6000611a7b6119f9565b60050160008573ffffffffffffffffffffffffffffffffffffffff1673ffffffffffffffffffffffffffffffffffffffff1681526020019081526020016000206001015411915050919050565b6000604051905090565b600080fd5b600080fd5b600073ffffffffffffffffffffffffffffffffffffffff82169050919050565b6000611b0782611adc565b9050919050565b611b1781611afc565b8114611b2257600080fd5b50565b600081359050611b3481611b0e565b92915050565b6000819050919050565b611b4d81611b3a565b8114611b5857600080fd5b50565b600081359050611b6a81611b44565b92915050565b60008060408385031215611b8757611b86611ad2565b5b6000611b9585828601611b25565b9250506020611ba685828601611b5b565b9150509250929050565b600060208284031215611bc657611bc5611ad2565b5b6000611bd484828501611b25565b91505092915050565b600080fd5b600080fd5b6000601f19601f8301169050919050565b7f4e487b7100000000000000000000000000000000000000000000000000000000600052604160045260246000fd5b611c3082611be7565b810181811067ffffffffffffffff82111715611c4f57611c4e611bf8565b5b80604052505050565b6000611c62611ac8565b9050611c6e8282611c27565b919050565b600067ffffffffffffffff821115611c8e57611c8d611bf8565b5b611c9782611be7565b9050602081019050919050565b82818337600083830152505050565b6000611cc6611cc184611c73565b611c58565b905082815260208101848484011115611ce257611ce1611be2565b5b611ced848285611ca4565b509392505050565b600082601f830112611d0a57611d09611bdd565b5b8135611d1a848260208601611cb3565b91505092915050565b60008060408385031215611d3a57611d39611ad2565b5b6000611d4885828601611b25565b925050602083013567ffffffffffffffff811115611d6957611d68611ad7565b5b611d7585828601611cf5565b9150509250929050565b600082825260208201905092915050565b7f424f433a2055736572206e6f7420666f756e6421000000000000000000000000600082015250565b6000611dc6601483611d7f565b9150611dd182611d90565b602082019050919050565b60006020820190508181036000830152611df581611db9565b9050919050565b7f424f433a2047696674206d7573742062652067726561746572207468616e207a60008201527f65726f2100000000000000000000000000000000000000000000000000000000602082015250565b6000611e58602483611d7f565b9150611e6382611dfc565b604082019050919050565b60006020820190508181036000830152611e8781611e4b565b9050919050565b611e9781611afc565b82525050565b6000602082019050611eb26000830184611e8e565b92915050565b600081519050611ec781611b44565b92915050565b600060208284031215611ee357611ee2611ad2565b5b6000611ef184828501611eb8565b91505092915050565b7f424f433a20596f7520646f6e2774206861766520656e6f75676820424f43205460008201527f6f6b656e7320746f2073656e6421000000000000000000000000000000000000602082015250565b6000611f56602e83611d7f565b9150611f6182611efa565b604082019050919050565b60006020820190508181036000830152611f8581611f49565b9050919050565b7f424f433a2043616e2774206769667420796f75722073656c6621000000000000600082015250565b6000611fc2601a83611d7f565b9150611fcd82611f8c565b602082019050919050565b60006020820190508181036000830152611ff181611fb5565b9050919050565b7f424f433a20496e76616c69642072656365697665722061646472657373210000600082015250565b600061202e601e83611d7f565b915061203982611ff8565b602082019050919050565b6000602082019050818103600083015261205d81612021565b9050919050565b7f424f433a20496e76616c69642073656e64657220616464726573732100000000600082015250565b600061209a601c83611d7f565b91506120a582612064565b602082019050919050565b600060208201905081810360008301526120c98161208d565b9050919050565b7f424f433a204e6f20626972746864617920666f756e6421000000000000000000600082015250565b6000612106601783611d7f565b9150612111826120d0565b602082019050919050565b60006020820190508181036000830152612135816120f9565b9050919050565b7f4e487b7100000000000000000000000000000000000000000000000000000000600052601160045260246000fd5b600061217682611b3a565b915061218183611b3a565b92508282019050808211156121995761219861213c565b5b92915050565b7f424f433a20476966742065786365656473207468652074617267657420616d6f60008201527f756e742100000000000000000000000000000000000000000000000000000000602082015250565b60006121fb602483611d7f565b91506122068261219f565b604082019050919050565b6000602082019050818103600083015261222a816121ee565b9050919050565b61223a81611b3a565b82525050565b60006060820190506122556000830186611e8e565b6122626020830185611e8e565b61226f6040830184612231565b949350505050565b60008115159050919050565b61228c81612277565b811461229757600080fd5b50565b6000815190506122a981612283565b92915050565b6000602082840312156122c5576122c4611ad2565b5b60006122d38482850161229a565b91505092915050565b7f424f43205472616e73666572204661696c656421000000000000000000000000600082015250565b6000612312601483611d7f565b915061231d826122dc565b602082019050919050565b6000602082019050818103600083015261234181612305565b9050919050565b7f4e487b7100000000000000000000000000000000000000000000000000000000600052602160045260246000fd5b600060608201905061238c6000830186612231565b6123996020830185612231565b6123a66040830184612231565b949350505050565b600281106123bf576123be612348565b5b50565b60008190506123d0826123ae565b919050565b60006123e0826123c2565b9050919050565b6123f0816123d5565b82525050565b600060808201905061240b6000830187612231565b61241860208301866123e7565b6124256040830185612231565b6124326060830184612231565b95945050505050565b7f424f433a2043616e2774206d65737361676520796f75722073656c6621000000600082015250565b6000612471601d83611d7f565b915061247c8261243b565b602082019050919050565b600060208201905081810360008301526124a081612464565b9050919050565b600081519050919050565b7f4e487b7100000000000000000000000000000000000000000000000000000000600052602260045260246000fd5b600060028204905060018216806124f957607f821691505b60208210810361250c5761250b6124b2565b5b50919050565b60008190508160005260206000209050919050565b60006020601f8301049050919050565b600082821b905092915050565b6000600883026125747fffffffffffffffffffffffffffffffffffffffffffffffffffffffffffffffff82612537565b61257e8683612537565b95508019841693508086168417925050509392505050565b6000819050919050565b60006125bb6125b66125b184611b3a565b612596565b611b3a565b9050919050565b6000819050919050565b6125d5836125a0565b6125e96125e1826125c2565b848454612544565b825550505050565b600090565b6125fe6125f1565b6126098184846125cc565b505050565b5b8181101561262d576126226000826125f6565b60018101905061260f565b5050565b601f8211156126725761264381612512565b61264c84612527565b8101602085101561265b578190505b61266f61266785612527565b83018261260e565b50505b505050565b600082821c905092915050565b600061269560001984600802612677565b1980831691505092915050565b60006126ae8383612684565b9150826002028217905092915050565b6126c7826124a7565b67ffffffffffffffff8111156126e0576126df611bf8565b5b6126ea82546124e1565b6126f5828285612631565b600060209050601f8311600181146127285760008415612716578287015190505b61272085826126a2565b865550612788565b601f19841661273686612512565b60005b8281101561275e57848901518255600182019150602085019450602081019050612739565b8683101561277b5784890151612777601f891682612684565b8355505b6001600288020188555050505b505050505050565b60006040820190506127a56000830185612231565b6127b26020830184612231565b939250505056fea26469706673582212201e2c3dcdc8ea742554d189907b6a96cd7b975769ab6d93e249a3e80ec4bcc2aa64736f6c634300081c0033",
  "linkReferences": {},
  "deployedLinkReferences": {}
}