{
  "_format": "hh-sol-artifact-1",
  "contractName": "BOCBirthdaysFacet",
  "sourceName": "contracts/facets/BOCBirthdaysFacet.sol",
  "abi": [
    {
      "inputs": [
        {
          "internalType": "address",
          "name": "token",
          "type": "address"
        }
      ],
      "name": "SafeERC20FailedOperation",
      "type": "error"
    },
    {
      "anonymous": false,
      "inputs": [
        {
          "indexed": true,
          "internalType": "address",
          "name": "user",
          "type": "address"
        },
        {
          "indexed": false,
          "internalType": "uint256",
          "name": "id",
          "type": "uint256"
        },
        {
          "indexed": false,
          "internalType": "uint256",
          "name": "when",
          "type": "uint256"
        }
      ],
      "name": "BirthdayCreated",
      "type": "event"
    },
    {
      "anonymous": false,
      "inputs": [
        {
          "indexed": true,
          "internalType": "address",
          "name": "from",
          "type": "address"
        },
        {
          "indexed": true,
          "internalType": "address",
          "name": "to",
          "type": "address"
        },
        {
          "indexed": false,
          "internalType": "uint256",
          "name": "amount",
          "type": "uint256"
        },
        {
          "indexed": false,
          "internalType": "uint256",
          "name": "when",
          "type": "uint256"
        }
      ],
      "name": "EtherWithdraw",
      "type": "event"
    },
    {
      "anonymous": false,
      "inputs": [
        {
          "indexed": true,
          "internalType": "address",
          "name": "user",
          "type": "address"
        },
        {
          "indexed": false,
          "internalType": "uint256",
          "name": "birthdayId",
          "type": "uint256"
        },
        {
          "indexed": false,
          "internalType": "uint256",
          "name": "when",
          "type": "uint256"
        }
      ],
      "name": "GoalCreated",
      "type": "event"
    },
    {
      "anonymous": false,
      "inputs": [
        {
          "indexed": true,
          "internalType": "address",
          "name": "user",
          "type": "address"
        },
        {
          "indexed": false,
          "internalType": "uint256",
          "name": "birthdayId",
          "type": "uint256"
        },
        {
          "indexed": false,
          "internalType": "uint256",
          "name": "when",
          "type": "uint256"
        }
      ],
      "name": "GoalUpdated",
      "type": "event"
    },
    {
      "anonymous": false,
      "inputs": [
        {
          "indexed": true,
          "internalType": "address",
          "name": "user",
          "type": "address"
        },
        {
          "indexed": false,
          "internalType": "uint256",
          "name": "birthdayId",
          "type": "uint256"
        },
        {
          "indexed": false,
          "internalType": "uint256",
          "name": "when",
          "type": "uint256"
        }
      ],
      "name": "TimelineCreated",
      "type": "event"
    },
    {
      "anonymous": false,
      "inputs": [
        {
          "indexed": true,
          "internalType": "address",
          "name": "from",
          "type": "address"
        },
        {
          "indexed": true,
          "internalType": "address",
          "name": "to",
          "type": "address"
        },
        {
          "indexed": true,
          "internalType": "address",
          "name": "token",
          "type": "address"
        },
        {
          "indexed": false,
          "internalType": "uint256",
          "name": "amount",
          "type": "uint256"
        },
        {
          "indexed": false,
          "internalType": "uint256",
          "name": "when",
          "type": "uint256"
        }
      ],
      "name": "TokenWithdraw",
      "type": "event"
    },
    {
      "anonymous": false,
      "inputs": [
        {
          "indexed": true,
          "internalType": "address",
          "name": "user",
          "type": "address"
        },
        {
          "indexed": false,
          "internalType": "uint256",
          "name": "amount",
          "type": "uint256"
        },
        {
          "indexed": false,
          "internalType": "uint256",
          "name": "when",
          "type": "uint256"
        }
      ],
      "name": "UserWithdrewEther",
      "type": "event"
    },
    {
      "anonymous": false,
      "inputs": [
        {
          "indexed": true,
          "internalType": "address",
          "name": "user",
          "type": "address"
        },
        {
          "indexed": true,
          "internalType": "address",
          "name": "token",
          "type": "address"
        },
        {
          "indexed": false,
          "internalType": "uint256",
          "name": "amount",
          "type": "uint256"
        },
        {
          "indexed": false,
          "internalType": "uint256",
          "name": "when",
          "type": "uint256"
        }
      ],
      "name": "UserWithdrewToken",
      "type": "event"
    },
    {
      "inputs": [
        {
          "internalType": "uint256",
          "name": "_when",
          "type": "uint256"
        }
      ],
      "name": "createBirthday",
      "outputs": [],
      "stateMutability": "nonpayable",
      "type": "function"
    },
    {
      "inputs": [
        {
          "internalType": "uint256",
          "name": "_when",
          "type": "uint256"
        },
        {
          "internalType": "string",
          "name": "_desc",
          "type": "string"
        },
        {
          "internalType": "uint256",
          "name": "_targetAmount",
          "type": "uint256"
        }
      ],
      "name": "createBirthdayAndGoal",
      "outputs": [],
      "stateMutability": "nonpayable",
      "type": "function"
    },
    {
      "inputs": [
        {
          "internalType": "uint256",
          "name": "_birthdayId",
          "type": "uint256"
        },
        {
          "internalType": "string",
          "name": "_desc",
          "type": "string"
        },
        {
          "internalType": "uint256",
          "name": "_targetAmount",
          "type": "uint256"
        }
      ],
      "name": "createGoal",
      "outputs": [],
      "stateMutability": "nonpayable",
      "type": "function"
    },
    {
      "inputs": [
        {
          "internalType": "uint256",
          "name": "_birthdayId",
          "type": "uint256"
        }
      ],
      "name": "createTimeline",
      "outputs": [],
      "stateMutability": "nonpayable",
      "type": "function"
    },
    {
      "inputs": [
        {
          "internalType": "uint256",
          "name": "_birthdayId",
          "type": "uint256"
        },
        {
          "internalType": "string",
          "name": "_desc",
          "type": "string"
        },
        {
          "internalType": "uint256",
          "name": "_targetAmount",
          "type": "uint256"
        }
      ],
      "name": "updateGoal",
      "outputs": [],
      "stateMutability": "nonpayable",
      "type": "function"
    },
    {
      "inputs": [],
      "name": "userWithdrawEther",
      "outputs": [],
      "stateMutability": "nonpayable",
      "type": "function"
    },
    {
      "inputs": [],
      "name": "userWithdrawToken",
      "outputs": [],
      "stateMutability": "nonpayable",
      "type": "function"
    }
  ],
  "bytecode": "0x6080604052348015600f57600080fd5b506123638061001f6000396000f3fe608060405234801561001057600080fd5b506004361061007d5760003560e01c8063764b1e3f1161005b578063764b1e3f146100c4578063ae793576146100e0578063dc417c02146100fc578063df445798146101185761007d565b806345295ae6146100825780636f6192e91461009e578063748c5ea6146100ba575b600080fd5b61009c6004803603810190610097919061195c565b610122565b005b6100b860048036038101906100b3919061195c565b610302565b005b6100c26103b6565b005b6100de60048036038101906100d991906119cb565b61095c565b005b6100fa60048036038101906100f591906119cb565b610a8a565b005b6101166004803603810190610111919061195c565b610bed565b005b610120610e2b565b005b3361012c81611229565b61016b576040517f08c379a000000000000000000000000000000000000000000000000000000000815260040161016290611a55565b60405180910390fd5b6101743361128b565b6101b3576040517f08c379a00000000000000000000000000000000000000000000000000000000081526004016101aa90611ac1565b60405180910390fd5b6101bd338561132d565b6101fc576040517f08c379a00000000000000000000000000000000000000000000000000000000081526004016101f390611b2d565b60405180910390fd5b60006102066113df565b60050160003373ffffffffffffffffffffffffffffffffffffffff1673ffffffffffffffffffffffffffffffffffffffff1681526020019081526020016000209050600060405180608001604052804281526020018681526020018581526020016000815250905080826004016000820151816000015560208201518160010190816102929190611d64565b5060408201518160020155606082015181600301559050503373ffffffffffffffffffffffffffffffffffffffff167f585021382a707927ff376ee2d95481c8ae02449a616bbff2c6d68fff56cfb15b87426040516102f2929190611e45565b60405180910390a2505050505050565b3361030c81611229565b61034b576040517f08c379a000000000000000000000000000000000000000000000000000000000815260040161034290611a55565b60405180910390fd5b61035484610a8a565b600061035e6113df565b60050160003373ffffffffffffffffffffffffffffffffffffffff1673ffffffffffffffffffffffffffffffffffffffff16815260200190815260200160002090506103af81600001548585610122565b5050505050565b336103c081611229565b6103ff576040517f08c379a00000000000000000000000000000000000000000000000000000000081526004016103f690611a55565b60405180910390fd5b60006104096113df565b600a0160006104166113df565b60010160009054906101000a900473ffffffffffffffffffffffffffffffffffffffff1673ffffffffffffffffffffffffffffffffffffffff1673ffffffffffffffffffffffffffffffffffffffff16815260200190815260200160002060003373ffffffffffffffffffffffffffffffffffffffff1673ffffffffffffffffffffffffffffffffffffffff168152602001908152602001600020549050600081116104f7576040517f08c379a00000000000000000000000000000000000000000000000000000000081526004016104ee90611eba565b60405180910390fd5b60006105016113df565b60050160003373ffffffffffffffffffffffffffffffffffffffff1673ffffffffffffffffffffffffffffffffffffffff16815260200190815260200160002090508060040160020154816004016003015414610593576040517f08c379a000000000000000000000000000000000000000000000000000000000815260040161058a90611f72565b60405180910390fd5b600061059d6113df565b60010160009054906101000a900473ffffffffffffffffffffffffffffffffffffffff1673ffffffffffffffffffffffffffffffffffffffff166370a08231306040518263ffffffff1660e01b81526004016105f99190611fd3565b602060405180830381865afa158015610616573d6000803e3d6000fd5b505050506040513d601f19601f8201168201806040525081019061063a9190612003565b90508281101561067f576040517f08c379a0000000000000000000000000000000000000000000000000000000008152600401610676906120c8565b60405180910390fd5b6106d5338461068c6113df565b60010160009054906101000a900473ffffffffffffffffffffffffffffffffffffffff1673ffffffffffffffffffffffffffffffffffffffff1661140c9092919063ffffffff16565b60006106df6113df565b600a0160006106ec6113df565b60010160009054906101000a900473ffffffffffffffffffffffffffffffffffffffff1673ffffffffffffffffffffffffffffffffffffffff1673ffffffffffffffffffffffffffffffffffffffff16815260200190815260200160002060003373ffffffffffffffffffffffffffffffffffffffff1673ffffffffffffffffffffffffffffffffffffffff1681526020019081526020016000208190555060006107956113df565b60050160003373ffffffffffffffffffffffffffffffffffffffff1673ffffffffffffffffffffffffffffffffffffffff1681526020019081526020016000206004016002018190555060006107e96113df565b60050160003373ffffffffffffffffffffffffffffffffffffffff1673ffffffffffffffffffffffffffffffffffffffff168152602001908152602001600020600401600301819055506040518060400160405280601381526020017f424f433a20476f616c20416368696576656421000000000000000000000000008152506108716113df565b60050160003373ffffffffffffffffffffffffffffffffffffffff1673ffffffffffffffffffffffffffffffffffffffff16815260200190815260200160002060040160010190816108c39190611d64565b506108cc6113df565b60010160009054906101000a900473ffffffffffffffffffffffffffffffffffffffff1673ffffffffffffffffffffffffffffffffffffffff163373ffffffffffffffffffffffffffffffffffffffff167fca7406a9d04a2840379f32c437259e7ae76320bdf35f2f33f50c42519b51495d854260405161094e929190611e45565b60405180910390a350505050565b3361096681611229565b6109a5576040517f08c379a000000000000000000000000000000000000000000000000000000000815260040161099c90611a55565b60405180910390fd5b60006109af6113df565b60050160003373ffffffffffffffffffffffffffffffffffffffff1673ffffffffffffffffffffffffffffffffffffffff168152602001908152602001600020905080600301604051806020016040528042815250908060018154018082558091505060019003906000526020600020016000909190919091506000820151816000015550503373ffffffffffffffffffffffffffffffffffffffff167f72438a4f705696d3f93b3f06750ed0ca50c6361938d7ee31af16f7d35f38d8f48442604051610a7d929190611e45565b60405180910390a2505050565b33610a9481611229565b610ad3576040517f08c379a0000000000000000000000000000000000000000000000000000000008152600401610aca90611a55565b60405180910390fd5b6000610add6113df565b60050160003373ffffffffffffffffffffffffffffffffffffffff1673ffffffffffffffffffffffffffffffffffffffff1681526020019081526020016000206000015490506000610b2d6113df565b60050160003373ffffffffffffffffffffffffffffffffffffffff1673ffffffffffffffffffffffffffffffffffffffff1681526020019081526020016000209050818160000181905550838160020181905550428160010181905550610b97816000015461095c565b3373ffffffffffffffffffffffffffffffffffffffff167f3e53bf0ca632dbc656d8dff7a1dcc451d8806c1fed9b292bc4b5bd74cb61eae78386604051610bdf929190611e45565b60405180910390a250505050565b33610bf781611229565b610c36576040517f08c379a0000000000000000000000000000000000000000000000000000000008152600401610c2d90611a55565b60405180910390fd5b610c3f3361128b565b610c7e576040517f08c379a0000000000000000000000000000000000000000000000000000000008152600401610c7590611ac1565b60405180910390fd5b610c88338561132d565b610cc7576040517f08c379a0000000000000000000000000000000000000000000000000000000008152600401610cbe90611b2d565b60405180910390fd5b6000610cd16113df565b60050160003373ffffffffffffffffffffffffffffffffffffffff1673ffffffffffffffffffffffffffffffffffffffff168152602001908152602001600020905060008160040190508060020154816003015414610d65576040517f08c379a0000000000000000000000000000000000000000000000000000000008152600401610d5c9061215a565b60405180910390fd5b6000610d6f6113df565b60050160003373ffffffffffffffffffffffffffffffffffffffff1673ffffffffffffffffffffffffffffffffffffffff168152602001908152602001600020905085816004016001019081610dc59190611d64565b508481600401600201819055503373ffffffffffffffffffffffffffffffffffffffff167ffb938676a3d5e6225dec262c0e5ee29dd47402ce05cd3a0da37c15996470cd3d8842604051610e1a929190611e45565b60405180910390a250505050505050565b33610e3581611229565b610e74576040517f08c379a0000000000000000000000000000000000000000000000000000000008152600401610e6b90611a55565b60405180910390fd5b6000610e7e6113df565b600b0160003373ffffffffffffffffffffffffffffffffffffffff1673ffffffffffffffffffffffffffffffffffffffff16815260200190815260200160002054905060008111610f04576040517f08c379a0000000000000000000000000000000000000000000000000000000008152600401610efb906121c6565b60405180910390fd5b6000610f0e6113df565b60050160003373ffffffffffffffffffffffffffffffffffffffff1673ffffffffffffffffffffffffffffffffffffffff16815260200190815260200160002090508060040160020154816004016003015414610fa0576040517f08c379a0000000000000000000000000000000000000000000000000000000008152600401610f9790611f72565b60405180910390fd5b60003373ffffffffffffffffffffffffffffffffffffffff1683604051610fc690612217565b60006040518083038185875af1925050503d8060008114611003576040519150601f19603f3d011682016040523d82523d6000602084013e611008565b606091505b505090508061104c576040517f08c379a000000000000000000000000000000000000000000000000000000000815260040161104390612278565b60405180910390fd5b60006110566113df565b600b0160003373ffffffffffffffffffffffffffffffffffffffff1673ffffffffffffffffffffffffffffffffffffffff1681526020019081526020016000208190555060006110a46113df565b60050160003373ffffffffffffffffffffffffffffffffffffffff1673ffffffffffffffffffffffffffffffffffffffff1681526020019081526020016000206004016002018190555060006110f86113df565b60050160003373ffffffffffffffffffffffffffffffffffffffff1673ffffffffffffffffffffffffffffffffffffffff168152602001908152602001600020600401600301819055506040518060400160405280601381526020017f424f433a20476f616c20416368696576656421000000000000000000000000008152506111806113df565b60050160003373ffffffffffffffffffffffffffffffffffffffff1673ffffffffffffffffffffffffffffffffffffffff16815260200190815260200160002060040160010190816111d29190611d64565b503373ffffffffffffffffffffffffffffffffffffffff167f22ba081e7e96cb5287975a538cf50513fe1e04893e9355e586a8e23e0bf7dcab844260405161121b929190611e45565b60405180910390a250505050565b60006112336113df565b60070160008373ffffffffffffffffffffffffffffffffffffffff1673ffffffffffffffffffffffffffffffffffffffff16815260200190815260200160002060050160019054906101000a900460ff169050919050565b60008161129781611229565b6112d6576040517f08c379a00000000000000000000000000000000000000000000000000000000081526004016112cd90611a55565b60405180910390fd5b60006112e06113df565b60050160008573ffffffffffffffffffffffffffffffffffffffff1673ffffffffffffffffffffffffffffffffffffffff1681526020019081526020016000206001015411915050919050565b60008261133981611229565b611378576040517f08c379a000000000000000000000000000000000000000000000000000000000815260040161136f90611a55565b60405180910390fd5b6113818461128b565b6113c0576040517f08c379a00000000000000000000000000000000000000000000000000000000081526004016113b7906122e4565b60405180910390fd5b60006113cb8561148b565b600001519050808411159250505092915050565b6000807fd9e35282e2215880e2e89e7d63345ded769cf6489d8c377c2c5a8a3ce3eb68c390508091505090565b611486838473ffffffffffffffffffffffffffffffffffffffff1663a9059cbb858560405160240161143f929190612304565b604051602081830303815290604052915060e01b6020820180517bffffffffffffffffffffffffffffffffffffffffffffffffffffffff83818316178352505050506116cd565b505050565b61149361176f565b8161149d81611229565b6114dc576040517f08c379a00000000000000000000000000000000000000000000000000000000081526004016114d390611a55565b60405180910390fd5b600115156114e98461128b565b15151461152b576040517f08c379a0000000000000000000000000000000000000000000000000000000008152600401611522906122e4565b60405180910390fd5b6115336113df565b60050160008473ffffffffffffffffffffffffffffffffffffffff1673ffffffffffffffffffffffffffffffffffffffff1681526020019081526020016000206040518060a001604052908160008201548152602001600182015481526020016002820154815260200160038201805480602002602001604051908101604052809291908181526020016000905b828210156115f957838290600052602060002001604051806020016040529081600082015481525050815260200190600101906115c1565b505050508152602001600482016040518060800160405290816000820154815260200160018201805461162b90611b87565b80601f016020809104026020016040519081016040528092919081815260200182805461165790611b87565b80156116a45780601f10611679576101008083540402835291602001916116a4565b820191906000526020600020905b81548152906001019060200180831161168757829003601f168201915b505050505081526020016002820154815260200160038201548152505081525050915050919050565b600080602060008451602086016000885af1806116f0576040513d6000823e3d81fd5b3d92506000519150506000821461170b576001811415611727565b60008473ffffffffffffffffffffffffffffffffffffffff163b145b1561176957836040517f5274afe70000000000000000000000000000000000000000000000000000000081526004016117609190611fd3565b60405180910390fd5b50505050565b6040518060a001604052806000815260200160008152602001600081526020016060815260200161179e6117a4565b81525090565b6040518060800160405280600081526020016060815260200160008152602001600081525090565b6000604051905090565b600080fd5b600080fd5b6000819050919050565b6117f3816117e0565b81146117fe57600080fd5b50565b600081359050611810816117ea565b92915050565b600080fd5b600080fd5b6000601f19601f8301169050919050565b7f4e487b7100000000000000000000000000000000000000000000000000000000600052604160045260246000fd5b61186982611820565b810181811067ffffffffffffffff8211171561188857611887611831565b5b80604052505050565b600061189b6117cc565b90506118a78282611860565b919050565b600067ffffffffffffffff8211156118c7576118c6611831565b5b6118d082611820565b9050602081019050919050565b82818337600083830152505050565b60006118ff6118fa846118ac565b611891565b90508281526020810184848401111561191b5761191a61181b565b5b6119268482856118dd565b509392505050565b600082601f83011261194357611942611816565b5b81356119538482602086016118ec565b91505092915050565b600080600060608486031215611975576119746117d6565b5b600061198386828701611801565b935050602084013567ffffffffffffffff8111156119a4576119a36117db565b5b6119b08682870161192e565b92505060406119c186828701611801565b9150509250925092565b6000602082840312156119e1576119e06117d6565b5b60006119ef84828501611801565b91505092915050565b600082825260208201905092915050565b7f424f433a2055736572206e6f7420666f756e6421000000000000000000000000600082015250565b6000611a3f6014836119f8565b9150611a4a82611a09565b602082019050919050565b60006020820190508181036000830152611a6e81611a32565b9050919050565b7f424f433a204e6f2062697274686461797320666f756e64210000000000000000600082015250565b6000611aab6018836119f8565b9150611ab682611a75565b602082019050919050565b60006020820190508181036000830152611ada81611a9e565b9050919050565b7f424f433a20496e76616c69642042697274686461792049442100000000000000600082015250565b6000611b176019836119f8565b9150611b2282611ae1565b602082019050919050565b60006020820190508181036000830152611b4681611b0a565b9050919050565b600081519050919050565b7f4e487b7100000000000000000000000000000000000000000000000000000000600052602260045260246000fd5b60006002820490506001821680611b9f57607f821691505b602082108103611bb257611bb1611b58565b5b50919050565b60008190508160005260206000209050919050565b60006020601f8301049050919050565b600082821b905092915050565b600060088302611c1a7fffffffffffffffffffffffffffffffffffffffffffffffffffffffffffffffff82611bdd565b611c248683611bdd565b95508019841693508086168417925050509392505050565b6000819050919050565b6000611c61611c5c611c57846117e0565b611c3c565b6117e0565b9050919050565b6000819050919050565b611c7b83611c46565b611c8f611c8782611c68565b848454611bea565b825550505050565b600090565b611ca4611c97565b611caf818484611c72565b505050565b5b81811015611cd357611cc8600082611c9c565b600181019050611cb5565b5050565b601f821115611d1857611ce981611bb8565b611cf284611bcd565b81016020851015611d01578190505b611d15611d0d85611bcd565b830182611cb4565b50505b505050565b600082821c905092915050565b6000611d3b60001984600802611d1d565b1980831691505092915050565b6000611d548383611d2a565b9150826002028217905092915050565b611d6d82611b4d565b67ffffffffffffffff811115611d8657611d85611831565b5b611d908254611b87565b611d9b828285611cd7565b600060209050601f831160018114611dce5760008415611dbc578287015190505b611dc68582611d48565b865550611e2e565b601f198416611ddc86611bb8565b60005b82811015611e0457848901518255600182019150602085019450602081019050611ddf565b86831015611e215784890151611e1d601f891682611d2a565b8355505b6001600288020188555050505b505050505050565b611e3f816117e0565b82525050565b6000604082019050611e5a6000830185611e36565b611e676020830184611e36565b9392505050565b7f424f433a20496e73756666696369656e7420424f432066756e64732100000000600082015250565b6000611ea4601c836119f8565b9150611eaf82611e6e565b602082019050919050565b60006020820190508181036000830152611ed381611e97565b9050919050565b7f424f433a2044656e6965642c20756e74696c20796f757220676f616c2068617360008201527f206265656e2061636869657665642c206b6565702073686172696e672c20796f60208201527f7520676f7420746869732e000000000000000000000000000000000000000000604082015250565b6000611f5c604b836119f8565b9150611f6782611eda565b606082019050919050565b60006020820190508181036000830152611f8b81611f4f565b9050919050565b600073ffffffffffffffffffffffffffffffffffffffff82169050919050565b6000611fbd82611f92565b9050919050565b611fcd81611fb2565b82525050565b6000602082019050611fe86000830184611fc4565b92915050565b600081519050611ffd816117ea565b92915050565b600060208284031215612019576120186117d6565b5b600061202784828501611fee565b91505092915050565b7f424f433a20436f6e7472616374206c697175696469747920746f6f206c6f772060008201527f666f72207769746864726177616c2e20506c656173652074727920616761696e60208201527f206c617465722e00000000000000000000000000000000000000000000000000604082015250565b60006120b26047836119f8565b91506120bd82612030565b606082019050919050565b600060208201905081810360008301526120e1816120a5565b9050919050565b7f424f433a20476f616c20696e2070726f67726573732c207761697420756e746960008201527f6c2066696e697368656421000000000000000000000000000000000000000000602082015250565b6000612144602b836119f8565b915061214f826120e8565b604082019050919050565b6000602082019050818103600083015261217381612137565b9050919050565b7f424f433a20496e73756666696369656e742066756e6473210000000000000000600082015250565b60006121b06018836119f8565b91506121bb8261217a565b602082019050919050565b600060208201905081810360008301526121df816121a3565b9050919050565b600081905092915050565b50565b60006122016000836121e6565b915061220c826121f1565b600082019050919050565b6000612222826121f4565b9150819050919050565b7f424f433a205472616e73616374696f6e206661696c6564210000000000000000600082015250565b60006122626018836119f8565b915061226d8261222c565b602082019050919050565b6000602082019050818103600083015261229181612255565b9050919050565b7f424f433a204e6f20426972746864617920666f756e6421000000000000000000600082015250565b60006122ce6017836119f8565b91506122d982612298565b602082019050919050565b600060208201905081810360008301526122fd816122c1565b9050919050565b60006040820190506123196000830185611fc4565b6123266020830184611e36565b939250505056fea2646970667358221220c1c2527b526a4a7739a7c990b815e222207ac50038c63f756264d84a549718ac64736f6c634300081c0033",
  "linkReferences": {},
  "deployedLinkReferences": {}
}