{
  "_format": "hh-sol-artifact-1",
  "contractName": "BOCDiamond",
  "sourceName": "contracts/BOCDiamond.sol",
  "abi": [
    {
      "inputs": [
        {
          "internalType": "address",
          "name": "owner",
          "type": "address"
        }
      ],
      "stateMutability": "nonpayable",
      "type": "constructor"
    },
    {
      "inputs": [],
      "name": "DiamondWritable__InvalidInitializationParameters",
      "type": "error"
    },
    {
      "inputs": [],
      "name": "DiamondWritable__RemoveTargetNotZeroAddress",
      "type": "error"
    },
    {
      "inputs": [],
      "name": "DiamondWritable__ReplaceTargetIsIdentical",
      "type": "error"
    },
    {
      "inputs": [],
      "name": "DiamondWritable__SelectorAlreadyAdded",
      "type": "error"
    },
    {
      "inputs": [],
      "name": "DiamondWritable__SelectorIsImmutable",
      "type": "error"
    },
    {
      "inputs": [],
      "name": "DiamondWritable__SelectorNotFound",
      "type": "error"
    },
    {
      "inputs": [],
      "name": "DiamondWritable__SelectorNotSpecified",
      "type": "error"
    },
    {
      "inputs": [],
      "name": "DiamondWritable__TargetHasNoCode",
      "type": "error"
    },
    {
      "inputs": [],
      "name": "ERC165Base__InvalidInterfaceId",
      "type": "error"
    },
    {
      "inputs": [],
      "name": "Ownable__NotOwner",
      "type": "error"
    },
    {
      "inputs": [],
      "name": "Ownable__NotTransitiveOwner",
      "type": "error"
    },
    {
      "inputs": [],
      "name": "Proxy__ImplementationIsNotContract",
      "type": "error"
    },
    {
      "inputs": [],
      "name": "SafeOwnable__NotNomineeOwner",
      "type": "error"
    },
    {
      "anonymous": false,
      "inputs": [
        {
          "components": [
            {
              "internalType": "address",
              "name": "target",
              "type": "address"
            },
            {
              "internalType": "enum IERC2535DiamondCutInternal.FacetCutAction",
              "name": "action",
              "type": "uint8"
            },
            {
              "internalType": "bytes4[]",
              "name": "selectors",
              "type": "bytes4[]"
            }
          ],
          "indexed": false,
          "internalType": "struct IERC2535DiamondCutInternal.FacetCut[]",
          "name": "facetCuts",
          "type": "tuple[]"
        },
        {
          "indexed": false,
          "internalType": "address",
          "name": "target",
          "type": "address"
        },
        {
          "indexed": false,
          "internalType": "bytes",
          "name": "data",
          "type": "bytes"
        }
      ],
      "name": "DiamondCut",
      "type": "event"
    },
    {
      "anonymous": false,
      "inputs": [
        {
          "indexed": true,
          "internalType": "address",
          "name": "previousOwner",
          "type": "address"
        },
        {
          "indexed": true,
          "internalType": "address",
          "name": "newOwner",
          "type": "address"
        }
      ],
      "name": "OwnershipTransferred",
      "type": "event"
    },
    {
      "stateMutability": "payable",
      "type": "fallback"
    },
    {
      "inputs": [],
      "name": "acceptOwnership",
      "outputs": [],
      "stateMutability": "nonpayable",
      "type": "function"
    },
    {
      "inputs": [
        {
          "components": [
            {
              "internalType": "address",
              "name": "target",
              "type": "address"
            },
            {
              "internalType": "enum IERC2535DiamondCutInternal.FacetCutAction",
              "name": "action",
              "type": "uint8"
            },
            {
              "internalType": "bytes4[]",
              "name": "selectors",
              "type": "bytes4[]"
            }
          ],
          "internalType": "struct IERC2535DiamondCutInternal.FacetCut[]",
          "name": "facetCuts",
          "type": "tuple[]"
        },
        {
          "internalType": "address",
          "name": "target",
          "type": "address"
        },
        {
          "internalType": "bytes",
          "name": "data",
          "type": "bytes"
        }
      ],
      "name": "diamondCut",
      "outputs": [],
      "stateMutability": "nonpayable",
      "type": "function"
    },
    {
      "inputs": [
        {
          "internalType": "bytes4",
          "name": "selector",
          "type": "bytes4"
        }
      ],
      "name": "facetAddress",
      "outputs": [
        {
          "internalType": "address",
          "name": "facet",
          "type": "address"
        }
      ],
      "stateMutability": "view",
      "type": "function"
    },
    {
      "inputs": [],
      "name": "facetAddresses",
      "outputs": [
        {
          "internalType": "address[]",
          "name": "addresses",
          "type": "address[]"
        }
      ],
      "stateMutability": "view",
      "type": "function"
    },
    {
      "inputs": [
        {
          "internalType": "address",
          "name": "facet",
          "type": "address"
        }
      ],
      "name": "facetFunctionSelectors",
      "outputs": [
        {
          "internalType": "bytes4[]",
          "name": "selectors",
          "type": "bytes4[]"
        }
      ],
      "stateMutability": "view",
      "type": "function"
    },
    {
      "inputs": [],
      "name": "facets",
      "outputs": [
        {
          "components": [
            {
              "internalType": "address",
              "name": "target",
              "type": "address"
            },
            {
              "internalType": "bytes4[]",
              "name": "selectors",
              "type": "bytes4[]"
            }
          ],
          "internalType": "struct IERC2535DiamondLoupeInternal.Facet[]",
          "name": "diamondFacets",
          "type": "tuple[]"
        }
      ],
      "stateMutability": "view",
      "type": "function"
    },
    {
      "inputs": [],
      "name": "getFallbackAddress",
      "outputs": [
        {
          "internalType": "address",
          "name": "fallbackAddress",
          "type": "address"
        }
      ],
      "stateMutability": "view",
      "type": "function"
    },
    {
      "inputs": [],
      "name": "nomineeOwner",
      "outputs": [
        {
          "internalType": "address",
          "name": "",
          "type": "address"
        }
      ],
      "stateMutability": "view",
      "type": "function"
    },
    {
      "inputs": [],
      "name": "owner",
      "outputs": [
        {
          "internalType": "address",
          "name": "",
          "type": "address"
        }
      ],
      "stateMutability": "view",
      "type": "function"
    },
    {
      "inputs": [
        {
          "internalType": "address",
          "name": "fallbackAddress",
          "type": "address"
        }
      ],
      "name": "setFallbackAddress",
      "outputs": [],
      "stateMutability": "nonpayable",
      "type": "function"
    },
    {
      "inputs": [
        {
          "internalType": "bytes4",
          "name": "interfaceId",
          "type": "bytes4"
        }
      ],
      "name": "supportsInterface",
      "outputs": [
        {
          "internalType": "bool",
          "name": "",
          "type": "bool"
        }
      ],
      "stateMutability": "view",
      "type": "function"
    },
    {
      "inputs": [
        {
          "internalType": "address",
          "name": "account",
          "type": "address"
        }
      ],
      "name": "transferOwnership",
      "outputs": [],
      "stateMutability": "nonpayable",
      "type": "function"
    },
    {
      "stateMutability": "payable",
      "type": "receive"
    }
  ],
  "bytecode": "0x608060405234801561001057600080fd5b50604051614d30380380614d308339818101604052810190610032919061190a565b6000600c67ffffffffffffffff81111561004f5761004e611937565b5b60405190808252806020026020018201604052801561007d5781602001602082028036833780820191505090505b5090506000632c40805960e01b8282806100969061199f565b9350815181106100a9576100a86119e7565b5b60200260200101907bffffffffffffffffffffffffffffffffffffffffffffffffffffffff191690817bffffffffffffffffffffffffffffffffffffffffffffffffffffffff191681525050639142376560e01b8282806101099061199f565b93508151811061011c5761011b6119e7565b5b60200260200101907bffffffffffffffffffffffffffffffffffffffffffffffffffffffff191690817bffffffffffffffffffffffffffffffffffffffffffffffffffffffff1916815250506101997fbd02b73c00000000000000000000000000000000000000000000000000000000600161082660201b60201c565b631f931c1c60e01b8282806101ad9061199f565b9350815181106101c0576101bf6119e7565b5b60200260200101907bffffffffffffffffffffffffffffffffffffffffffffffffffffffff191690817bffffffffffffffffffffffffffffffffffffffffffffffffffffffff19168152505061023d7f1f931c1c00000000000000000000000000000000000000000000000000000000600161082660201b60201c565b637a0ed62760e01b8282806102519061199f565b935081518110610264576102636119e7565b5b60200260200101907bffffffffffffffffffffffffffffffffffffffffffffffffffffffff191690817bffffffffffffffffffffffffffffffffffffffffffffffffffffffff19168152505063adfca15e60e01b8282806102c49061199f565b9350815181106102d7576102d66119e7565b5b60200260200101907bffffffffffffffffffffffffffffffffffffffffffffffffffffffff191690817bffffffffffffffffffffffffffffffffffffffffffffffffffffffff1916815250506352ef6b2c60e01b8282806103379061199f565b93508151811061034a576103496119e7565b5b60200260200101907bffffffffffffffffffffffffffffffffffffffffffffffffffffffff191690817bffffffffffffffffffffffffffffffffffffffffffffffffffffffff19168152505063cdffacc660e01b8282806103aa9061199f565b9350815181106103bd576103bc6119e7565b5b60200260200101907bffffffffffffffffffffffffffffffffffffffffffffffffffffffff191690817bffffffffffffffffffffffffffffffffffffffffffffffffffffffff19168152505061043a7f48e2b09300000000000000000000000000000000000000000000000000000000600161082660201b60201c565b6301ffc9a760e01b82828061044e9061199f565b935081518110610461576104606119e7565b5b60200260200101907bffffffffffffffffffffffffffffffffffffffffffffffffffffffff191690817bffffffffffffffffffffffffffffffffffffffffffffffffffffffff1916815250506104de7f01ffc9a700000000000000000000000000000000000000000000000000000000600161082660201b60201c565b638da5cb5b60e01b8282806104f29061199f565b935081518110610505576105046119e7565b5b60200260200101907bffffffffffffffffffffffffffffffffffffffffffffffffffffffff191690817bffffffffffffffffffffffffffffffffffffffffffffffffffffffff191681525050638ab5150a60e01b8282806105659061199f565b935081518110610578576105776119e7565b5b60200260200101907bffffffffffffffffffffffffffffffffffffffffffffffffffffffff191690817bffffffffffffffffffffffffffffffffffffffffffffffffffffffff19168152505063f2fde38b60e01b8282806105d89061199f565b9350815181106105eb576105ea6119e7565b5b60200260200101907bffffffffffffffffffffffffffffffffffffffffffffffffffffffff191690817bffffffffffffffffffffffffffffffffffffffffffffffffffffffff1916815250506379ba509760e01b82828061064b9061199f565b93508151811061065e5761065d6119e7565b5b60200260200101907bffffffffffffffffffffffffffffffffffffffffffffffffffffffff191690817bffffffffffffffffffffffffffffffffffffffffffffffffffffffff1916815250506106db7f7f5828d000000000000000000000000000000000000000000000000000000000600161082660201b60201c565b6000600167ffffffffffffffff8111156106f8576106f7611937565b5b60405190808252806020026020018201604052801561073157816020015b61071e61185e565b8152602001906001900390816107165790505b50905060405180606001604052803073ffffffffffffffffffffffffffffffffffffffff1681526020016000600281111561076f5761076e611a16565b5b8152602001848152508160008151811061078c5761078b6119e7565b5b60200260200101819052506107b88160006040518060200160405280600081525061090160201b60201c565b6107c733610b5860201b60201c565b50505060006107da610c2f60201b60201c565b9050818160000160006101000a81548173ffffffffffffffffffffffffffffffffffffffff021916908373ffffffffffffffffffffffffffffffffffffffff1602179055505050611dcf565b63ffffffff60e01b827bffffffffffffffffffffffffffffffffffffffffffffffffffffffff191603610885576040517fb0a19dd500000000000000000000000000000000000000000000000000000000815260040160405180910390fd5b80610894610c5c60201b60201c565b6000016000847bffffffffffffffffffffffffffffffffffffffffffffffffffffffff19167bffffffffffffffffffffffffffffffffffffffffffffffffffffffff1916815260200190815260200160002060006101000a81548160ff0219169083151502179055505050565b6000610911610c8960201b60201c565b905060008160010160009054906101000a900461ffff1661ffff1690506000819050600080600783161461095c57836002016000600384901c81526020019081526020016000205490505b60005b8751811015610ab257600088828151811061097d5761097c6119e7565b5b602002602001015190506000816020015190506000826040015151036109cf576040517feb6c3aeb00000000000000000000000000000000000000000000000000000000815260040160405180910390fd5b600060028111156109e3576109e2611a16565b5b8160028111156109f6576109f5611a16565b5b03610a1a57610a0d87838787610cb660201b60201c565b8095508196505050610aa3565b60016002811115610a2e57610a2d611a16565b5b816002811115610a4157610a40611a16565b5b03610a5b57610a568783610f6160201b60201c565b610aa2565b600280811115610a6e57610a6d611a16565b5b816002811115610a8157610a80611a16565b5b03610aa157610a988783878761121d60201b60201c565b80955081965050505b5b5b5050808060010191505061095f565b50828214610ada57818460010160006101000a81548161ffff021916908361ffff1602179055505b60006007831614610b045780846002016000600385901c8152602001908152602001600020819055505b7f8faa70878671ccd212d20771b795c50af8fd3ff6cf27f4bde57e5d4de0aeb673878787604051610b3793929190611d37565b60405180910390a1610b4f868661163f60201b60201c565b50505050505050565b6000610b68610c2f60201b60201c565b90508173ffffffffffffffffffffffffffffffffffffffff168160000160009054906101000a900473ffffffffffffffffffffffffffffffffffffffff1673ffffffffffffffffffffffffffffffffffffffff167f8be0079c531659141344cd1fd0a4f28419497f9722a3daafe3b4186f6b6457e060405160405180910390a3818160000160006101000a81548173ffffffffffffffffffffffffffffffffffffffff021916908373ffffffffffffffffffffffffffffffffffffffff1602179055505050565b6000807f8a22373512790c48b83a1fe2efdd2888d4a917bcdc24d0adf63e60f67168046090508091505090565b6000807ffc606c433378e3a7e0a6a531deac289b66caa1b4aa8554fd4ab2c6f1570f92d890508091505090565b6000807f177481ac65e4292921c69f62d1cc7f57541261e5d61c8175cf4e36a01c9bfc9390508091505090565b600080610ce2856000015173ffffffffffffffffffffffffffffffffffffffff166117f260201b60201c565b15610d55573073ffffffffffffffffffffffffffffffffffffffff16856000015173ffffffffffffffffffffffffffffffffffffffff1603610d50576040517fe983573100000000000000000000000000000000000000000000000000000000815260040160405180910390fd5b610dbf565b3073ffffffffffffffffffffffffffffffffffffffff16856000015173ffffffffffffffffffffffffffffffffffffffff1614610dbe576040517ff77172ac00000000000000000000000000000000000000000000000000000000815260040160405180910390fd5b5b60005b856040015151811015610f5157600086604001518281518110610de857610de76119e7565b5b602002602001015190506000801b886000016000837bffffffffffffffffffffffffffffffffffffffffffffffffffffffff19167bffffffffffffffffffffffffffffffffffffffffffffffffffffffff191681526020019081526020016000205414610e81576040517f92474ee200000000000000000000000000000000000000000000000000000000815260040160405180910390fd5b866000015160601b6bffffffffffffffffffffffff19168660001b17886000016000837bffffffffffffffffffffffffffffffffffffffffffffffffffffffff19167bffffffffffffffffffffffffffffffffffffffffffffffffffffffff19168152602001908152602001600020819055506000600560078816901b9050610f1186838361180560201b60201c565b955060e08103610f3a578589600201600060038a901c8152602001908152602001600020819055505b868060010197505050508080600101915050610dc2565b5083839150915094509492505050565b610f8a816000015173ffffffffffffffffffffffffffffffffffffffff166117f260201b60201c565b610fc0576040517ff77172ac00000000000000000000000000000000000000000000000000000000815260040160405180910390fd5b60005b81604001515181101561121857600082604001518281518110610fe957610fe86119e7565b5b602002602001015190506000846000016000837bffffffffffffffffffffffffffffffffffffffffffffffffffffffff19167bffffffffffffffffffffffffffffffffffffffffffffffffffffffff1916815260200190815260200160002054905060008160601c9050600073ffffffffffffffffffffffffffffffffffffffff168173ffffffffffffffffffffffffffffffffffffffff16036110b9576040517f6fc4b52e00000000000000000000000000000000000000000000000000000000815260040160405180910390fd5b3073ffffffffffffffffffffffffffffffffffffffff168173ffffffffffffffffffffffffffffffffffffffff160361111e576040517fe983573100000000000000000000000000000000000000000000000000000000815260040160405180910390fd5b846000015173ffffffffffffffffffffffffffffffffffffffff168173ffffffffffffffffffffffffffffffffffffffff1603611187576040517f617557e600000000000000000000000000000000000000000000000000000000815260040160405180910390fd5b846000015160601b6bffffffffffffffffffffffff19166bffffffffffffffffffffffff60001b831617866000016000857bffffffffffffffffffffffffffffffffffffffffffffffffffffffff19167bffffffffffffffffffffffffffffffffffffffffffffffffffffffff19168152602001908152602001600020819055505050508080600101915050610fc3565b505050565b600080600073ffffffffffffffffffffffffffffffffffffffff16856000015173ffffffffffffffffffffffffffffffffffffffff161461128a576040517feacd242400000000000000000000000000000000000000000000000000000000815260040160405180910390fd5b60005b85604001515181101561162f578480600190039550506000866040015182815181106112bc576112bb6119e7565b5b602002602001015190506000886000016000837bffffffffffffffffffffffffffffffffffffffffffffffffffffffff19167bffffffffffffffffffffffffffffffffffffffffffffffffffffffff19168152602001908152602001600020549050886000016000837bffffffffffffffffffffffffffffffffffffffffffffffffffffffff19167bffffffffffffffffffffffffffffffffffffffffffffffffffffffff1916815260200190815260200160002060009055600073ffffffffffffffffffffffffffffffffffffffff168160601c73ffffffffffffffffffffffffffffffffffffffff16036113de576040517f6fc4b52e00000000000000000000000000000000000000000000000000000000815260040160405180910390fd5b3073ffffffffffffffffffffffffffffffffffffffff168160601c73ffffffffffffffffffffffffffffffffffffffff1603611446576040517fe983573100000000000000000000000000000000000000000000000000000000815260040160405180910390fd5b60078088160361146d57886002016000600389901c81526020019081526020016000205495505b6000600560078916901b87901b9050827bffffffffffffffffffffffffffffffffffffffffffffffffffffffff1916817bffffffffffffffffffffffffffffffffffffffffffffffffffffffff19161461158f57896000016000827bffffffffffffffffffffffffffffffffffffffffffffffffffffffff19167bffffffffffffffffffffffffffffffffffffffffffffffffffffffff19168152602001908152602001600020546bffffffffffffffffffffffff19166bffffffffffffffffffffffff60001b8316178a6000016000837bffffffffffffffffffffffffffffffffffffffffffffffffffffffff19167bffffffffffffffffffffffffffffffffffffffffffffffffffffffff19168152602001908152602001600020819055505b600060038360001c61ffff16901c61ffff1690506000600560078560001c1661ffff16901b61ffff16905060038a901c82036115dd576115d689848361180560201b60201c565b985061161d565b6116038c600201600084815260200190815260200160002054848361180560201b60201c565b8c6002016000848152602001908152602001600020819055505b5050505050808060010191505061128d565b5083839150915094509492505050565b60008151141515600073ffffffffffffffffffffffffffffffffffffffff168373ffffffffffffffffffffffffffffffffffffffff16141515146116af576040517f26df4ccd00000000000000000000000000000000000000000000000000000000815260040160405180910390fd5b600073ffffffffffffffffffffffffffffffffffffffff168273ffffffffffffffffffffffffffffffffffffffff16146117ee573073ffffffffffffffffffffffffffffffffffffffff168273ffffffffffffffffffffffffffffffffffffffff16146117725761173b8273ffffffffffffffffffffffffffffffffffffffff166117f260201b60201c565b611771576040517ff77172ac00000000000000000000000000000000000000000000000000000000815260040160405180910390fd5b5b60008273ffffffffffffffffffffffffffffffffffffffff16826040516117999190611db8565b600060405180830381855af49150503d80600081146117d4576040519150601f19603f3d011682016040523d82523d6000602084013e6117d9565b606091505b50509050806117ec573d6000803e3d6000fd5b505b5050565b600080823b905060008111915050919050565b600081837bffffffffffffffffffffffffffffffffffffffffffffffffffffffff1916901c827fffffffff0000000000000000000000000000000000000000000000000000000060001b901c1985161790509392505050565b6040518060600160405280600073ffffffffffffffffffffffffffffffffffffffff1681526020016000600281111561189a57611899611a16565b5b8152602001606081525090565b600080fd5b600073ffffffffffffffffffffffffffffffffffffffff82169050919050565b60006118d7826118ac565b9050919050565b6118e7816118cc565b81146118f257600080fd5b50565b600081519050611904816118de565b92915050565b6000602082840312156119205761191f6118a7565b5b600061192e848285016118f5565b91505092915050565b7f4e487b7100000000000000000000000000000000000000000000000000000000600052604160045260246000fd5b7f4e487b7100000000000000000000000000000000000000000000000000000000600052601160045260246000fd5b6000819050919050565b60006119aa82611995565b91507fffffffffffffffffffffffffffffffffffffffffffffffffffffffffffffffff82036119dc576119db611966565b5b600182019050919050565b7f4e487b7100000000000000000000000000000000000000000000000000000000600052603260045260246000fd5b7f4e487b7100000000000000000000000000000000000000000000000000000000600052602160045260246000fd5b600081519050919050565b600082825260208201905092915050565b6000819050602082019050919050565b611a7a816118cc565b82525050565b60038110611a9157611a90611a16565b5b50565b6000819050611aa282611a80565b919050565b6000611ab282611a94565b9050919050565b611ac281611aa7565b82525050565b600081519050919050565b600082825260208201905092915050565b6000819050602082019050919050565b60007fffffffff0000000000000000000000000000000000000000000000000000000082169050919050565b611b2981611af4565b82525050565b6000611b3b8383611b20565b60208301905092915050565b6000602082019050919050565b6000611b5f82611ac8565b611b698185611ad3565b9350611b7483611ae4565b8060005b83811015611ba5578151611b8c8882611b2f565b9750611b9783611b47565b925050600181019050611b78565b5085935050505092915050565b6000606083016000830151611bca6000860182611a71565b506020830151611bdd6020860182611ab9565b5060408301518482036040860152611bf58282611b54565b9150508091505092915050565b6000611c0e8383611bb2565b905092915050565b6000602082019050919050565b6000611c2e82611a45565b611c388185611a50565b935083602082028501611c4a85611a61565b8060005b85811015611c865784840389528151611c678582611c02565b9450611c7283611c16565b925060208a01995050600181019050611c4e565b50829750879550505050505092915050565b611ca1816118cc565b82525050565b600081519050919050565b600082825260208201905092915050565b60005b83811015611ce1578082015181840152602081019050611cc6565b60008484015250505050565b6000601f19601f8301169050919050565b6000611d0982611ca7565b611d138185611cb2565b9350611d23818560208601611cc3565b611d2c81611ced565b840191505092915050565b60006060820190508181036000830152611d518186611c23565b9050611d606020830185611c98565b8181036040830152611d728184611cfe565b9050949350505050565b600081905092915050565b6000611d9282611ca7565b611d9c8185611d7c565b9350611dac818560208601611cc3565b80840191505092915050565b6000611dc48284611d87565b915081905092915050565b612f5280611dde6000396000f3fe6080604052600436106100ab5760003560e01c80638ab5150a116100645780638ab5150a146102375780638da5cb5b14610262578063914237651461028d578063adfca15e146102b6578063cdffacc6146102f3578063f2fde38b14610330576100b2565b806301ffc9a7146101395780631f931c1c146101765780632c4080591461019f57806352ef6b2c146101ca57806379ba5097146101f55780637a0ed6271461020c576100b2565b366100b257005b60006100bc610359565b90506100dd8173ffffffffffffffffffffffffffffffffffffffff16610368565b610113576040517f87c9fc3400000000000000000000000000000000000000000000000000000000815260040160405180910390fd5b3660008037600080366000845af43d6000803e8060008114610134573d6000f35b3d6000fd5b34801561014557600080fd5b50610160600480360381019061015b9190612318565b61037b565b60405161016d9190612360565b60405180910390f35b34801561018257600080fd5b5061019d60048036038101906101989190612494565b61038d565b005b3480156101ab57600080fd5b506101b461045b565b6040516101c19190612538565b60405180910390f35b3480156101d657600080fd5b506101df61046a565b6040516101ec9190612611565b60405180910390f35b34801561020157600080fd5b5061020a610479565b005b34801561021857600080fd5b506102216104ef565b60405161022e91906127f0565b60405180910390f35b34801561024357600080fd5b5061024c6104fe565b6040516102599190612538565b60405180910390f35b34801561026e57600080fd5b5061027761050d565b6040516102849190612538565b60405180910390f35b34801561029957600080fd5b506102b460048036038101906102af9190612812565b61051c565b005b3480156102c257600080fd5b506102dd60048036038101906102d89190612812565b610594565b6040516102ea91906128ae565b60405180910390f35b3480156102ff57600080fd5b5061031a60048036038101906103159190612318565b6105a6565b6040516103279190612538565b60405180910390f35b34801561033c57600080fd5b5061035760048036038101906103529190612812565b6105b8565b005b6000610363610630565b905090565b600080823b905060008111915050919050565b60006103868261067e565b9050919050565b6103956106ef565b73ffffffffffffffffffffffffffffffffffffffff163373ffffffffffffffffffffffffffffffffffffffff16146103f9576040517f2f7a8ee100000000000000000000000000000000000000000000000000000000815260040160405180910390fd5b6104548585906104099190612b81565b8484848080601f016020809104026020016040519081016040528093929190818152602001838380828437600081840152601f19601f82011690508083019250505050505050610722565b5050505050565b600061046561095b565b905090565b606061047461098e565b905090565b610481610be3565b73ffffffffffffffffffffffffffffffffffffffff163373ffffffffffffffffffffffffffffffffffffffff16146104e5576040517fefd1052d00000000000000000000000000000000000000000000000000000000815260040160405180910390fd5b6104ed610c16565b565b60606104f9610c4f565b905090565b6000610508610be3565b905090565b60006105176106ef565b905090565b6105246106ef565b73ffffffffffffffffffffffffffffffffffffffff163373ffffffffffffffffffffffffffffffffffffffff1614610588576040517f2f7a8ee100000000000000000000000000000000000000000000000000000000815260040160405180910390fd5b6105918161119e565b50565b606061059f826111eb565b9050919050565b60006105b182611402565b9050919050565b6105c06106ef565b73ffffffffffffffffffffffffffffffffffffffff163373ffffffffffffffffffffffffffffffffffffffff1614610624576040517f2f7a8ee100000000000000000000000000000000000000000000000000000000815260040160405180910390fd5b61062d81611469565b50565b600061063a611475565b9050600073ffffffffffffffffffffffffffffffffffffffff168173ffffffffffffffffffffffffffffffffffffffff160361067b5761067861095b565b90505b90565b6000610688611521565b6000016000837bffffffffffffffffffffffffffffffffffffffffffffffffffffffff19167bffffffffffffffffffffffffffffffffffffffffffffffffffffffff1916815260200190815260200160002060009054906101000a900460ff169050919050565b60006106f961154e565b60000160009054906101000a900473ffffffffffffffffffffffffffffffffffffffff16905090565b600061072c61157b565b905060008160010160009054906101000a900461ffff1661ffff1690506000819050600080600783161461077757836002016000600384901c81526020019081526020016000205490505b60005b87518110156108bb57600088828151811061079857610797612b96565b5b602002602001015190506000816020015190506000826040015151036107ea576040517feb6c3aeb00000000000000000000000000000000000000000000000000000000815260040160405180910390fd5b600060028111156107fe576107fd612bc5565b5b81600281111561081157610810612bc5565b5b0361082f57610822878387876115a8565b80955081965050506108ac565b6001600281111561084357610842612bc5565b5b81600281111561085657610855612bc5565b5b0361086a576108658783611847565b6108ab565b60028081111561087d5761087c612bc5565b5b8160028111156108905761088f612bc5565b5b036108aa576108a187838787611afd565b80955081965050505b5b5b5050808060010191505061077a565b508282146108e357818460010160006101000a81548161ffff021916908361ffff1602179055505b6000600783161461090d5780846002016000600385901c8152602001908152602001600020819055505b7f8faa70878671ccd212d20771b795c50af8fd3ff6cf27f4bde57e5d4de0aeb67387878760405161094093929190612dcd565b60405180910390a16109528686611f13565b50505050505050565b600061096561157b565b60030160009054906101000a900473ffffffffffffffffffffffffffffffffffffffff16905090565b6060600061099a61157b565b90508060010160009054906101000a900461ffff1661ffff1667ffffffffffffffff8111156109cc576109cb6128e1565b5b6040519080825280602002602001820160405280156109fa5781602001602082028036833780820191505090505b50915060008060005b8360010160009054906101000a900461ffff1661ffff16821015610bd957600084600201600083815260200190815260200160002054905060005b6008811015610bc4578380610a5290612e4b565b9450508560010160009054906101000a900461ffff1661ffff168411610bc4576000600582901b83901b90506000876000016000837bffffffffffffffffffffffffffffffffffffffffffffffffffffffff19167bffffffffffffffffffffffffffffffffffffffffffffffffffffffff191681526020019081526020016000205460601c90506000805b88811015610b48578a8181518110610af857610af7612b96565b5b602002602001015173ffffffffffffffffffffffffffffffffffffffff168373ffffffffffffffffffffffffffffffffffffffff1603610b3b5760019150610b48565b8080600101915050610add565b508015610b5757505050610bb7565b818a8981518110610b6b57610b6a612b96565b5b602002602001019073ffffffffffffffffffffffffffffffffffffffff16908173ffffffffffffffffffffffffffffffffffffffff16815250508780610bb090612e4b565b9850505050505b8080600101915050610a3e565b50508080610bd190612e4b565b915050610a03565b5081845250505090565b6000610bed6120c0565b60000160009054906101000a900473ffffffffffffffffffffffffffffffffffffffff16905090565b610c1f336120ed565b610c276120c0565b60000160006101000a81549073ffffffffffffffffffffffffffffffffffffffff0219169055565b60606000610c5b61157b565b90508060010160009054906101000a900461ffff1661ffff1667ffffffffffffffff811115610c8d57610c8c6128e1565b5b604051908082528060200260200182016040528015610cc657816020015b610cb361227c565b815260200190600190039081610cab5790505b50915060008160010160009054906101000a900461ffff1661ffff1667ffffffffffffffff811115610cfb57610cfa6128e1565b5b604051908082528060200260200182016040528015610d295781602001602082028036833780820191505090505b50905060008060005b8460010160009054906101000a900461ffff1661ffff1682101561113057600085600201600083815260200190815260200160002054905060005b600881101561111b578380610d8190612e4b565b9450508660010160009054906101000a900461ffff1661ffff16841161111b576000600582901b83901b90506000886000016000837bffffffffffffffffffffffffffffffffffffffffffffffffffffffff19167bffffffffffffffffffffffffffffffffffffffffffffffffffffffff191681526020019081526020016000205460601c90506000805b88811015610f72578273ffffffffffffffffffffffffffffffffffffffff168c8281518110610e3e57610e3d612b96565b5b60200260200101516000015173ffffffffffffffffffffffffffffffffffffffff1603610f6557838c8281518110610e7957610e78612b96565b5b6020026020010151602001518b8381518110610e9857610e97612b96565b5b602002602001015160ff1681518110610eb457610eb3612b96565b5b60200260200101907bffffffffffffffffffffffffffffffffffffffffffffffffffffffff191690817bffffffffffffffffffffffffffffffffffffffffffffffffffffffff19168152505060ff8a8281518110610f1557610f14612b96565b5b602002602001015160ff1610610f2a57600080fd5b898181518110610f3d57610f3c612b96565b5b602002602001018051809190610f5290612ea0565b60ff1660ff168152505060019150610f72565b8080600101915050610e0c565b508015610f815750505061110e565b818b8981518110610f9557610f94612b96565b5b60200260200101516000019073ffffffffffffffffffffffffffffffffffffffff16908173ffffffffffffffffffffffffffffffffffffffff16815250508960010160009054906101000a900461ffff1661ffff1667ffffffffffffffff811115611003576110026128e1565b5b6040519080825280602002602001820160405280156110315781602001602082028036833780820191505090505b508b898151811061104557611044612b96565b5b602002602001015160200181905250828b898151811061106857611067612b96565b5b60200260200101516020015160008151811061108757611086612b96565b5b60200260200101907bffffffffffffffffffffffffffffffffffffffffffffffffffffffff191690817bffffffffffffffffffffffffffffffffffffffffffffffffffffffff19168152505060018989815181106110e8576110e7612b96565b5b602002602001019060ff16908160ff1681525050878061110790612e4b565b9850505050505b8080600101915050610d6d565b5050808061112890612e4b565b915050610d32565b5060005b8281101561119357600084828151811061115157611150612b96565b5b602002602001015160ff169050600087838151811061117357611172612b96565b5b602002602001015160200151905081815250508080600101915050611134565b508185525050505090565b806111a761157b565b60030160006101000a81548173ffffffffffffffffffffffffffffffffffffffff021916908373ffffffffffffffffffffffffffffffffffffffff16021790555050565b606060006111f761157b565b90508060010160009054906101000a900461ffff1661ffff1667ffffffffffffffff811115611229576112286128e1565b5b6040519080825280602002602001820160405280156112575781602001602082028036833780820191505090505b50915060008060005b8360010160009054906101000a900461ffff1661ffff168210156113f657600084600201600083815260200190815260200160002054905060005b60088110156113e15783806112af90612e4b565b9450508560010160009054906101000a900461ffff1661ffff1684116113e1576000600582901b83901b9050866000016000827bffffffffffffffffffffffffffffffffffffffffffffffffffffffff19167bffffffffffffffffffffffffffffffffffffffffffffffffffffffff191681526020019081526020016000205460601c73ffffffffffffffffffffffffffffffffffffffff168973ffffffffffffffffffffffffffffffffffffffff16036113d3578088878151811061137857611377612b96565b5b60200260200101907bffffffffffffffffffffffffffffffffffffffffffffffffffffffff191690817bffffffffffffffffffffffffffffffffffffffffffffffffffffffff19168152505085806113cf90612e4b565b9650505b50808060010191505061129b565b505080806113ee90612e4b565b915050611260565b50818452505050919050565b600061140c61157b565b6000016000837bffffffffffffffffffffffffffffffffffffffffffffffffffffffff19167bffffffffffffffffffffffffffffffffffffffffffffffffffffffff191681526020019081526020016000205460601c9050919050565b611472816121be565b50565b60008060007f177481ac65e4292921c69f62d1cc7f57541261e5d61c8175cf4e36a01c9bfc93905080915081600001600080357fffffffff00000000000000000000000000000000000000000000000000000000167bffffffffffffffffffffffffffffffffffffffffffffffffffffffff19167bffffffffffffffffffffffffffffffffffffffffffffffffffffffff191681526020019081526020016000205460601c9250505090565b6000807ffc606c433378e3a7e0a6a531deac289b66caa1b4aa8554fd4ab2c6f1570f92d890508091505090565b6000807f8a22373512790c48b83a1fe2efdd2888d4a917bcdc24d0adf63e60f67168046090508091505090565b6000807f177481ac65e4292921c69f62d1cc7f57541261e5d61c8175cf4e36a01c9bfc9390508091505090565b6000806115ce856000015173ffffffffffffffffffffffffffffffffffffffff16610368565b15611641573073ffffffffffffffffffffffffffffffffffffffff16856000015173ffffffffffffffffffffffffffffffffffffffff160361163c576040517fe983573100000000000000000000000000000000000000000000000000000000815260040160405180910390fd5b6116ab565b3073ffffffffffffffffffffffffffffffffffffffff16856000015173ffffffffffffffffffffffffffffffffffffffff16146116aa576040517ff77172ac00000000000000000000000000000000000000000000000000000000815260040160405180910390fd5b5b60005b856040015151811015611837576000866040015182815181106116d4576116d3612b96565b5b602002602001015190506000801b886000016000837bffffffffffffffffffffffffffffffffffffffffffffffffffffffff19167bffffffffffffffffffffffffffffffffffffffffffffffffffffffff19168152602001908152602001600020541461176d576040517f92474ee200000000000000000000000000000000000000000000000000000000815260040160405180910390fd5b866000015160601b6bffffffffffffffffffffffff19168660001b17886000016000837bffffffffffffffffffffffffffffffffffffffffffffffffffffffff19167bffffffffffffffffffffffffffffffffffffffffffffffffffffffff19168152602001908152602001600020819055506000600560078816901b90506117f78683836121ca565b955060e08103611820578589600201600060038a901c8152602001908152602001600020819055505b8680600101975050505080806001019150506116ae565b5083839150915094509492505050565b61186a816000015173ffffffffffffffffffffffffffffffffffffffff16610368565b6118a0576040517ff77172ac00000000000000000000000000000000000000000000000000000000815260040160405180910390fd5b60005b816040015151811015611af8576000826040015182815181106118c9576118c8612b96565b5b602002602001015190506000846000016000837bffffffffffffffffffffffffffffffffffffffffffffffffffffffff19167bffffffffffffffffffffffffffffffffffffffffffffffffffffffff1916815260200190815260200160002054905060008160601c9050600073ffffffffffffffffffffffffffffffffffffffff168173ffffffffffffffffffffffffffffffffffffffff1603611999576040517f6fc4b52e00000000000000000000000000000000000000000000000000000000815260040160405180910390fd5b3073ffffffffffffffffffffffffffffffffffffffff168173ffffffffffffffffffffffffffffffffffffffff16036119fe576040517fe983573100000000000000000000000000000000000000000000000000000000815260040160405180910390fd5b846000015173ffffffffffffffffffffffffffffffffffffffff168173ffffffffffffffffffffffffffffffffffffffff1603611a67576040517f617557e600000000000000000000000000000000000000000000000000000000815260040160405180910390fd5b846000015160601b6bffffffffffffffffffffffff19166bffffffffffffffffffffffff60001b831617866000016000857bffffffffffffffffffffffffffffffffffffffffffffffffffffffff19167bffffffffffffffffffffffffffffffffffffffffffffffffffffffff191681526020019081526020016000208190555050505080806001019150506118a3565b505050565b600080600073ffffffffffffffffffffffffffffffffffffffff16856000015173ffffffffffffffffffffffffffffffffffffffff1614611b6a576040517feacd242400000000000000000000000000000000000000000000000000000000815260040160405180910390fd5b60005b856040015151811015611f0357848060019003955050600086604001518281518110611b9c57611b9b612b96565b5b602002602001015190506000886000016000837bffffffffffffffffffffffffffffffffffffffffffffffffffffffff19167bffffffffffffffffffffffffffffffffffffffffffffffffffffffff19168152602001908152602001600020549050886000016000837bffffffffffffffffffffffffffffffffffffffffffffffffffffffff19167bffffffffffffffffffffffffffffffffffffffffffffffffffffffff1916815260200190815260200160002060009055600073ffffffffffffffffffffffffffffffffffffffff168160601c73ffffffffffffffffffffffffffffffffffffffff1603611cbe576040517f6fc4b52e00000000000000000000000000000000000000000000000000000000815260040160405180910390fd5b3073ffffffffffffffffffffffffffffffffffffffff168160601c73ffffffffffffffffffffffffffffffffffffffff1603611d26576040517fe983573100000000000000000000000000000000000000000000000000000000815260040160405180910390fd5b600780881603611d4d57886002016000600389901c81526020019081526020016000205495505b6000600560078916901b87901b9050827bffffffffffffffffffffffffffffffffffffffffffffffffffffffff1916817bffffffffffffffffffffffffffffffffffffffffffffffffffffffff191614611e6f57896000016000827bffffffffffffffffffffffffffffffffffffffffffffffffffffffff19167bffffffffffffffffffffffffffffffffffffffffffffffffffffffff19168152602001908152602001600020546bffffffffffffffffffffffff19166bffffffffffffffffffffffff60001b8316178a6000016000837bffffffffffffffffffffffffffffffffffffffffffffffffffffffff19167bffffffffffffffffffffffffffffffffffffffffffffffffffffffff19168152602001908152602001600020819055505b600060038360001c61ffff16901c61ffff1690506000600560078560001c1661ffff16901b61ffff16905060038a901c8203611eb757611eb08984836121ca565b9850611ef1565b611ed78c60020160008481526020019081526020016000205484836121ca565b8c6002016000848152602001908152602001600020819055505b50505050508080600101915050611b6d565b5083839150915094509492505050565b60008151141515600073ffffffffffffffffffffffffffffffffffffffff168373ffffffffffffffffffffffffffffffffffffffff1614151514611f83576040517f26df4ccd00000000000000000000000000000000000000000000000000000000815260040160405180910390fd5b600073ffffffffffffffffffffffffffffffffffffffff168273ffffffffffffffffffffffffffffffffffffffff16146120bc573073ffffffffffffffffffffffffffffffffffffffff168273ffffffffffffffffffffffffffffffffffffffff1614612040576120098273ffffffffffffffffffffffffffffffffffffffff16610368565b61203f576040517ff77172ac00000000000000000000000000000000000000000000000000000000815260040160405180910390fd5b5b60008273ffffffffffffffffffffffffffffffffffffffff16826040516120679190612f05565b600060405180830381855af49150503d80600081146120a2576040519150601f19603f3d011682016040523d82523d6000602084013e6120a7565b606091505b50509050806120ba573d6000803e3d6000fd5b505b5050565b6000807f24aa1f7b31fd188a8d3ecfb06bc55c806040e59b03bd4396283442fce661789090508091505090565b60006120f761154e565b90508173ffffffffffffffffffffffffffffffffffffffff168160000160009054906101000a900473ffffffffffffffffffffffffffffffffffffffff1673ffffffffffffffffffffffffffffffffffffffff167f8be0079c531659141344cd1fd0a4f28419497f9722a3daafe3b4186f6b6457e060405160405180910390a3818160000160006101000a81548173ffffffffffffffffffffffffffffffffffffffff021916908373ffffffffffffffffffffffffffffffffffffffff1602179055505050565b6121c781612223565b50565b600081837bffffffffffffffffffffffffffffffffffffffffffffffffffffffff1916901c827fffffffff0000000000000000000000000000000000000000000000000000000060001b901c1985161790509392505050565b61222c8161222f565b50565b806122386120c0565b60000160006101000a81548173ffffffffffffffffffffffffffffffffffffffff021916908373ffffffffffffffffffffffffffffffffffffffff16021790555050565b6040518060400160405280600073ffffffffffffffffffffffffffffffffffffffff168152602001606081525090565b6000604051905090565b600080fd5b600080fd5b60007fffffffff0000000000000000000000000000000000000000000000000000000082169050919050565b6122f5816122c0565b811461230057600080fd5b50565b600081359050612312816122ec565b92915050565b60006020828403121561232e5761232d6122b6565b5b600061233c84828501612303565b91505092915050565b60008115159050919050565b61235a81612345565b82525050565b60006020820190506123756000830184612351565b92915050565b600080fd5b600080fd5b600080fd5b60008083601f8401126123a05761239f61237b565b5b8235905067ffffffffffffffff8111156123bd576123bc612380565b5b6020830191508360208202830111156123d9576123d8612385565b5b9250929050565b600073ffffffffffffffffffffffffffffffffffffffff82169050919050565b600061240b826123e0565b9050919050565b61241b81612400565b811461242657600080fd5b50565b60008135905061243881612412565b92915050565b60008083601f8401126124545761245361237b565b5b8235905067ffffffffffffffff81111561247157612470612380565b5b60208301915083600182028301111561248d5761248c612385565b5b9250929050565b6000806000806000606086880312156124b0576124af6122b6565b5b600086013567ffffffffffffffff8111156124ce576124cd6122bb565b5b6124da8882890161238a565b955095505060206124ed88828901612429565b935050604086013567ffffffffffffffff81111561250e5761250d6122bb565b5b61251a8882890161243e565b92509250509295509295909350565b61253281612400565b82525050565b600060208201905061254d6000830184612529565b92915050565b600081519050919050565b600082825260208201905092915050565b6000819050602082019050919050565b61258881612400565b82525050565b600061259a838361257f565b60208301905092915050565b6000602082019050919050565b60006125be82612553565b6125c8818561255e565b93506125d38361256f565b8060005b838110156126045781516125eb888261258e565b97506125f6836125a6565b9250506001810190506125d7565b5085935050505092915050565b6000602082019050818103600083015261262b81846125b3565b905092915050565b600081519050919050565b600082825260208201905092915050565b6000819050602082019050919050565b600081519050919050565b600082825260208201905092915050565b6000819050602082019050919050565b612694816122c0565b82525050565b60006126a6838361268b565b60208301905092915050565b6000602082019050919050565b60006126ca8261265f565b6126d4818561266a565b93506126df8361267b565b8060005b838110156127105781516126f7888261269a565b9750612702836126b2565b9250506001810190506126e3565b5085935050505092915050565b6000604083016000830151612735600086018261257f565b506020830151848203602086015261274d82826126bf565b9150508091505092915050565b6000612766838361271d565b905092915050565b6000602082019050919050565b600061278682612633565b612790818561263e565b9350836020820285016127a28561264f565b8060005b858110156127de57848403895281516127bf858261275a565b94506127ca8361276e565b925060208a019950506001810190506127a6565b50829750879550505050505092915050565b6000602082019050818103600083015261280a818461277b565b905092915050565b600060208284031215612828576128276122b6565b5b600061283684828501612429565b91505092915050565b600082825260208201905092915050565b600061285b8261265f565b612865818561283f565b93506128708361267b565b8060005b838110156128a1578151612888888261269a565b9750612893836126b2565b925050600181019050612874565b5085935050505092915050565b600060208201905081810360008301526128c88184612850565b905092915050565b6000601f19601f8301169050919050565b7f4e487b7100000000000000000000000000000000000000000000000000000000600052604160045260246000fd5b612919826128d0565b810181811067ffffffffffffffff82111715612938576129376128e1565b5b80604052505050565b600061294b6122ac565b90506129578282612910565b919050565b600067ffffffffffffffff821115612977576129766128e1565b5b602082029050602081019050919050565b600080fd5b600080fd5b6003811061299f57600080fd5b50565b6000813590506129b181612992565b92915050565b600067ffffffffffffffff8211156129d2576129d16128e1565b5b602082029050602081019050919050565b60006129f66129f1846129b7565b612941565b90508083825260208201905060208402830185811115612a1957612a18612385565b5b835b81811015612a425780612a2e8882612303565b845260208401935050602081019050612a1b565b5050509392505050565b600082601f830112612a6157612a6061237b565b5b8135612a718482602086016129e3565b91505092915050565b600060608284031215612a9057612a8f612988565b5b612a9a6060612941565b90506000612aaa84828501612429565b6000830152506020612abe848285016129a2565b602083015250604082013567ffffffffffffffff811115612ae257612ae161298d565b5b612aee84828501612a4c565b60408301525092915050565b6000612b0d612b088461295c565b612941565b90508083825260208201905060208402830185811115612b3057612b2f612385565b5b835b81811015612b7757803567ffffffffffffffff811115612b5557612b5461237b565b5b808601612b628982612a7a565b85526020850194505050602081019050612b32565b5050509392505050565b6000612b8e368484612afa565b905092915050565b7f4e487b7100000000000000000000000000000000000000000000000000000000600052603260045260246000fd5b7f4e487b7100000000000000000000000000000000000000000000000000000000600052602160045260246000fd5b600081519050919050565b600082825260208201905092915050565b6000819050602082019050919050565b60038110612c3157612c30612bc5565b5b50565b6000819050612c4282612c20565b919050565b6000612c5282612c34565b9050919050565b612c6281612c47565b82525050565b6000606083016000830151612c80600086018261257f565b506020830151612c936020860182612c59565b5060408301518482036040860152612cab82826126bf565b9150508091505092915050565b6000612cc48383612c68565b905092915050565b6000602082019050919050565b6000612ce482612bf4565b612cee8185612bff565b935083602082028501612d0085612c10565b8060005b85811015612d3c5784840389528151612d1d8582612cb8565b9450612d2883612ccc565b925060208a01995050600181019050612d04565b50829750879550505050505092915050565b600081519050919050565b600082825260208201905092915050565b60005b83811015612d88578082015181840152602081019050612d6d565b60008484015250505050565b6000612d9f82612d4e565b612da98185612d59565b9350612db9818560208601612d6a565b612dc2816128d0565b840191505092915050565b60006060820190508181036000830152612de78186612cd9565b9050612df66020830185612529565b8181036040830152612e088184612d94565b9050949350505050565b7f4e487b7100000000000000000000000000000000000000000000000000000000600052601160045260246000fd5b6000819050919050565b6000612e5682612e41565b91507fffffffffffffffffffffffffffffffffffffffffffffffffffffffffffffffff8203612e8857612e87612e12565b5b600182019050919050565b600060ff82169050919050565b6000612eab82612e93565b915060ff8203612ebe57612ebd612e12565b5b600182019050919050565b600081905092915050565b6000612edf82612d4e565b612ee98185612ec9565b9350612ef9818560208601612d6a565b80840191505092915050565b6000612f118284612ed4565b91508190509291505056fea2646970667358221220a5163d69e8b9b18ec049c552f281a03ce2ab35273aecd73a06465c6916243b5764736f6c634300081c0033",
  "linkReferences": {},
  "deployedLinkReferences": {}
}