{
  "_format": "hh-sol-artifact-1",
  "contractName": "BOCInit",
  "sourceName": "contracts/init/BOCInit.sol",
  "abi": [
    {
      "inputs": [
        {
          "internalType": "address",
          "name": "_owner",
          "type": "address"
        },
        {
          "internalType": "address",
          "name": "_token",
          "type": "address"
        },
        {
          "internalType": "uint256",
          "name": "_withdrawalFee",
          "type": "uint256"
        }
      ],
      "name": "init",
      "outputs": [],
      "stateMutability": "nonpayable",
      "type": "function"
    }
  ],
  "bytecode": "0x6080604052348015600f57600080fd5b5061023c8061001f6000396000f3fe608060405234801561001057600080fd5b506004361061002b5760003560e01c806386863ec614610030575b600080fd5b61004a600480360381019061004591906101b3565b61004c565b005b60006100566100ed565b90508181600f0181905550838160000160006101000a81548173ffffffffffffffffffffffffffffffffffffffff021916908373ffffffffffffffffffffffffffffffffffffffff160217905550828160010160006101000a81548173ffffffffffffffffffffffffffffffffffffffff021916908373ffffffffffffffffffffffffffffffffffffffff16021790555050505050565b6000807fd9e35282e2215880e2e89e7d63345ded769cf6489d8c377c2c5a8a3ce3eb68c390508091505090565b600080fd5b600073ffffffffffffffffffffffffffffffffffffffff82169050919050565b600061014a8261011f565b9050919050565b61015a8161013f565b811461016557600080fd5b50565b60008135905061017781610151565b92915050565b6000819050919050565b6101908161017d565b811461019b57600080fd5b50565b6000813590506101ad81610187565b92915050565b6000806000606084860312156101cc576101cb61011a565b5b60006101da86828701610168565b93505060206101eb86828701610168565b92505060406101fc8682870161019e565b915050925092509256fea26469706673582212209239edccc8e0959f4f725f243e735b89e9878eeaf202e9e71556079385782d1664736f6c634300081c0033",
  "linkReferences": {},
  "deployedLinkReferences": {}
}