{
  "_format": "hh-sol-artifact-1",
  "contractName": "BOCPlatformFacet",
  "sourceName": "contracts/facets/BOCPlatformFacet.sol",
  "abi": [
    {
      "anonymous": false,
      "inputs": [
        {
          "indexed": true,
          "internalType": "address",
          "name": "from",
          "type": "address"
        },
        {
          "indexed": true,
          "internalType": "address",
          "name": "to",
          "type": "address"
        },
        {
          "indexed": false,
          "internalType": "uint256",
          "name": "amount",
          "type": "uint256"
        },
        {
          "indexed": false,
          "internalType": "uint256",
          "name": "when",
          "type": "uint256"
        }
      ],
      "name": "EtherWithdraw",
      "type": "event"
    },
    {
      "anonymous": false,
      "inputs": [
        {
          "indexed": true,
          "internalType": "address",
          "name": "from",
          "type": "address"
        },
        {
          "indexed": true,
          "internalType": "address",
          "name": "to",
          "type": "address"
        },
        {
          "indexed": true,
          "internalType": "address",
          "name": "token",
          "type": "address"
        },
        {
          "indexed": false,
          "internalType": "uint256",
          "name": "amount",
          "type": "uint256"
        },
        {
          "indexed": false,
          "internalType": "uint256",
          "name": "when",
          "type": "uint256"
        }
      ],
      "name": "TokenWithdraw",
      "type": "event"
    },
    {
      "inputs": [
        {
          "internalType": "address",
          "name": "_userAddress",
          "type": "address"
        }
      ],
      "name": "getCompleteUser",
      "outputs": [
        {
          "components": [
            {
              "components": [
                {
                  "internalType": "address",
                  "name": "uid",
                  "type": "address"
                },
                {
                  "internalType": "string",
                  "name": "fullname",
                  "type": "string"
                },
                {
                  "internalType": "string",
                  "name": "nickname",
                  "type": "string"
                },
                {
                  "internalType": "string",
                  "name": "gender",
                  "type": "string"
                },
                {
                  "internalType": "string",
                  "name": "photo",
                  "type": "string"
                },
                {
                  "internalType": "enum BOCDiamondStorage.SubscriptionType",
                  "name": "currency",
                  "type": "uint8"
                },
                {
                  "internalType": "bool",
                  "name": "isActive",
                  "type": "bool"
                },
                {
                  "internalType": "bool",
                  "name": "hasSubscription",
                  "type": "bool"
                },
                {
                  "internalType": "uint256",
                  "name": "joinedDate",
                  "type": "uint256"
                }
              ],
              "internalType": "struct BOCDiamondStorage.User",
              "name": "user",
              "type": "tuple"
            },
            {
              "components": [
                {
                  "internalType": "uint256",
                  "name": "id",
                  "type": "uint256"
                },
                {
                  "internalType": "uint256",
                  "name": "createdAt",
                  "type": "uint256"
                },
                {
                  "internalType": "uint256",
                  "name": "when",
                  "type": "uint256"
                },
                {
                  "components": [
                    {
                      "internalType": "uint256",
                      "name": "createdAt",
                      "type": "uint256"
                    }
                  ],
                  "internalType": "struct BOCDiamondStorage.BirthdayTimeline[]",
                  "name": "timeline",
                  "type": "tuple[]"
                },
                {
                  "components": [
                    {
                      "internalType": "uint256",
                      "name": "createdAt",
                      "type": "uint256"
                    },
                    {
                      "internalType": "string",
                      "name": "description",
                      "type": "string"
                    },
                    {
                      "internalType": "uint256",
                      "name": "targetAmount",
                      "type": "uint256"
                    },
                    {
                      "internalType": "uint256",
                      "name": "amountRaised",
                      "type": "uint256"
                    }
                  ],
                  "internalType": "struct BOCDiamondStorage.Goal",
                  "name": "goal",
                  "type": "tuple"
                }
              ],
              "internalType": "struct BOCDiamondStorage.Birthday",
              "name": "birthdays",
              "type": "tuple"
            },
            {
              "components": [
                {
                  "internalType": "uint256",
                  "name": "id",
                  "type": "uint256"
                },
                {
                  "internalType": "uint256",
                  "name": "createdAt",
                  "type": "uint256"
                },
                {
                  "internalType": "address",
                  "name": "sender",
                  "type": "address"
                },
                {
                  "internalType": "address",
                  "name": "recipient",
                  "type": "address"
                },
                {
                  "internalType": "string",
                  "name": "message",
                  "type": "string"
                }
              ],
              "internalType": "struct BOCDiamondStorage.Message[]",
              "name": "messages",
              "type": "tuple[]"
            },
            {
              "components": [
                {
                  "internalType": "uint256",
                  "name": "id",
                  "type": "uint256"
                },
                {
                  "internalType": "uint256",
                  "name": "createdAt",
                  "type": "uint256"
                },
                {
                  "internalType": "address",
                  "name": "sender",
                  "type": "address"
                },
                {
                  "internalType": "address",
                  "name": "recipient",
                  "type": "address"
                },
                {
                  "internalType": "uint256",
                  "name": "amount",
                  "type": "uint256"
                }
              ],
              "internalType": "struct BOCDiamondStorage.Gift[]",
              "name": "gifts",
              "type": "tuple[]"
            },
            {
              "components": [
                {
                  "internalType": "uint256",
                  "name": "id",
                  "type": "uint256"
                },
                {
                  "internalType": "address",
                  "name": "sender",
                  "type": "address"
                },
                {
                  "internalType": "address",
                  "name": "receiver",
                  "type": "address"
                },
                {
                  "internalType": "uint256",
                  "name": "notificationTypeId",
                  "type": "uint256"
                },
                {
                  "internalType": "enum BOCDiamondStorage.NotificationType",
                  "name": "notificationType",
                  "type": "uint8"
                },
                {
                  "internalType": "uint256",
                  "name": "createdAt",
                  "type": "uint256"
                }
              ],
              "internalType": "struct BOCDiamondStorage.Notification[]",
              "name": "notifications",
              "type": "tuple[]"
            },
            {
              "components": [
                {
                  "internalType": "uint256",
                  "name": "createdAt",
                  "type": "uint256"
                },
                {
                  "internalType": "string",
                  "name": "description",
                  "type": "string"
                },
                {
                  "internalType": "uint256",
                  "name": "targetAmount",
                  "type": "uint256"
                },
                {
                  "internalType": "uint256",
                  "name": "amountRaised",
                  "type": "uint256"
                }
              ],
              "internalType": "struct BOCDiamondStorage.Goal",
              "name": "goal",
              "type": "tuple"
            },
            {
              "components": [
                {
                  "internalType": "uint256",
                  "name": "id",
                  "type": "uint256"
                },
                {
                  "internalType": "uint256",
                  "name": "createdAt",
                  "type": "uint256"
                },
                {
                  "internalType": "enum BOCDiamondStorage.SubscriptionType",
                  "name": "subscriptionType",
                  "type": "uint8"
                },
                {
                  "internalType": "uint256",
                  "name": "amount",
                  "type": "uint256"
                },
                {
                  "internalType": "bool",
                  "name": "hasExpired",
                  "type": "bool"
                },
                {
                  "internalType": "uint256",
                  "name": "billingPeriod",
                  "type": "uint256"
                }
              ],
              "internalType": "struct BOCDiamondStorage.Subscription",
              "name": "subscriptions",
              "type": "tuple"
            },
            {
              "internalType": "uint256",
              "name": "balance",
              "type": "uint256"
            }
          ],
          "internalType": "struct BOCPlatformFacet.UserComplete",
          "name": "",
          "type": "tuple"
        }
      ],
      "stateMutability": "view",
      "type": "function"
    },
    {
      "inputs": [
        {
          "internalType": "address",
          "name": "_newTokenContractAddress",
          "type": "address"
        }
      ],
      "name": "updateBOCTokenContractAddress",
      "outputs": [],
      "stateMutability": "nonpayable",
      "type": "function"
    }
  ],
  "bytecode": "0x6080604052348015600f57600080fd5b50611a1a8061001f6000396000f3fe608060405234801561001057600080fd5b50600436106100365760003560e01c8063bd85ff811461003b578063c15794d21461006b575b600080fd5b61005560048036038101906100509190610fd9565b610087565b60405161006291906118e5565b60405180910390f35b61008560048036038101906100809190610fd9565b610ce7565b005b61008f610dfa565b6040518061010001604052806100a3610dcd565b60070160008573ffffffffffffffffffffffffffffffffffffffff1673ffffffffffffffffffffffffffffffffffffffff168152602001908152602001600020604051806101200160405290816000820160009054906101000a900473ffffffffffffffffffffffffffffffffffffffff1673ffffffffffffffffffffffffffffffffffffffff1673ffffffffffffffffffffffffffffffffffffffff16815260200160018201805461015590611936565b80601f016020809104026020016040519081016040528092919081815260200182805461018190611936565b80156101ce5780601f106101a3576101008083540402835291602001916101ce565b820191906000526020600020905b8154815290600101906020018083116101b157829003601f168201915b505050505081526020016002820180546101e790611936565b80601f016020809104026020016040519081016040528092919081815260200182805461021390611936565b80156102605780601f1061023557610100808354040283529160200191610260565b820191906000526020600020905b81548152906001019060200180831161024357829003601f168201915b5050505050815260200160038201805461027990611936565b80601f01602080910402602001604051908101604052809291908181526020018280546102a590611936565b80156102f25780601f106102c7576101008083540402835291602001916102f2565b820191906000526020600020905b8154815290600101906020018083116102d557829003601f168201915b5050505050815260200160048201805461030b90611936565b80601f016020809104026020016040519081016040528092919081815260200182805461033790611936565b80156103845780601f1061035957610100808354040283529160200191610384565b820191906000526020600020905b81548152906001019060200180831161036757829003601f168201915b505050505081526020016005820160009054906101000a900460ff1660018111156103b2576103b16110a5565b5b60018111156103c4576103c36110a5565b5b81526020016005820160019054906101000a900460ff161515151581526020016005820160029054906101000a900460ff161515151581526020016006820154815250508152602001610415610dcd565b60050160008573ffffffffffffffffffffffffffffffffffffffff1673ffffffffffffffffffffffffffffffffffffffff1681526020019081526020016000206040518060a001604052908160008201548152602001600182015481526020016002820154815260200160038201805480602002602001604051908101604052809291908181526020016000905b828210156104db57838290600052602060002001604051806020016040529081600082015481525050815260200190600101906104a3565b505050508152602001600482016040518060800160405290816000820154815260200160018201805461050d90611936565b80601f016020809104026020016040519081016040528092919081815260200182805461053990611936565b80156105865780601f1061055b57610100808354040283529160200191610586565b820191906000526020600020905b81548152906001019060200180831161056957829003601f168201915b50505050508152602001600282015481526020016003820154815250508152505081526020016105b4610dcd565b60030160008573ffffffffffffffffffffffffffffffffffffffff1673ffffffffffffffffffffffffffffffffffffffff168152602001908152602001600020805480602002602001604051908101604052809291908181526020016000905b8282101561079857838290600052602060002090600502016040518060a001604052908160008201548152602001600182015481526020016002820160009054906101000a900473ffffffffffffffffffffffffffffffffffffffff1673ffffffffffffffffffffffffffffffffffffffff1673ffffffffffffffffffffffffffffffffffffffff1681526020016003820160009054906101000a900473ffffffffffffffffffffffffffffffffffffffff1673ffffffffffffffffffffffffffffffffffffffff1673ffffffffffffffffffffffffffffffffffffffff16815260200160048201805461070790611936565b80601f016020809104026020016040519081016040528092919081815260200182805461073390611936565b80156107805780601f1061075557610100808354040283529160200191610780565b820191906000526020600020905b81548152906001019060200180831161076357829003601f168201915b50505050508152505081526020019060010190610614565b5050505081526020016107a9610dcd565b60040160008573ffffffffffffffffffffffffffffffffffffffff1673ffffffffffffffffffffffffffffffffffffffff168152602001908152602001600020805480602002602001604051908101604052809291908181526020016000905b8282101561090557838290600052602060002090600502016040518060a001604052908160008201548152602001600182015481526020016002820160009054906101000a900473ffffffffffffffffffffffffffffffffffffffff1673ffffffffffffffffffffffffffffffffffffffff1673ffffffffffffffffffffffffffffffffffffffff1681526020016003820160009054906101000a900473ffffffffffffffffffffffffffffffffffffffff1673ffffffffffffffffffffffffffffffffffffffff1673ffffffffffffffffffffffffffffffffffffffff16815260200160048201548152505081526020019060010190610809565b505050508152602001610916610dcd565b60020160008573ffffffffffffffffffffffffffffffffffffffff1673ffffffffffffffffffffffffffffffffffffffff168152602001908152602001600020805480602002602001604051908101604052809291908181526020016000905b82821015610aad57838290600052602060002090600602016040518060c0016040529081600082015481526020016001820160009054906101000a900473ffffffffffffffffffffffffffffffffffffffff1673ffffffffffffffffffffffffffffffffffffffff1673ffffffffffffffffffffffffffffffffffffffff1681526020016002820160009054906101000a900473ffffffffffffffffffffffffffffffffffffffff1673ffffffffffffffffffffffffffffffffffffffff1673ffffffffffffffffffffffffffffffffffffffff168152602001600382015481526020016004820160009054906101000a900460ff166001811115610a7e57610a7d6110a5565b5b6001811115610a9057610a8f6110a5565b5b815260200160058201548152505081526020019060010190610976565b505050508152602001610abe610dcd565b60060160008573ffffffffffffffffffffffffffffffffffffffff1673ffffffffffffffffffffffffffffffffffffffff16815260200190815260200160002060405180608001604052908160008201548152602001600182018054610b2390611936565b80601f0160208091040260200160405190810160405280929190818152602001828054610b4f90611936565b8015610b9c5780601f10610b7157610100808354040283529160200191610b9c565b820191906000526020600020905b815481529060010190602001808311610b7f57829003601f168201915b50505050508152602001600282015481526020016003820154815250508152602001610bc6610dcd565b60080160008573ffffffffffffffffffffffffffffffffffffffff1673ffffffffffffffffffffffffffffffffffffffff1681526020019081526020016000206040518060c001604052908160008201548152602001600182015481526020016002820160009054906101000a900460ff166001811115610c4a57610c496110a5565b5b6001811115610c5c57610c5b6110a5565b5b8152602001600382015481526020016004820160009054906101000a900460ff161515151581526020016005820154815250508152602001610c9c610dcd565b600b0160008573ffffffffffffffffffffffffffffffffffffffff1673ffffffffffffffffffffffffffffffffffffffff168152602001908152602001600020548152509050919050565b610cef610dcd565b60000160009054906101000a900473ffffffffffffffffffffffffffffffffffffffff1673ffffffffffffffffffffffffffffffffffffffff163373ffffffffffffffffffffffffffffffffffffffff1614610d80576040517f08c379a0000000000000000000000000000000000000000000000000000000008152600401610d77906119c4565b60405180910390fd5b80610d89610dcd565b60010160006101000a81548173ffffffffffffffffffffffffffffffffffffffff021916908373ffffffffffffffffffffffffffffffffffffffff16021790555050565b6000807fd9e35282e2215880e2e89e7d63345ded769cf6489d8c377c2c5a8a3ce3eb68c390508091505090565b604051806101000160405280610e0e610e57565b8152602001610e1b610ecf565b8152602001606081526020016060815260200160608152602001610e3d610f04565b8152602001610e4a610f2c565b8152602001600081525090565b604051806101200160405280600073ffffffffffffffffffffffffffffffffffffffff1681526020016060815260200160608152602001606081526020016060815260200160006001811115610eb057610eaf6110a5565b5b8152602001600015158152602001600015158152602001600081525090565b6040518060a0016040528060008152602001600081526020016000815260200160608152602001610efe610f04565b81525090565b6040518060800160405280600081526020016060815260200160008152602001600081525090565b6040518060c00160405280600081526020016000815260200160006001811115610f5957610f586110a5565b5b815260200160008152602001600015158152602001600081525090565b600080fd5b600073ffffffffffffffffffffffffffffffffffffffff82169050919050565b6000610fa682610f7b565b9050919050565b610fb681610f9b565b8114610fc157600080fd5b50565b600081359050610fd381610fad565b92915050565b600060208284031215610fef57610fee610f76565b5b6000610ffd84828501610fc4565b91505092915050565b61100f81610f9b565b82525050565b600081519050919050565b600082825260208201905092915050565b60005b8381101561104f578082015181840152602081019050611034565b60008484015250505050565b6000601f19601f8301169050919050565b600061107782611015565b6110818185611020565b9350611091818560208601611031565b61109a8161105b565b840191505092915050565b7f4e487b7100000000000000000000000000000000000000000000000000000000600052602160045260246000fd5b600281106110e5576110e46110a5565b5b50565b60008190506110f6826110d4565b919050565b6000611106826110e8565b9050919050565b611116816110fb565b82525050565b60008115159050919050565b6111318161111c565b82525050565b6000819050919050565b61114a81611137565b82525050565b6000610120830160008301516111696000860182611006565b5060208301518482036020860152611181828261106c565b9150506040830151848203604086015261119b828261106c565b915050606083015184820360608601526111b5828261106c565b915050608083015184820360808601526111cf828261106c565b91505060a08301516111e460a086018261110d565b5060c08301516111f760c0860182611128565b5060e083015161120a60e0860182611128565b5061010083015161121f610100860182611141565b508091505092915050565b600081519050919050565b600082825260208201905092915050565b6000819050602082019050919050565b60208201600082015161126c6000850182611141565b50505050565b600061127e8383611256565b60208301905092915050565b6000602082019050919050565b60006112a28261122a565b6112ac8185611235565b93506112b783611246565b8060005b838110156112e85781516112cf8882611272565b97506112da8361128a565b9250506001810190506112bb565b5085935050505092915050565b600060808301600083015161130d6000860182611141565b5060208301518482036020860152611325828261106c565b915050604083015161133a6040860182611141565b50606083015161134d6060860182611141565b508091505092915050565b600060a0830160008301516113706000860182611141565b5060208301516113836020860182611141565b5060408301516113966040860182611141565b50606083015184820360608601526113ae8282611297565b915050608083015184820360808601526113c882826112f5565b9150508091505092915050565b600081519050919050565b600082825260208201905092915050565b6000819050602082019050919050565b600060a0830160008301516114196000860182611141565b50602083015161142c6020860182611141565b50604083015161143f6040860182611006565b5060608301516114526060860182611006565b506080830151848203608086015261146a828261106c565b9150508091505092915050565b60006114838383611401565b905092915050565b6000602082019050919050565b60006114a3826113d5565b6114ad81856113e0565b9350836020820285016114bf856113f1565b8060005b858110156114fb57848403895281516114dc8582611477565b94506114e78361148b565b925060208a019950506001810190506114c3565b50829750879550505050505092915050565b600081519050919050565b600082825260208201905092915050565b6000819050602082019050919050565b60a08201600082015161154f6000850182611141565b5060208201516115626020850182611141565b5060408201516115756040850182611006565b5060608201516115886060850182611006565b50608082015161159b6080850182611141565b50505050565b60006115ad8383611539565b60a08301905092915050565b6000602082019050919050565b60006115d18261150d565b6115db8185611518565b93506115e683611529565b8060005b838110156116175781516115fe88826115a1565b9750611609836115b9565b9250506001810190506115ea565b5085935050505092915050565b600081519050919050565b600082825260208201905092915050565b6000819050602082019050919050565b60028110611661576116606110a5565b5b50565b600081905061167282611650565b919050565b600061168282611664565b9050919050565b61169281611677565b82525050565b60c0820160008201516116ae6000850182611141565b5060208201516116c16020850182611006565b5060408201516116d46040850182611006565b5060608201516116e76060850182611141565b5060808201516116fa6080850182611689565b5060a082015161170d60a0850182611141565b50505050565b600061171f8383611698565b60c08301905092915050565b6000602082019050919050565b600061174382611624565b61174d818561162f565b935061175883611640565b8060005b838110156117895781516117708882611713565b975061177b8361172b565b92505060018101905061175c565b5085935050505092915050565b60c0820160008201516117ac6000850182611141565b5060208201516117bf6020850182611141565b5060408201516117d2604085018261110d565b5060608201516117e56060850182611141565b5060808201516117f86080850182611128565b5060a082015161180b60a0850182611141565b50505050565b60006101a083016000830151848203600086015261182f8282611150565b915050602083015184820360208601526118498282611358565b915050604083015184820360408601526118638282611498565b9150506060830151848203606086015261187d82826115c6565b915050608083015184820360808601526118978282611738565b91505060a083015184820360a08601526118b182826112f5565b91505060c08301516118c660c0860182611796565b5060e08301516118da610180860182611141565b508091505092915050565b600060208201905081810360008301526118ff8184611811565b905092915050565b7f4e487b7100000000000000000000000000000000000000000000000000000000600052602260045260246000fd5b6000600282049050600182168061194e57607f821691505b60208210810361196157611960611907565b5b50919050565b600082825260208201905092915050565b7f424f433a204f776e6572206f6e6c79204f7065726174696f6e21000000000000600082015250565b60006119ae601a83611967565b91506119b982611978565b602082019050919050565b600060208201905081810360008301526119dd816119a1565b905091905056fea264697066735822122065fc7c55fd680a883d978448dd08e5bfe2579dd280d16df18d8fa59a00b5b46c64736f6c634300081c0033",
  "linkReferences": {},
  "deployedLinkReferences": {}
}