{
  "_format": "hh-sol-artifact-1",
  "contractName": "BOCSubscribeFacet",
  "sourceName": "contracts/facets/BOCSubscribeFacet.sol",
  "abi": [
    {
      "anonymous": false,
      "inputs": [
        {
          "indexed": true,
          "internalType": "address",
          "name": "from",
          "type": "address"
        },
        {
          "indexed": true,
          "internalType": "address",
          "name": "to",
          "type": "address"
        },
        {
          "indexed": false,
          "internalType": "uint256",
          "name": "amount",
          "type": "uint256"
        },
        {
          "indexed": false,
          "internalType": "uint256",
          "name": "when",
          "type": "uint256"
        }
      ],
      "name": "EtherWithdraw",
      "type": "event"
    },
    {
      "anonymous": false,
      "inputs": [
        {
          "indexed": true,
          "internalType": "address",
          "name": "from",
          "type": "address"
        },
        {
          "indexed": true,
          "internalType": "address",
          "name": "to",
          "type": "address"
        },
        {
          "indexed": true,
          "internalType": "address",
          "name": "token",
          "type": "address"
        },
        {
          "indexed": false,
          "internalType": "uint256",
          "name": "amount",
          "type": "uint256"
        },
        {
          "indexed": false,
          "internalType": "uint256",
          "name": "when",
          "type": "uint256"
        }
      ],
      "name": "TokenWithdraw",
      "type": "event"
    },
    {
      "anonymous": false,
      "inputs": [
        {
          "indexed": true,
          "internalType": "address",
          "name": "user",
          "type": "address"
        },
        {
          "indexed": false,
          "internalType": "uint256",
          "name": "when",
          "type": "uint256"
        }
      ],
      "name": "UserSubscribed",
      "type": "event"
    },
    {
      "inputs": [],
      "name": "getSubscribedUsers",
      "outputs": [
        {
          "components": [
            {
              "internalType": "address",
              "name": "uid",
              "type": "address"
            },
            {
              "internalType": "string",
              "name": "fullname",
              "type": "string"
            },
            {
              "internalType": "string",
              "name": "nickname",
              "type": "string"
            },
            {
              "internalType": "string",
              "name": "gender",
              "type": "string"
            },
            {
              "internalType": "string",
              "name": "photo",
              "type": "string"
            },
            {
              "internalType": "enum BOCDiamondStorage.SubscriptionType",
              "name": "currency",
              "type": "uint8"
            },
            {
              "internalType": "bool",
              "name": "isActive",
              "type": "bool"
            },
            {
              "internalType": "bool",
              "name": "hasSubscription",
              "type": "bool"
            },
            {
              "internalType": "uint256",
              "name": "joinedDate",
              "type": "uint256"
            }
          ],
          "internalType": "struct BOCDiamondStorage.User[]",
          "name": "",
          "type": "tuple[]"
        }
      ],
      "stateMutability": "view",
      "type": "function"
    },
    {
      "inputs": [],
      "name": "subscribeWithEther",
      "outputs": [],
      "stateMutability": "payable",
      "type": "function"
    },
    {
      "inputs": [
        {
          "internalType": "uint256",
          "name": "_amount",
          "type": "uint256"
        }
      ],
      "name": "subscribeWithToken",
      "outputs": [],
      "stateMutability": "nonpayable",
      "type": "function"
    }
  ],
  "bytecode": "0x6080604052348015600f57600080fd5b50611c9e8061001f6000396000f3fe6080604052600436106100335760003560e01c8062949113146100385780632794511e146100425780635901c9e21461006b575b600080fd5b610040610096565b005b34801561004e57600080fd5b5061006960048036038101906100649190611518565b610589565b005b34801561007757600080fd5b50610080610b92565b60405161008d9190611853565b60405180910390f35b336100a0816110a4565b6100df576040517f08c379a00000000000000000000000000000000000000000000000000000000081526004016100d6906118d2565b60405180910390fd5b60013411610122576040517f08c379a00000000000000000000000000000000000000000000000000000000081526004016101199061193e565b60405180910390fd5b61012a611106565b60090160003373ffffffffffffffffffffffffffffffffffffffff1673ffffffffffffffffffffffffffffffffffffffff16815260200190815260200160002060009054906101000a900460ff16156101b8576040517f08c379a00000000000000000000000000000000000000000000000000000000081526004016101af906119aa565b60405180910390fd5b6040518060c0016040528060016101cd611106565b60080160003373ffffffffffffffffffffffffffffffffffffffff1673ffffffffffffffffffffffffffffffffffffffff1681526020019081526020016000206000015461021b91906119f9565b815260200142815260200160018081111561023957610238611642565b5b81526020013481526020016000151581526020016228de804261025c91906119f9565b815250610267611106565b60080160003373ffffffffffffffffffffffffffffffffffffffff1673ffffffffffffffffffffffffffffffffffffffff168152602001908152602001600020600082015181600001556020820151816001015560408201518160020160006101000a81548160ff021916908360018111156102e6576102e5611642565b5b02179055506060820151816003015560808201518160040160006101000a81548160ff02191690831515021790555060a08201518160050155905050600161032c611106565b60090160003373ffffffffffffffffffffffffffffffffffffffff1673ffffffffffffffffffffffffffffffffffffffff16815260200190815260200160002060006101000a81548160ff021916908315150217905550600061038d611106565b60070160003373ffffffffffffffffffffffffffffffffffffffff1673ffffffffffffffffffffffffffffffffffffffff168152602001908152602001600020905060018160050160026101000a81548160ff021916908315150217905550346103f5611106565b600c0160003373ffffffffffffffffffffffffffffffffffffffff1673ffffffffffffffffffffffffffffffffffffffff16815260200190815260200160002081905550610441611106565b600e01339080600181540180825580915050600190039060005260206000200160009091909190916101000a81548173ffffffffffffffffffffffffffffffffffffffff021916908373ffffffffffffffffffffffffffffffffffffffff160217905550346104ae611106565b600b0160006104bb611106565b60000160009054906101000a900473ffffffffffffffffffffffffffffffffffffffff1673ffffffffffffffffffffffffffffffffffffffff1673ffffffffffffffffffffffffffffffffffffffff168152602001908152602001600020600082825461052891906119f9565b92505081905550610537611133565b3373ffffffffffffffffffffffffffffffffffffffff167f12a9d58ffb04d701ab6af4284b5499dc95596e7bf6294a0970828baa2700545d4260405161057d9190611a3c565b60405180910390a25050565b33610593816110a4565b6105d2576040517f08c379a00000000000000000000000000000000000000000000000000000000081526004016105c9906118d2565b60405180910390fd5b60008211610615576040517f08c379a000000000000000000000000000000000000000000000000000000000815260040161060c90611aa3565b60405180910390fd5b61061d611106565b60090160003373ffffffffffffffffffffffffffffffffffffffff1673ffffffffffffffffffffffffffffffffffffffff16815260200190815260200160002060009054906101000a900460ff16156106ab576040517f08c379a00000000000000000000000000000000000000000000000000000000081526004016106a2906119aa565b60405180910390fd5b6106b3611106565b60010160009054906101000a900473ffffffffffffffffffffffffffffffffffffffff1673ffffffffffffffffffffffffffffffffffffffff166323b872dd3330856040518463ffffffff1660e01b815260040161071393929190611ad2565b6020604051808303816000875af1158015610732573d6000803e3d6000fd5b505050506040513d601f19601f820116820180604052508101906107569190611b35565b506040518060c00160405280600161076c611106565b60080160003373ffffffffffffffffffffffffffffffffffffffff1673ffffffffffffffffffffffffffffffffffffffff168152602001908152602001600020600001546107ba91906119f9565b8152602001428152602001600060018111156107d9576107d8611642565b5b81526020018381526020016000151581526020016228de80426107fc91906119f9565b815250610807611106565b60080160003373ffffffffffffffffffffffffffffffffffffffff1673ffffffffffffffffffffffffffffffffffffffff168152602001908152602001600020600082015181600001556020820151816001015560408201518160020160006101000a81548160ff0219169083600181111561088657610885611642565b5b02179055506060820151816003015560808201518160040160006101000a81548160ff02191690831515021790555060a0820151816005015590505060016108cc611106565b60090160003373ffffffffffffffffffffffffffffffffffffffff1673ffffffffffffffffffffffffffffffffffffffff16815260200190815260200160002060006101000a81548160ff021916908315150217905550600061092d611106565b60070160003373ffffffffffffffffffffffffffffffffffffffff1673ffffffffffffffffffffffffffffffffffffffff168152602001908152602001600020905060018160050160026101000a81548160ff02191690831515021790555082610995611106565b600c0160003373ffffffffffffffffffffffffffffffffffffffff1673ffffffffffffffffffffffffffffffffffffffff168152602001908152602001600020819055506109e1611106565b600e01339080600181540180825580915050600190039060005260206000200160009091909190916101000a81548173ffffffffffffffffffffffffffffffffffffffff021916908373ffffffffffffffffffffffffffffffffffffffff16021790555082610a4e611106565b600a016000610a5b611106565b60010160009054906101000a900473ffffffffffffffffffffffffffffffffffffffff1673ffffffffffffffffffffffffffffffffffffffff1673ffffffffffffffffffffffffffffffffffffffff1681526020019081526020016000206000610ac3611106565b60000160009054906101000a900473ffffffffffffffffffffffffffffffffffffffff1673ffffffffffffffffffffffffffffffffffffffff1673ffffffffffffffffffffffffffffffffffffffff1681526020019081526020016000206000828254610b3091906119f9565b92505081905550610b3f611133565b3373ffffffffffffffffffffffffffffffffffffffff167f12a9d58ffb04d701ab6af4284b5499dc95596e7bf6294a0970828baa2700545d42604051610b859190611a3c565b60405180910390a2505050565b60606000805b610ba0611106565b600e0180549050811015610c25576000610bb8611106565b600e018281548110610bcd57610bcc611b62565b5b9060005260206000200160009054906101000a900473ffffffffffffffffffffffffffffffffffffffff169050610c0381611381565b15610c17578280610c1390611b91565b9350505b508080600101915050610b98565b5060008167ffffffffffffffff811115610c4257610c41611bd9565b5b604051908082528060200260200182016040528015610c7b57816020015b610c68611465565b815260200190600190039081610c605790505b5090506000805b610c8a611106565b600e018054905081101561109a576000610ca2611106565b600e018281548110610cb757610cb6611b62565b5b9060005260206000200160009054906101000a900473ffffffffffffffffffffffffffffffffffffffff169050610ced81611381565b1561108c57610cfa611106565b60070160008273ffffffffffffffffffffffffffffffffffffffff1673ffffffffffffffffffffffffffffffffffffffff168152602001908152602001600020604051806101200160405290816000820160009054906101000a900473ffffffffffffffffffffffffffffffffffffffff1673ffffffffffffffffffffffffffffffffffffffff1673ffffffffffffffffffffffffffffffffffffffff168152602001600182018054610dac90611c37565b80601f0160208091040260200160405190810160405280929190818152602001828054610dd890611c37565b8015610e255780601f10610dfa57610100808354040283529160200191610e25565b820191906000526020600020905b815481529060010190602001808311610e0857829003601f168201915b50505050508152602001600282018054610e3e90611c37565b80601f0160208091040260200160405190810160405280929190818152602001828054610e6a90611c37565b8015610eb75780601f10610e8c57610100808354040283529160200191610eb7565b820191906000526020600020905b815481529060010190602001808311610e9a57829003601f168201915b50505050508152602001600382018054610ed090611c37565b80601f0160208091040260200160405190810160405280929190818152602001828054610efc90611c37565b8015610f495780601f10610f1e57610100808354040283529160200191610f49565b820191906000526020600020905b815481529060010190602001808311610f2c57829003601f168201915b50505050508152602001600482018054610f6290611c37565b80601f0160208091040260200160405190810160405280929190818152602001828054610f8e90611c37565b8015610fdb5780601f10610fb057610100808354040283529160200191610fdb565b820191906000526020600020905b815481529060010190602001808311610fbe57829003601f168201915b505050505081526020016005820160009054906101000a900460ff16600181111561100957611008611642565b5b600181111561101b5761101a611642565b5b81526020016005820160019054906101000a900460ff161515151581526020016005820160029054906101000a900460ff1615151515815260200160068201548152505084848151811061107257611071611b62565b5b6020026020010181905250828061108890611b91565b9350505b508080600101915050610c82565b5081935050505090565b60006110ae611106565b60070160008373ffffffffffffffffffffffffffffffffffffffff1673ffffffffffffffffffffffffffffffffffffffff16815260200190815260200160002060050160019054906101000a900460ff169050919050565b6000807fd9e35282e2215880e2e89e7d63345ded769cf6489d8c377c2c5a8a3ce3eb68c390508091505090565b60005b61113e611106565b600e018054905081101561137e5761119c611157611106565b600e01828154811061116c5761116b611b62565b5b9060005260206000200160009054906101000a900473ffffffffffffffffffffffffffffffffffffffff16611381565b6113715760006111aa611106565b600e0182815481106111bf576111be611b62565b5b9060005260206000200160009054906101000a900473ffffffffffffffffffffffffffffffffffffffff16905060006111f6611106565b60070160008373ffffffffffffffffffffffffffffffffffffffff1673ffffffffffffffffffffffffffffffffffffffff168152602001908152602001600020905060008160050160026101000a81548160ff021916908315150217905550600061125f611106565b60080160008473ffffffffffffffffffffffffffffffffffffffff1673ffffffffffffffffffffffffffffffffffffffff168152602001908152602001600020905060018160040160006101000a81548160ff02191690831515021790555060006112c8611106565b60090160008573ffffffffffffffffffffffffffffffffffffffff1673ffffffffffffffffffffffffffffffffffffffff16815260200190815260200160002060006101000a81548160ff0219169083151502179055506000611329611106565b600c0160008573ffffffffffffffffffffffffffffffffffffffff1673ffffffffffffffffffffffffffffffffffffffff168152602001908152602001600020819055505050505b8080600101915050611136565b50565b60008161138d816110a4565b6113cc576040517f08c379a00000000000000000000000000000000000000000000000000000000081526004016113c3906118d2565b60405180910390fd5b60006113d6611106565b60080160008573ffffffffffffffffffffffffffffffffffffffff1673ffffffffffffffffffffffffffffffffffffffff16815260200190815260200160002090506000816001015411801561143b57508060040160009054906101000a900460ff16155b801561144a5750428160050154105b1561145957600092505061145f565b60019250505b50919050565b604051806101200160405280600073ffffffffffffffffffffffffffffffffffffffff16815260200160608152602001606081526020016060815260200160608152602001600060018111156114be576114bd611642565b5b8152602001600015158152602001600015158152602001600081525090565b600080fd5b6000819050919050565b6114f5816114e2565b811461150057600080fd5b50565b600081359050611512816114ec565b92915050565b60006020828403121561152e5761152d6114dd565b5b600061153c84828501611503565b91505092915050565b600081519050919050565b600082825260208201905092915050565b6000819050602082019050919050565b600073ffffffffffffffffffffffffffffffffffffffff82169050919050565b600061159c82611571565b9050919050565b6115ac81611591565b82525050565b600081519050919050565b600082825260208201905092915050565b60005b838110156115ec5780820151818401526020810190506115d1565b60008484015250505050565b6000601f19601f8301169050919050565b6000611614826115b2565b61161e81856115bd565b935061162e8185602086016115ce565b611637816115f8565b840191505092915050565b7f4e487b7100000000000000000000000000000000000000000000000000000000600052602160045260246000fd5b6002811061168257611681611642565b5b50565b600081905061169382611671565b919050565b60006116a382611685565b9050919050565b6116b381611698565b82525050565b60008115159050919050565b6116ce816116b9565b82525050565b6116dd816114e2565b82525050565b6000610120830160008301516116fc60008601826115a3565b50602083015184820360208601526117148282611609565b9150506040830151848203604086015261172e8282611609565b915050606083015184820360608601526117488282611609565b915050608083015184820360808601526117628282611609565b91505060a083015161177760a08601826116aa565b5060c083015161178a60c08601826116c5565b5060e083015161179d60e08601826116c5565b506101008301516117b26101008601826116d4565b508091505092915050565b60006117c983836116e3565b905092915050565b6000602082019050919050565b60006117e982611545565b6117f38185611550565b93508360208202850161180585611561565b8060005b85811015611841578484038952815161182285826117bd565b945061182d836117d1565b925060208a01995050600181019050611809565b50829750879550505050505092915050565b6000602082019050818103600083015261186d81846117de565b905092915050565b600082825260208201905092915050565b7f424f433a2055736572206e6f7420666f756e6421000000000000000000000000600082015250565b60006118bc601483611875565b91506118c782611886565b602082019050919050565b600060208201905081810360008301526118eb816118af565b9050919050565b7f424f433a204e6f7420656e6f7567682045746865722100000000000000000000600082015250565b6000611928601683611875565b9150611933826118f2565b602082019050919050565b600060208201905081810360008301526119578161191b565b9050919050565b7f424f433a20596f752061726520616c7265616479207375627363726962656421600082015250565b6000611994602083611875565b915061199f8261195e565b602082019050919050565b600060208201905081810360008301526119c381611987565b9050919050565b7f4e487b7100000000000000000000000000000000000000000000000000000000600052601160045260246000fd5b6000611a04826114e2565b9150611a0f836114e2565b9250828201905080821115611a2757611a266119ca565b5b92915050565b611a36816114e2565b82525050565b6000602082019050611a516000830184611a2d565b92915050565b7f424f433a20496e73756666696369656e7420424f432042616c616e6365210000600082015250565b6000611a8d601e83611875565b9150611a9882611a57565b602082019050919050565b60006020820190508181036000830152611abc81611a80565b9050919050565b611acc81611591565b82525050565b6000606082019050611ae76000830186611ac3565b611af46020830185611ac3565b611b016040830184611a2d565b949350505050565b611b12816116b9565b8114611b1d57600080fd5b50565b600081519050611b2f81611b09565b92915050565b600060208284031215611b4b57611b4a6114dd565b5b6000611b5984828501611b20565b91505092915050565b7f4e487b7100000000000000000000000000000000000000000000000000000000600052603260045260246000fd5b6000611b9c826114e2565b91507fffffffffffffffffffffffffffffffffffffffffffffffffffffffffffffffff8203611bce57611bcd6119ca565b5b600182019050919050565b7f4e487b7100000000000000000000000000000000000000000000000000000000600052604160045260246000fd5b7f4e487b7100000000000000000000000000000000000000000000000000000000600052602260045260246000fd5b60006002820490506001821680611c4f57607f821691505b602082108103611c6257611c61611c08565b5b5091905056fea264697066735822122007b66edcaf00c83488bf48cf851243963ca8e793fb62d7178a2bd7fcb5930e7d64736f6c634300081c0033",
  "linkReferences": {},
  "deployedLinkReferences": {}
}