{
  "_format": "hh-sol-artifact-1",
  "contractName": "BOCTokenV1",
  "sourceName": "contracts/coin/BOCToken.sol",
  "abi": [
    {
      "inputs": [],
      "stateMutability": "nonpayable",
      "type": "constructor"
    },
    {
      "inputs": [],
      "name": "ECDSAInvalidSignature",
      "type": "error"
    },
    {
      "inputs": [
        {
          "internalType": "uint256",
          "name": "length",
          "type": "uint256"
        }
      ],
      "name": "ECDSAInvalidSignatureLength",
      "type": "error"
    },
    {
      "inputs": [
        {
          "internalType": "bytes32",
          "name": "s",
          "type": "bytes32"
        }
      ],
      "name": "ECDSAInvalidSignatureS",
      "type": "error"
    },
    {
      "inputs": [
        {
          "internalType": "address",
          "name": "spender",
          "type": "address"
        },
        {
          "internalType": "uint256",
          "name": "allowance",
          "type": "uint256"
        },
        {
          "internalType": "uint256",
          "name": "needed",
          "type": "uint256"
        }
      ],
      "name": "ERC20InsufficientAllowance",
      "type": "error"
    },
    {
      "inputs": [
        {
          "internalType": "address",
          "name": "sender",
          "type": "address"
        },
        {
          "internalType": "uint256",
          "name": "balance",
          "type": "uint256"
        },
        {
          "internalType": "uint256",
          "name": "needed",
          "type": "uint256"
        }
      ],
      "name": "ERC20InsufficientBalance",
      "type": "error"
    },
    {
      "inputs": [
        {
          "internalType": "address",
          "name": "approver",
          "type": "address"
        }
      ],
      "name": "ERC20InvalidApprover",
      "type": "error"
    },
    {
      "inputs": [
        {
          "internalType": "address",
          "name": "receiver",
          "type": "address"
        }
      ],
      "name": "ERC20InvalidReceiver",
      "type": "error"
    },
    {
      "inputs": [
        {
          "internalType": "address",
          "name": "sender",
          "type": "address"
        }
      ],
      "name": "ERC20InvalidSender",
      "type": "error"
    },
    {
      "inputs": [
        {
          "internalType": "address",
          "name": "spender",
          "type": "address"
        }
      ],
      "name": "ERC20InvalidSpender",
      "type": "error"
    },
    {
      "inputs": [
        {
          "internalType": "uint256",
          "name": "deadline",
          "type": "uint256"
        }
      ],
      "name": "ERC2612ExpiredSignature",
      "type": "error"
    },
    {
      "inputs": [
        {
          "internalType": "address",
          "name": "signer",
          "type": "address"
        },
        {
          "internalType": "address",
          "name": "owner",
          "type": "address"
        }
      ],
      "name": "ERC2612InvalidSigner",
      "type": "error"
    },
    {
      "inputs": [],
      "name": "EnforcedPause",
      "type": "error"
    },
    {
      "inputs": [],
      "name": "ExpectedPause",
      "type": "error"
    },
    {
      "inputs": [
        {
          "internalType": "address",
          "name": "account",
          "type": "address"
        },
        {
          "internalType": "uint256",
          "name": "currentNonce",
          "type": "uint256"
        }
      ],
      "name": "InvalidAccountNonce",
      "type": "error"
    },
    {
      "inputs": [],
      "name": "InvalidInitialization",
      "type": "error"
    },
    {
      "inputs": [],
      "name": "NotInitializing",
      "type": "error"
    },
    {
      "inputs": [
        {
          "internalType": "address",
          "name": "owner",
          "type": "address"
        }
      ],
      "name": "OwnableInvalidOwner",
      "type": "error"
    },
    {
      "inputs": [
        {
          "internalType": "address",
          "name": "account",
          "type": "address"
        }
      ],
      "name": "OwnableUnauthorizedAccount",
      "type": "error"
    },
    {
      "anonymous": false,
      "inputs": [
        {
          "indexed": true,
          "internalType": "address",
          "name": "owner",
          "type": "address"
        },
        {
          "indexed": true,
          "internalType": "address",
          "name": "spender",
          "type": "address"
        },
        {
          "indexed": false,
          "internalType": "uint256",
          "name": "value",
          "type": "uint256"
        }
      ],
      "name": "Approval",
      "type": "event"
    },
    {
      "anonymous": false,
      "inputs": [],
      "name": "EIP712DomainChanged",
      "type": "event"
    },
    {
      "anonymous": false,
      "inputs": [
        {
          "indexed": false,
          "internalType": "uint64",
          "name": "version",
          "type": "uint64"
        }
      ],
      "name": "Initialized",
      "type": "event"
    },
    {
      "anonymous": false,
      "inputs": [
        {
          "indexed": true,
          "internalType": "address",
          "name": "previousOwner",
          "type": "address"
        },
        {
          "indexed": true,
          "internalType": "address",
          "name": "newOwner",
          "type": "address"
        }
      ],
      "name": "OwnershipTransferred",
      "type": "event"
    },
    {
      "anonymous": false,
      "inputs": [
        {
          "indexed": false,
          "internalType": "address",
          "name": "account",
          "type": "address"
        }
      ],
      "name": "Paused",
      "type": "event"
    },
    {
      "anonymous": false,
      "inputs": [
        {
          "indexed": true,
          "internalType": "address",
          "name": "from",
          "type": "address"
        },
        {
          "indexed": true,
          "internalType": "address",
          "name": "to",
          "type": "address"
        },
        {
          "indexed": false,
          "internalType": "uint256",
          "name": "value",
          "type": "uint256"
        }
      ],
      "name": "Transfer",
      "type": "event"
    },
    {
      "anonymous": false,
      "inputs": [
        {
          "indexed": false,
          "internalType": "address",
          "name": "account",
          "type": "address"
        }
      ],
      "name": "Unpaused",
      "type": "event"
    },
    {
      "inputs": [],
      "name": "DOMAIN_SEPARATOR",
      "outputs": [
        {
          "internalType": "bytes32",
          "name": "",
          "type": "bytes32"
        }
      ],
      "stateMutability": "view",
      "type": "function"
    },
    {
      "inputs": [
        {
          "internalType": "address",
          "name": "owner",
          "type": "address"
        },
        {
          "internalType": "address",
          "name": "spender",
          "type": "address"
        }
      ],
      "name": "allowance",
      "outputs": [
        {
          "internalType": "uint256",
          "name": "",
          "type": "uint256"
        }
      ],
      "stateMutability": "view",
      "type": "function"
    },
    {
      "inputs": [
        {
          "internalType": "address",
          "name": "spender",
          "type": "address"
        },
        {
          "internalType": "uint256",
          "name": "value",
          "type": "uint256"
        }
      ],
      "name": "approve",
      "outputs": [
        {
          "internalType": "bool",
          "name": "",
          "type": "bool"
        }
      ],
      "stateMutability": "nonpayable",
      "type": "function"
    },
    {
      "inputs": [
        {
          "internalType": "address",
          "name": "account",
          "type": "address"
        }
      ],
      "name": "balanceOf",
      "outputs": [
        {
          "internalType": "uint256",
          "name": "",
          "type": "uint256"
        }
      ],
      "stateMutability": "view",
      "type": "function"
    },
    {
      "inputs": [
        {
          "internalType": "uint256",
          "name": "value",
          "type": "uint256"
        }
      ],
      "name": "burn",
      "outputs": [],
      "stateMutability": "nonpayable",
      "type": "function"
    },
    {
      "inputs": [
        {
          "internalType": "address",
          "name": "account",
          "type": "address"
        },
        {
          "internalType": "uint256",
          "name": "value",
          "type": "uint256"
        }
      ],
      "name": "burnFrom",
      "outputs": [],
      "stateMutability": "nonpayable",
      "type": "function"
    },
    {
      "inputs": [],
      "name": "decimals",
      "outputs": [
        {
          "internalType": "uint8",
          "name": "",
          "type": "uint8"
        }
      ],
      "stateMutability": "view",
      "type": "function"
    },
    {
      "inputs": [],
      "name": "eip712Domain",
      "outputs": [
        {
          "internalType": "bytes1",
          "name": "fields",
          "type": "bytes1"
        },
        {
          "internalType": "string",
          "name": "name",
          "type": "string"
        },
        {
          "internalType": "string",
          "name": "version",
          "type": "string"
        },
        {
          "internalType": "uint256",
          "name": "chainId",
          "type": "uint256"
        },
        {
          "internalType": "address",
          "name": "verifyingContract",
          "type": "address"
        },
        {
          "internalType": "bytes32",
          "name": "salt",
          "type": "bytes32"
        },
        {
          "internalType": "uint256[]",
          "name": "extensions",
          "type": "uint256[]"
        }
      ],
      "stateMutability": "view",
      "type": "function"
    },
    {
      "inputs": [
        {
          "internalType": "address",
          "name": "recipient",
          "type": "address"
        },
        {
          "internalType": "address",
          "name": "initialOwner",
          "type": "address"
        }
      ],
      "name": "initialize",
      "outputs": [],
      "stateMutability": "nonpayable",
      "type": "function"
    },
    {
      "inputs": [],
      "name": "name",
      "outputs": [
        {
          "internalType": "string",
          "name": "",
          "type": "string"
        }
      ],
      "stateMutability": "view",
      "type": "function"
    },
    {
      "inputs": [
        {
          "internalType": "address",
          "name": "owner",
          "type": "address"
        }
      ],
      "name": "nonces",
      "outputs": [
        {
          "internalType": "uint256",
          "name": "",
          "type": "uint256"
        }
      ],
      "stateMutability": "view",
      "type": "function"
    },
    {
      "inputs": [],
      "name": "owner",
      "outputs": [
        {
          "internalType": "address",
          "name": "",
          "type": "address"
        }
      ],
      "stateMutability": "view",
      "type": "function"
    },
    {
      "inputs": [],
      "name": "pause",
      "outputs": [],
      "stateMutability": "nonpayable",
      "type": "function"
    },
    {
      "inputs": [],
      "name": "paused",
      "outputs": [
        {
          "internalType": "bool",
          "name": "",
          "type": "bool"
        }
      ],
      "stateMutability": "view",
      "type": "function"
    },
    {
      "inputs": [
        {
          "internalType": "address",
          "name": "owner",
          "type": "address"
        },
        {
          "internalType": "address",
          "name": "spender",
          "type": "address"
        },
        {
          "internalType": "uint256",
          "name": "value",
          "type": "uint256"
        },
        {
          "internalType": "uint256",
          "name": "deadline",
          "type": "uint256"
        },
        {
          "internalType": "uint8",
          "name": "v",
          "type": "uint8"
        },
        {
          "internalType": "bytes32",
          "name": "r",
          "type": "bytes32"
        },
        {
          "internalType": "bytes32",
          "name": "s",
          "type": "bytes32"
        }
      ],
      "name": "permit",
      "outputs": [],
      "stateMutability": "nonpayable",
      "type": "function"
    },
    {
      "inputs": [],
      "name": "renounceOwnership",
      "outputs": [],
      "stateMutability": "nonpayable",
      "type": "function"
    },
    {
      "inputs": [],
      "name": "symbol",
      "outputs": [
        {
          "internalType": "string",
          "name": "",
          "type": "string"
        }
      ],
      "stateMutability": "view",
      "type": "function"
    },
    {
      "inputs": [],
      "name": "totalSupply",
      "outputs": [
        {
          "internalType": "uint256",
          "name": "",
          "type": "uint256"
        }
      ],
      "stateMutability": "view",
      "type": "function"
    },
    {
      "inputs": [
        {
          "internalType": "address",
          "name": "to",
          "type": "address"
        },
        {
          "internalType": "uint256",
          "name": "value",
          "type": "uint256"
        }
      ],
      "name": "transfer",
      "outputs": [
        {
          "internalType": "bool",
          "name": "",
          "type": "bool"
        }
      ],
      "stateMutability": "nonpayable",
      "type": "function"
    },
    {
      "inputs": [
        {
          "internalType": "address",
          "name": "from",
          "type": "address"
        },
        {
          "internalType": "address",
          "name": "to",
          "type": "address"
        },
        {
          "internalType": "uint256",
          "name": "value",
          "type": "uint256"
        }
      ],
      "name": "transferFrom",
      "outputs": [
        {
          "internalType": "bool",
          "name": "",
          "type": "bool"
        }
      ],
      "stateMutability": "nonpayable",
      "type": "function"
    },
    {
      "inputs": [
        {
          "internalType": "address",
          "name": "newOwner",
          "type": "address"
        }
      ],
      "name": "transferOwnership",
      "outputs": [],
      "stateMutability": "nonpayable",
      "type": "function"
    },
    {
      "inputs": [],
      "name": "unpause",
      "outputs": [],
      "stateMutability": "nonpayable",
      "type": "function"
    }
  ],
  "bytecode": "0x608060405234801561001057600080fd5b5061001f61002460201b60201c565b61018e565b600061003461012860201b60201c565b90508060000160089054906101000a900460ff161561007f576040517ff92ee8a900000000000000000000000000000000000000000000000000000000815260040160405180910390fd5b67ffffffffffffffff80168160000160009054906101000a900467ffffffffffffffff1667ffffffffffffffff16146101255767ffffffffffffffff8160000160006101000a81548167ffffffffffffffff021916908367ffffffffffffffff1602179055507fc7f505b2f371ae2175ee4913f4499e1f2633a7b5936321eed1cdaeb6115181d267ffffffffffffffff60405161011c9190610173565b60405180910390a15b50565b60007ff0c57e16840df040f15088dc2f81fe391c3923bec73e23a9662efc9c229c6a00905090565b600067ffffffffffffffff82169050919050565b61016d81610150565b82525050565b60006020820190506101886000830184610164565b92915050565b612dea8061019d6000396000f3fe608060405234801561001057600080fd5b50600436106101425760003560e01c8063715018a6116100b85780638da5cb5b1161007c5780638da5cb5b1461033357806395d89b4114610351578063a9059cbb1461036f578063d505accf1461039f578063dd62ed3e146103bb578063f2fde38b146103eb57610142565b8063715018a6146102af57806379cc6790146102b95780637ecebe00146102d55780638456cb591461030557806384b0196e1461030f57610142565b80633644e5151161010a5780633644e515146102015780633f4ba83a1461021f57806342966c6814610229578063485cc955146102455780635c975abb1461026157806370a082311461027f57610142565b806306fdde0314610147578063095ea7b31461016557806318160ddd1461019557806323b872dd146101b3578063313ce567146101e3575b600080fd5b61014f610407565b60405161015c91906120d2565b60405180910390f35b61017f600480360381019061017a919061218d565b6104a8565b60405161018c91906121e8565b60405180910390f35b61019d6104cb565b6040516101aa9190612212565b60405180910390f35b6101cd60048036038101906101c8919061222d565b6104e3565b6040516101da91906121e8565b60405180910390f35b6101eb610512565b6040516101f8919061229c565b60405180910390f35b61020961051b565b60405161021691906122d0565b60405180910390f35b61022761052a565b005b610243600480360381019061023e91906122eb565b61053c565b005b61025f600480360381019061025a9190612318565b610550565b005b6102696107ce565b60405161027691906121e8565b60405180910390f35b61029960048036038101906102949190612358565b6107f3565b6040516102a69190612212565b60405180910390f35b6102b761084a565b005b6102d360048036038101906102ce919061218d565b61085e565b005b6102ef60048036038101906102ea9190612358565b61087e565b6040516102fc9190612212565b60405180910390f35b61030d610890565b005b6103176108a2565b60405161032a979695949392919061248d565b60405180910390f35b61033b6109b4565b6040516103489190612511565b60405180910390f35b6103596109ec565b60405161036691906120d2565b60405180910390f35b6103896004803603810190610384919061218d565b610a8d565b60405161039691906121e8565b60405180910390f35b6103b960048036038101906103b49190612584565b610ab0565b005b6103d560048036038101906103d09190612318565b610bf8565b6040516103e29190612212565b60405180910390f35b61040560048036038101906104009190612358565b610c8d565b005b60606000610413610d13565b905080600301805461042490612655565b80601f016020809104026020016040519081016040528092919081815260200182805461045090612655565b801561049d5780601f106104725761010080835404028352916020019161049d565b820191906000526020600020905b81548152906001019060200180831161048057829003601f168201915b505050505091505090565b6000806104b3610d3b565b90506104c0818585610d43565b600191505092915050565b6000806104d6610d13565b9050806002015491505090565b6000806104ee610d3b565b90506104fb858285610d55565b610506858585610dea565b60019150509392505050565b60006012905090565b6000610525610ede565b905090565b610532610eed565b61053a610f74565b565b61054d610547610d3b565b82610fe6565b50565b600061055a611068565b905060008160000160089054906101000a900460ff1615905060008260000160009054906101000a900467ffffffffffffffff1690506000808267ffffffffffffffff161480156105a85750825b9050600060018367ffffffffffffffff161480156105dd575060003073ffffffffffffffffffffffffffffffffffffffff163b145b9050811580156105eb575080155b15610622576040517ff92ee8a900000000000000000000000000000000000000000000000000000000815260040160405180910390fd5b60018560000160006101000a81548167ffffffffffffffff021916908367ffffffffffffffff16021790555083156106725760018560000160086101000a81548160ff0219169083151502179055505b6106e66040518060400160405280600981526020017f424f4320546f6b656e00000000000000000000000000000000000000000000008152506040518060400160405280600381526020017f424f430000000000000000000000000000000000000000000000000000000000815250611090565b6106ee6110a6565b6106f66110b0565b6106ff866110c2565b61073d6040518060400160405280600981526020017f424f4320546f6b656e00000000000000000000000000000000000000000000008152506110d6565b61076987610749610512565b600a61075591906127e8565b633b9aca006107649190612833565b611120565b83156107c55760008560000160086101000a81548160ff0219169083151502179055507fc7f505b2f371ae2175ee4913f4499e1f2633a7b5936321eed1cdaeb6115181d260016040516107bc91906128ce565b60405180910390a15b50505050505050565b6000806107d96111a2565b90508060000160009054906101000a900460ff1691505090565b6000806107fe610d13565b90508060000160008473ffffffffffffffffffffffffffffffffffffffff1673ffffffffffffffffffffffffffffffffffffffff16815260200190815260200160002054915050919050565b610852610eed565b61085c60006111ca565b565b6108708261086a610d3b565b83610d55565b61087a8282610fe6565b5050565b6000610889826112a1565b9050919050565b610898610eed565b6108a06112f8565b565b60006060806000806000606060006108b861136a565b90506000801b81600001541480156108d657506000801b8160010154145b610915576040517f08c379a000000000000000000000000000000000000000000000000000000000815260040161090c90612935565b60405180910390fd5b61091d611392565b610925611433565b46306000801b600067ffffffffffffffff81111561094657610945612955565b5b6040519080825280602002602001820160405280156109745781602001602082028036833780820191505090505b507f0f0000000000000000000000000000000000000000000000000000000000000095949392919097509750975097509750975097505090919293949596565b6000806109bf6114d4565b90508060000160009054906101000a900473ffffffffffffffffffffffffffffffffffffffff1691505090565b606060006109f8610d13565b9050806004018054610a0990612655565b80601f0160208091040260200160405190810160405280929190818152602001828054610a3590612655565b8015610a825780601f10610a5757610100808354040283529160200191610a82565b820191906000526020600020905b815481529060010190602001808311610a6557829003601f168201915b505050505091505090565b600080610a98610d3b565b9050610aa5818585610dea565b600191505092915050565b83421115610af557836040517f62791302000000000000000000000000000000000000000000000000000000008152600401610aec9190612212565b60405180910390fd5b60007f6e71edae12b1b97f4d1f60370fef10105fa2faae0126114a169c64845d6126c9888888610b248c6114fc565b89604051602001610b3a96959493929190612984565b6040516020818303038152906040528051906020012090506000610b5d82611561565b90506000610b6d8287878761157b565b90508973ffffffffffffffffffffffffffffffffffffffff168173ffffffffffffffffffffffffffffffffffffffff1614610be157808a6040517f4b800e46000000000000000000000000000000000000000000000000000000008152600401610bd89291906129e5565b60405180910390fd5b610bec8a8a8a610d43565b50505050505050505050565b600080610c03610d13565b90508060010160008573ffffffffffffffffffffffffffffffffffffffff1673ffffffffffffffffffffffffffffffffffffffff16815260200190815260200160002060008473ffffffffffffffffffffffffffffffffffffffff1673ffffffffffffffffffffffffffffffffffffffff1681526020019081526020016000205491505092915050565b610c95610eed565b600073ffffffffffffffffffffffffffffffffffffffff168173ffffffffffffffffffffffffffffffffffffffff1603610d075760006040517f1e4fbdf7000000000000000000000000000000000000000000000000000000008152600401610cfe9190612511565b60405180910390fd5b610d10816111ca565b50565b60007f52c63247e1f47db19d5ce0460030c497f067ca4cebf71ba98eeadabe20bace00905090565b600033905090565b610d5083838360016115ab565b505050565b6000610d618484610bf8565b90507fffffffffffffffffffffffffffffffffffffffffffffffffffffffffffffffff811015610de45781811015610dd4578281836040517ffb8f41b2000000000000000000000000000000000000000000000000000000008152600401610dcb93929190612a0e565b60405180910390fd5b610de3848484840360006115ab565b5b50505050565b600073ffffffffffffffffffffffffffffffffffffffff168373ffffffffffffffffffffffffffffffffffffffff1603610e5c5760006040517f96c6fd1e000000000000000000000000000000000000000000000000000000008152600401610e539190612511565b60405180910390fd5b600073ffffffffffffffffffffffffffffffffffffffff168273ffffffffffffffffffffffffffffffffffffffff1603610ece5760006040517fec442f05000000000000000000000000000000000000000000000000000000008152600401610ec59190612511565b60405180910390fd5b610ed9838383611791565b505050565b6000610ee86117a1565b905090565b610ef5610d3b565b73ffffffffffffffffffffffffffffffffffffffff16610f136109b4565b73ffffffffffffffffffffffffffffffffffffffff1614610f7257610f36610d3b565b6040517f118cdaa7000000000000000000000000000000000000000000000000000000008152600401610f699190612511565b60405180910390fd5b565b610f7c611805565b6000610f866111a2565b905060008160000160006101000a81548160ff0219169083151502179055507f5db9ee0a495bf2e6ff9c91a7834c1ba4fdd244a5e8aa4e537bd38aeae4b073aa610fce610d3b565b604051610fdb9190612511565b60405180910390a150565b600073ffffffffffffffffffffffffffffffffffffffff168273ffffffffffffffffffffffffffffffffffffffff16036110585760006040517f96c6fd1e00000000000000000000000000000000000000000000000000000000815260040161104f9190612511565b60405180910390fd5b61106482600083611791565b5050565b60007ff0c57e16840df040f15088dc2f81fe391c3923bec73e23a9662efc9c229c6a00905090565b611098611845565b6110a28282611885565b5050565b6110ae611845565b565b6110b8611845565b6110c06118c2565b565b6110ca611845565b6110d3816118f6565b50565b6110de611845565b61111d816040518060400160405280600181526020017f310000000000000000000000000000000000000000000000000000000000000081525061197c565b50565b600073ffffffffffffffffffffffffffffffffffffffff168273ffffffffffffffffffffffffffffffffffffffff16036111925760006040517fec442f050000000000000000000000000000000000000000000000000000000081526004016111899190612511565b60405180910390fd5b61119e60008383611791565b5050565b60007fcd5ed15c6e187e77e9aee88184c21f4f2182ab5827cb3b7e07fbedcd63f03300905090565b60006111d46114d4565b905060008160000160009054906101000a900473ffffffffffffffffffffffffffffffffffffffff169050828260000160006101000a81548173ffffffffffffffffffffffffffffffffffffffff021916908373ffffffffffffffffffffffffffffffffffffffff1602179055508273ffffffffffffffffffffffffffffffffffffffff168173ffffffffffffffffffffffffffffffffffffffff167f8be0079c531659141344cd1fd0a4f28419497f9722a3daafe3b4186f6b6457e060405160405180910390a3505050565b6000806112ac6119d1565b90508060000160008473ffffffffffffffffffffffffffffffffffffffff1673ffffffffffffffffffffffffffffffffffffffff16815260200190815260200160002054915050919050565b6113006119f9565b600061130a6111a2565b905060018160000160006101000a81548160ff0219169083151502179055507f62e78cea01bee320cd4e420270b5ea74000d11b0c9f74754ebdbfc544b05a258611352610d3b565b60405161135f9190612511565b60405180910390a150565b60007fa16a46d94261c7517cc8ff89f61c0ce93598e3c849801011dee649a6a557d100905090565b6060600061139e61136a565b90508060020180546113af90612655565b80601f01602080910402602001604051908101604052809291908181526020018280546113db90612655565b80156114285780601f106113fd57610100808354040283529160200191611428565b820191906000526020600020905b81548152906001019060200180831161140b57829003601f168201915b505050505091505090565b6060600061143f61136a565b905080600301805461145090612655565b80601f016020809104026020016040519081016040528092919081815260200182805461147c90612655565b80156114c95780601f1061149e576101008083540402835291602001916114c9565b820191906000526020600020905b8154815290600101906020018083116114ac57829003601f168201915b505050505091505090565b60007f9016d09d72d40fdae2fd8ceac6b6234c7706214fd39c1cd1e609a0528c199300905090565b6000806115076119d1565b90508060000160008473ffffffffffffffffffffffffffffffffffffffff1673ffffffffffffffffffffffffffffffffffffffff168152602001908152602001600020600081548092919060010191905055915050919050565b600061157461156e610ede565b83611a3a565b9050919050565b60008060008061158d88888888611a7b565b92509250925061159d8282611b6f565b829350505050949350505050565b60006115b5610d13565b9050600073ffffffffffffffffffffffffffffffffffffffff168573ffffffffffffffffffffffffffffffffffffffff16036116295760006040517fe602df050000000000000000000000000000000000000000000000000000000081526004016116209190612511565b60405180910390fd5b600073ffffffffffffffffffffffffffffffffffffffff168473ffffffffffffffffffffffffffffffffffffffff160361169b5760006040517f94280d620000000000000000000000000000000000000000000000000000000081526004016116929190612511565b60405180910390fd5b828160010160008773ffffffffffffffffffffffffffffffffffffffff1673ffffffffffffffffffffffffffffffffffffffff16815260200190815260200160002060008673ffffffffffffffffffffffffffffffffffffffff1673ffffffffffffffffffffffffffffffffffffffff16815260200190815260200160002081905550811561178a578373ffffffffffffffffffffffffffffffffffffffff168573ffffffffffffffffffffffffffffffffffffffff167f8c5be1e5ebec7d5bd14f71427d1e84f3dd0314c0f7b2291e5b200ac8c7c3b925856040516117819190612212565b60405180910390a35b5050505050565b61179c838383611cd3565b505050565b60007f8b73c3c69bb8fe3d512ecc4cf759cc79239f7b179b0ffacaa9a75d522b39400f6117cc611ceb565b6117d4611d67565b46306040516020016117ea959493929190612a45565b60405160208183030381529060405280519060200120905090565b61180d6107ce565b611843576040517f8dfc202b00000000000000000000000000000000000000000000000000000000815260040160405180910390fd5b565b61184d611de3565b611883576040517fd7e6bcf800000000000000000000000000000000000000000000000000000000815260040160405180910390fd5b565b61188d611845565b6000611897610d13565b9050828160030190816118aa9190612c3a565b50818160040190816118bc9190612c3a565b50505050565b6118ca611845565b60006118d46111a2565b905060008160000160006101000a81548160ff02191690831515021790555050565b6118fe611845565b600073ffffffffffffffffffffffffffffffffffffffff168173ffffffffffffffffffffffffffffffffffffffff16036119705760006040517f1e4fbdf70000000000000000000000000000000000000000000000000000000081526004016119679190612511565b60405180910390fd5b611979816111ca565b50565b611984611845565b600061198e61136a565b9050828160020190816119a19190612c3a565b50818160030190816119b39190612c3a565b506000801b81600001819055506000801b8160010181905550505050565b60007f5ab42ced628888259c08ac98db1eb0cf702fc1501344311d8b100cd1bfe4bb00905090565b611a016107ce565b15611a38576040517fd93c066500000000000000000000000000000000000000000000000000000000815260040160405180910390fd5b565b60006040517f190100000000000000000000000000000000000000000000000000000000000081528360028201528260228201526042812091505092915050565b60008060007f7fffffffffffffffffffffffffffffff5d576e7357a4501ddfe92f46681b20a08460001c1115611abb576000600385925092509250611b65565b600060018888888860405160008152602001604052604051611ae09493929190612d0c565b6020604051602081039080840390855afa158015611b02573d6000803e3d6000fd5b505050602060405103519050600073ffffffffffffffffffffffffffffffffffffffff168173ffffffffffffffffffffffffffffffffffffffff1603611b5657600060016000801b93509350935050611b65565b8060008060001b935093509350505b9450945094915050565b60006003811115611b8357611b82612d51565b5b826003811115611b9657611b95612d51565b5b0315611ccf5760016003811115611bb057611baf612d51565b5b826003811115611bc357611bc2612d51565b5b03611bfa576040517ff645eedf00000000000000000000000000000000000000000000000000000000815260040160405180910390fd5b60026003811115611c0e57611c0d612d51565b5b826003811115611c2157611c20612d51565b5b03611c66578060001c6040517ffce698f7000000000000000000000000000000000000000000000000000000008152600401611c5d9190612212565b60405180910390fd5b600380811115611c7957611c78612d51565b5b826003811115611c8c57611c8b612d51565b5b03611cce57806040517fd78bce0c000000000000000000000000000000000000000000000000000000008152600401611cc591906122d0565b60405180910390fd5b5b5050565b611cdb6119f9565b611ce6838383611e03565b505050565b600080611cf661136a565b90506000611d02611392565b9050600081511115611d1f57808051906020012092505050611d64565b6000826000015490506000801b8114611d3d57809350505050611d64565b7fc5d2460186f7233c927e7db2dcc703c0e500b653ca82273b7bfad8045d85a47093505050505b90565b600080611d7261136a565b90506000611d7e611433565b9050600081511115611d9b57808051906020012092505050611de0565b6000826001015490506000801b8114611db957809350505050611de0565b7fc5d2460186f7233c927e7db2dcc703c0e500b653ca82273b7bfad8045d85a47093505050505b90565b6000611ded611068565b60000160089054906101000a900460ff16905090565b6000611e0d610d13565b9050600073ffffffffffffffffffffffffffffffffffffffff168473ffffffffffffffffffffffffffffffffffffffff1603611e635781816002016000828254611e579190612d80565b92505081905550611f3c565b60008160000160008673ffffffffffffffffffffffffffffffffffffffff1673ffffffffffffffffffffffffffffffffffffffff16815260200190815260200160002054905082811015611ef2578481846040517fe450d38c000000000000000000000000000000000000000000000000000000008152600401611ee993929190612a0e565b60405180910390fd5b8281038260000160008773ffffffffffffffffffffffffffffffffffffffff1673ffffffffffffffffffffffffffffffffffffffff16815260200190815260200160002081905550505b600073ffffffffffffffffffffffffffffffffffffffff168373ffffffffffffffffffffffffffffffffffffffff1603611f8757818160020160008282540392505081905550611fd7565b818160000160008573ffffffffffffffffffffffffffffffffffffffff1673ffffffffffffffffffffffffffffffffffffffff168152602001908152602001600020600082825401925050819055505b8273ffffffffffffffffffffffffffffffffffffffff168473ffffffffffffffffffffffffffffffffffffffff167fddf252ad1be2c89b69c2b068fc378daa952ba7f163c4a11628f55a4df523b3ef846040516120349190612212565b60405180910390a350505050565b600081519050919050565b600082825260208201905092915050565b60005b8381101561207c578082015181840152602081019050612061565b60008484015250505050565b6000601f19601f8301169050919050565b60006120a482612042565b6120ae818561204d565b93506120be81856020860161205e565b6120c781612088565b840191505092915050565b600060208201905081810360008301526120ec8184612099565b905092915050565b600080fd5b600073ffffffffffffffffffffffffffffffffffffffff82169050919050565b6000612124826120f9565b9050919050565b61213481612119565b811461213f57600080fd5b50565b6000813590506121518161212b565b92915050565b6000819050919050565b61216a81612157565b811461217557600080fd5b50565b60008135905061218781612161565b92915050565b600080604083850312156121a4576121a36120f4565b5b60006121b285828601612142565b92505060206121c385828601612178565b9150509250929050565b60008115159050919050565b6121e2816121cd565b82525050565b60006020820190506121fd60008301846121d9565b92915050565b61220c81612157565b82525050565b60006020820190506122276000830184612203565b92915050565b600080600060608486031215612246576122456120f4565b5b600061225486828701612142565b935050602061226586828701612142565b925050604061227686828701612178565b9150509250925092565b600060ff82169050919050565b61229681612280565b82525050565b60006020820190506122b1600083018461228d565b92915050565b6000819050919050565b6122ca816122b7565b82525050565b60006020820190506122e560008301846122c1565b92915050565b600060208284031215612301576123006120f4565b5b600061230f84828501612178565b91505092915050565b6000806040838503121561232f5761232e6120f4565b5b600061233d85828601612142565b925050602061234e85828601612142565b9150509250929050565b60006020828403121561236e5761236d6120f4565b5b600061237c84828501612142565b91505092915050565b60007fff0000000000000000000000000000000000000000000000000000000000000082169050919050565b6123ba81612385565b82525050565b6123c981612119565b82525050565b600081519050919050565b600082825260208201905092915050565b6000819050602082019050919050565b61240481612157565b82525050565b600061241683836123fb565b60208301905092915050565b6000602082019050919050565b600061243a826123cf565b61244481856123da565b935061244f836123eb565b8060005b83811015612480578151612467888261240a565b975061247283612422565b925050600181019050612453565b5085935050505092915050565b600060e0820190506124a2600083018a6123b1565b81810360208301526124b48189612099565b905081810360408301526124c88188612099565b90506124d76060830187612203565b6124e460808301866123c0565b6124f160a08301856122c1565b81810360c0830152612503818461242f565b905098975050505050505050565b600060208201905061252660008301846123c0565b92915050565b61253581612280565b811461254057600080fd5b50565b6000813590506125528161252c565b92915050565b612561816122b7565b811461256c57600080fd5b50565b60008135905061257e81612558565b92915050565b600080600080600080600060e0888a0312156125a3576125a26120f4565b5b60006125b18a828b01612142565b97505060206125c28a828b01612142565b96505060406125d38a828b01612178565b95505060606125e48a828b01612178565b94505060806125f58a828b01612543565b93505060a06126068a828b0161256f565b92505060c06126178a828b0161256f565b91505092959891949750929550565b7f4e487b7100000000000000000000000000000000000000000000000000000000600052602260045260246000fd5b6000600282049050600182168061266d57607f821691505b6020821081036126805761267f612626565b5b50919050565b7f4e487b7100000000000000000000000000000000000000000000000000000000600052601160045260246000fd5b60008160011c9050919050565b6000808291508390505b600185111561270c578086048111156126e8576126e7612686565b5b60018516156126f75780820291505b8081029050612705856126b5565b94506126cc565b94509492505050565b60008261272557600190506127e1565b8161273357600090506127e1565b8160018114612749576002811461275357612782565b60019150506127e1565b60ff84111561276557612764612686565b5b8360020a91508482111561277c5761277b612686565b5b506127e1565b5060208310610133831016604e8410600b84101617156127b75782820a9050838111156127b2576127b1612686565b5b6127e1565b6127c484848460016126c2565b925090508184048111156127db576127da612686565b5b81810290505b9392505050565b60006127f382612157565b91506127fe83612280565b925061282b7fffffffffffffffffffffffffffffffffffffffffffffffffffffffffffffffff8484612715565b905092915050565b600061283e82612157565b915061284983612157565b925082820261285781612157565b9150828204841483151761286e5761286d612686565b5b5092915050565b6000819050919050565b600067ffffffffffffffff82169050919050565b6000819050919050565b60006128b86128b36128ae84612875565b612893565b61287f565b9050919050565b6128c88161289d565b82525050565b60006020820190506128e360008301846128bf565b92915050565b7f4549503731323a20556e696e697469616c697a65640000000000000000000000600082015250565b600061291f60158361204d565b915061292a826128e9565b602082019050919050565b6000602082019050818103600083015261294e81612912565b9050919050565b7f4e487b7100000000000000000000000000000000000000000000000000000000600052604160045260246000fd5b600060c08201905061299960008301896122c1565b6129a660208301886123c0565b6129b360408301876123c0565b6129c06060830186612203565b6129cd6080830185612203565b6129da60a0830184612203565b979650505050505050565b60006040820190506129fa60008301856123c0565b612a0760208301846123c0565b9392505050565b6000606082019050612a2360008301866123c0565b612a306020830185612203565b612a3d6040830184612203565b949350505050565b600060a082019050612a5a60008301886122c1565b612a6760208301876122c1565b612a7460408301866122c1565b612a816060830185612203565b612a8e60808301846123c0565b9695505050505050565b60008190508160005260206000209050919050565b60006020601f8301049050919050565b600082821b905092915050565b600060088302612afa7fffffffffffffffffffffffffffffffffffffffffffffffffffffffffffffffff82612abd565b612b048683612abd565b95508019841693508086168417925050509392505050565b6000612b37612b32612b2d84612157565b612893565b612157565b9050919050565b6000819050919050565b612b5183612b1c565b612b65612b5d82612b3e565b848454612aca565b825550505050565b600090565b612b7a612b6d565b612b85818484612b48565b505050565b5b81811015612ba957612b9e600082612b72565b600181019050612b8b565b5050565b601f821115612bee57612bbf81612a98565b612bc884612aad565b81016020851015612bd7578190505b612beb612be385612aad565b830182612b8a565b50505b505050565b600082821c905092915050565b6000612c1160001984600802612bf3565b1980831691505092915050565b6000612c2a8383612c00565b9150826002028217905092915050565b612c4382612042565b67ffffffffffffffff811115612c5c57612c5b612955565b5b612c668254612655565b612c71828285612bad565b600060209050601f831160018114612ca45760008415612c92578287015190505b612c9c8582612c1e565b865550612d04565b601f198416612cb286612a98565b60005b82811015612cda57848901518255600182019150602085019450602081019050612cb5565b86831015612cf75784890151612cf3601f891682612c00565b8355505b6001600288020188555050505b505050505050565b6000608082019050612d2160008301876122c1565b612d2e602083018661228d565b612d3b60408301856122c1565b612d4860608301846122c1565b95945050505050565b7f4e487b7100000000000000000000000000000000000000000000000000000000600052602160045260246000fd5b6000612d8b82612157565b9150612d9683612157565b9250828201905080821115612dae57612dad612686565b5b9291505056fea2646970667358221220f6ef9ca85536923a73c11c5c36b7ccdb1653798b269215f91e7dfb9f770ed4e264736f6c634300081c0033",
  "linkReferences": {},
  "deployedLinkReferences": {}
}