{
  "_format": "hh-sol-artifact-1",
  "contractName": "BOCUsersFacet",
  "sourceName": "contracts/facets/BOCUsersFacet.sol",
  "abi": [
    {
      "anonymous": false,
      "inputs": [
        {
          "indexed": true,
          "internalType": "address",
          "name": "from",
          "type": "address"
        },
        {
          "indexed": true,
          "internalType": "address",
          "name": "to",
          "type": "address"
        },
        {
          "indexed": false,
          "internalType": "uint256",
          "name": "amount",
          "type": "uint256"
        },
        {
          "indexed": false,
          "internalType": "uint256",
          "name": "when",
          "type": "uint256"
        }
      ],
      "name": "EtherWithdraw",
      "type": "event"
    },
    {
      "anonymous": false,
      "inputs": [
        {
          "indexed": true,
          "internalType": "address",
          "name": "from",
          "type": "address"
        },
        {
          "indexed": true,
          "internalType": "address",
          "name": "to",
          "type": "address"
        },
        {
          "indexed": true,
          "internalType": "address",
          "name": "token",
          "type": "address"
        },
        {
          "indexed": false,
          "internalType": "uint256",
          "name": "amount",
          "type": "uint256"
        },
        {
          "indexed": false,
          "internalType": "uint256",
          "name": "when",
          "type": "uint256"
        }
      ],
      "name": "TokenWithdraw",
      "type": "event"
    },
    {
      "anonymous": false,
      "inputs": [
        {
          "indexed": true,
          "internalType": "address",
          "name": "user",
          "type": "address"
        },
        {
          "indexed": false,
          "internalType": "uint256",
          "name": "when",
          "type": "uint256"
        }
      ],
      "name": "UpdateUser",
      "type": "event"
    },
    {
      "anonymous": false,
      "inputs": [
        {
          "indexed": true,
          "internalType": "address",
          "name": "user",
          "type": "address"
        },
        {
          "indexed": false,
          "internalType": "uint256",
          "name": "when",
          "type": "uint256"
        }
      ],
      "name": "UserCreated",
      "type": "event"
    },
    {
      "inputs": [],
      "name": "bocWithdrawEther",
      "outputs": [],
      "stateMutability": "nonpayable",
      "type": "function"
    },
    {
      "inputs": [
        {
          "internalType": "address",
          "name": "_tokenAddress",
          "type": "address"
        },
        {
          "internalType": "address",
          "name": "_receiver",
          "type": "address"
        }
      ],
      "name": "bocWithdrawToken",
      "outputs": [],
      "stateMutability": "nonpayable",
      "type": "function"
    },
    {
      "inputs": [],
      "name": "checkBalance",
      "outputs": [
        {
          "internalType": "uint256",
          "name": "",
          "type": "uint256"
        }
      ],
      "stateMutability": "view",
      "type": "function"
    },
    {
      "inputs": [],
      "name": "checkTokenBalance",
      "outputs": [
        {
          "internalType": "uint256",
          "name": "",
          "type": "uint256"
        }
      ],
      "stateMutability": "view",
      "type": "function"
    },
    {
      "inputs": [
        {
          "internalType": "string",
          "name": "_fullname",
          "type": "string"
        },
        {
          "internalType": "string",
          "name": "_nickname",
          "type": "string"
        },
        {
          "internalType": "string",
          "name": "_gender",
          "type": "string"
        },
        {
          "internalType": "enum BOCDiamondStorage.SubscriptionType",
          "name": "_currency",
          "type": "uint8"
        },
        {
          "internalType": "string",
          "name": "_photo",
          "type": "string"
        }
      ],
      "name": "createUser",
      "outputs": [],
      "stateMutability": "nonpayable",
      "type": "function"
    },
    {
      "inputs": [
        {
          "internalType": "address",
          "name": "_userAddress",
          "type": "address"
        }
      ],
      "name": "getUser",
      "outputs": [
        {
          "components": [
            {
              "internalType": "address",
              "name": "uid",
              "type": "address"
            },
            {
              "internalType": "string",
              "name": "fullname",
              "type": "string"
            },
            {
              "internalType": "string",
              "name": "nickname",
              "type": "string"
            },
            {
              "internalType": "string",
              "name": "gender",
              "type": "string"
            },
            {
              "internalType": "string",
              "name": "photo",
              "type": "string"
            },
            {
              "internalType": "enum BOCDiamondStorage.SubscriptionType",
              "name": "currency",
              "type": "uint8"
            },
            {
              "internalType": "bool",
              "name": "isActive",
              "type": "bool"
            },
            {
              "internalType": "bool",
              "name": "hasSubscription",
              "type": "bool"
            },
            {
              "internalType": "uint256",
              "name": "joinedDate",
              "type": "uint256"
            }
          ],
          "internalType": "struct BOCDiamondStorage.User",
          "name": "",
          "type": "tuple"
        }
      ],
      "stateMutability": "view",
      "type": "function"
    },
    {
      "inputs": [
        {
          "internalType": "address",
          "name": "_userAddress",
          "type": "address"
        }
      ],
      "name": "getUserBalance",
      "outputs": [
        {
          "internalType": "uint256",
          "name": "",
          "type": "uint256"
        }
      ],
      "stateMutability": "view",
      "type": "function"
    },
    {
      "inputs": [
        {
          "internalType": "address",
          "name": "_userAddress",
          "type": "address"
        }
      ],
      "name": "getUserBirthdays",
      "outputs": [
        {
          "components": [
            {
              "internalType": "uint256",
              "name": "id",
              "type": "uint256"
            },
            {
              "internalType": "uint256",
              "name": "createdAt",
              "type": "uint256"
            },
            {
              "internalType": "uint256",
              "name": "when",
              "type": "uint256"
            },
            {
              "components": [
                {
                  "internalType": "uint256",
                  "name": "createdAt",
                  "type": "uint256"
                }
              ],
              "internalType": "struct BOCDiamondStorage.BirthdayTimeline[]",
              "name": "timeline",
              "type": "tuple[]"
            },
            {
              "components": [
                {
                  "internalType": "uint256",
                  "name": "createdAt",
                  "type": "uint256"
                },
                {
                  "internalType": "string",
                  "name": "description",
                  "type": "string"
                },
                {
                  "internalType": "uint256",
                  "name": "targetAmount",
                  "type": "uint256"
                },
                {
                  "internalType": "uint256",
                  "name": "amountRaised",
                  "type": "uint256"
                }
              ],
              "internalType": "struct BOCDiamondStorage.Goal",
              "name": "goal",
              "type": "tuple"
            }
          ],
          "internalType": "struct BOCDiamondStorage.Birthday",
          "name": "",
          "type": "tuple"
        }
      ],
      "stateMutability": "view",
      "type": "function"
    },
    {
      "inputs": [
        {
          "internalType": "address",
          "name": "_userAddress",
          "type": "address"
        }
      ],
      "name": "getUserGifts",
      "outputs": [
        {
          "components": [
            {
              "internalType": "uint256",
              "name": "id",
              "type": "uint256"
            },
            {
              "internalType": "uint256",
              "name": "createdAt",
              "type": "uint256"
            },
            {
              "internalType": "address",
              "name": "sender",
              "type": "address"
            },
            {
              "internalType": "address",
              "name": "recipient",
              "type": "address"
            },
            {
              "internalType": "uint256",
              "name": "amount",
              "type": "uint256"
            }
          ],
          "internalType": "struct BOCDiamondStorage.Gift[]",
          "name": "",
          "type": "tuple[]"
        }
      ],
      "stateMutability": "view",
      "type": "function"
    },
    {
      "inputs": [
        {
          "internalType": "address",
          "name": "_userAddress",
          "type": "address"
        }
      ],
      "name": "getUserGoal",
      "outputs": [
        {
          "components": [
            {
              "internalType": "uint256",
              "name": "createdAt",
              "type": "uint256"
            },
            {
              "internalType": "string",
              "name": "description",
              "type": "string"
            },
            {
              "internalType": "uint256",
              "name": "targetAmount",
              "type": "uint256"
            },
            {
              "internalType": "uint256",
              "name": "amountRaised",
              "type": "uint256"
            }
          ],
          "internalType": "struct BOCDiamondStorage.Goal",
          "name": "",
          "type": "tuple"
        }
      ],
      "stateMutability": "view",
      "type": "function"
    },
    {
      "inputs": [
        {
          "internalType": "address",
          "name": "_userAddress",
          "type": "address"
        }
      ],
      "name": "getUserMessages",
      "outputs": [
        {
          "components": [
            {
              "internalType": "uint256",
              "name": "id",
              "type": "uint256"
            },
            {
              "internalType": "uint256",
              "name": "createdAt",
              "type": "uint256"
            },
            {
              "internalType": "address",
              "name": "sender",
              "type": "address"
            },
            {
              "internalType": "address",
              "name": "recipient",
              "type": "address"
            },
            {
              "internalType": "string",
              "name": "message",
              "type": "string"
            }
          ],
          "internalType": "struct BOCDiamondStorage.Message[]",
          "name": "",
          "type": "tuple[]"
        }
      ],
      "stateMutability": "view",
      "type": "function"
    },
    {
      "inputs": [
        {
          "internalType": "address",
          "name": "_userAddress",
          "type": "address"
        }
      ],
      "name": "getUserNotifications",
      "outputs": [
        {
          "components": [
            {
              "internalType": "uint256",
              "name": "id",
              "type": "uint256"
            },
            {
              "internalType": "address",
              "name": "sender",
              "type": "address"
            },
            {
              "internalType": "address",
              "name": "receiver",
              "type": "address"
            },
            {
              "internalType": "uint256",
              "name": "notificationTypeId",
              "type": "uint256"
            },
            {
              "internalType": "enum BOCDiamondStorage.NotificationType",
              "name": "notificationType",
              "type": "uint8"
            },
            {
              "internalType": "uint256",
              "name": "createdAt",
              "type": "uint256"
            }
          ],
          "internalType": "struct BOCDiamondStorage.Notification[]",
          "name": "",
          "type": "tuple[]"
        }
      ],
      "stateMutability": "view",
      "type": "function"
    },
    {
      "inputs": [
        {
          "internalType": "address",
          "name": "_userAddress",
          "type": "address"
        }
      ],
      "name": "getUserSubscription",
      "outputs": [
        {
          "components": [
            {
              "internalType": "uint256",
              "name": "id",
              "type": "uint256"
            },
            {
              "internalType": "uint256",
              "name": "createdAt",
              "type": "uint256"
            },
            {
              "internalType": "enum BOCDiamondStorage.SubscriptionType",
              "name": "subscriptionType",
              "type": "uint8"
            },
            {
              "internalType": "uint256",
              "name": "amount",
              "type": "uint256"
            },
            {
              "internalType": "bool",
              "name": "hasExpired",
              "type": "bool"
            },
            {
              "internalType": "uint256",
              "name": "billingPeriod",
              "type": "uint256"
            }
          ],
          "internalType": "struct BOCDiamondStorage.Subscription",
          "name": "",
          "type": "tuple"
        }
      ],
      "stateMutability": "view",
      "type": "function"
    },
    {
      "inputs": [
        {
          "internalType": "address",
          "name": "_userAddress",
          "type": "address"
        }
      ],
      "name": "getUserTokenBalance",
      "outputs": [
        {
          "internalType": "uint256",
          "name": "",
          "type": "uint256"
        }
      ],
      "stateMutability": "view",
      "type": "function"
    },
    {
      "inputs": [
        {
          "internalType": "string",
          "name": "_fullname",
          "type": "string"
        },
        {
          "internalType": "string",
          "name": "_nickname",
          "type": "string"
        },
        {
          "internalType": "enum BOCDiamondStorage.SubscriptionType",
          "name": "_currency",
          "type": "uint8"
        },
        {
          "internalType": "string",
          "name": "_photo",
          "type": "string"
        }
      ],
      "name": "updateUser",
      "outputs": [],
      "stateMutability": "nonpayable",
      "type": "function"
    }
  ],
  "bytecode": "0x6080604052348015600f57600080fd5b50613ac98061001f6000396000f3fe608060405234801561001057600080fd5b50600436106100f55760003560e01c806397fb83c211610097578063c3f6226311610066578063c3f62263146102bc578063c71daccb146102c6578063ebbeec08146102e4578063f5aec88c14610314576100f5565b806397fb83c21461021057806398d63d3d14610240578063a303155914610270578063aea285d41461028c576100f5565b806347734892116100d357806347734892146101625780634f7310871461019257806357f31358146101b05780636f77926b146101e0576100f5565b806317b14350146100fa5780631cbf4687146101165780632b4fee2914610146575b600080fd5b610114600480360381019061010f919061279a565b610344565b005b610130600480360381019061012b91906128e3565b6105c3565b60405161013d9190612a0b565b60405180910390f35b610160600480360381019061015b9190612a2d565b6106cd565b005b61017c600480360381019061017791906128e3565b610774565b6040516101899190612a7c565b60405180910390f35b61019a610810565b6040516101a79190612a7c565b60405180910390f35b6101ca60048036038101906101c591906128e3565b610961565b6040516101d79190612c47565b60405180910390f35b6101fa60048036038101906101f591906128e3565b610b57565b6040516102079190612da6565b60405180910390f35b61022a600480360381019061022591906128e3565b610f1d565b6040516102379190612edf565b60405180910390f35b61025a600480360381019061025591906128e3565b6110d8565b6040516102679190613039565b60405180910390f35b61028a6004803603810190610285919061305b565b61131b565b005b6102a660048036038101906102a191906128e3565b611468565b6040516102b391906132c1565b60405180910390f35b6102c461165b565b005b6102ce6116fe565b6040516102db9190612a7c565b60405180910390f35b6102fe60048036038101906102f991906128e3565b6117e7565b60405161030b919061335e565b60405180910390f35b61032e600480360381019061032991906128e3565b611911565b60405161033b9190612a7c565b60405180910390f35b336000151561035282611a15565b151514610394576040517f08c379a000000000000000000000000000000000000000000000000000000000815260040161038b906133d6565b60405180910390fd5b60006040518061012001604052803373ffffffffffffffffffffffffffffffffffffffff1681526020018881526020018781526020018681526020018481526020018560018111156103e9576103e8612ad2565b5b81526020016001151581526020016000151581526020014281525090508061040f611a77565b60070160003373ffffffffffffffffffffffffffffffffffffffff1673ffffffffffffffffffffffffffffffffffffffff16815260200190815260200160002060008201518160000160006101000a81548173ffffffffffffffffffffffffffffffffffffffff021916908373ffffffffffffffffffffffffffffffffffffffff16021790555060208201518160010190816104ab9190613602565b5060408201518160020190816104c19190613602565b5060608201518160030190816104d79190613602565b5060808201518160040190816104ed9190613602565b5060a08201518160050160006101000a81548160ff0219169083600181111561051957610518612ad2565b5b021790555060c08201518160050160016101000a81548160ff02191690831515021790555060e08201518160050160026101000a81548160ff02191690831515021790555061010082015181600601559050503373ffffffffffffffffffffffffffffffffffffffff167fa27642fccf9a9a0a8a8e31188dfec60a6565c30a20ef3ed1eb3a779a79a36b2e426040516105b29190612a7c565b60405180910390a250505050505050565b6105cb6124fc565b816105d581611a15565b610614576040517f08c379a000000000000000000000000000000000000000000000000000000000815260040161060b90613720565b60405180910390fd5b6001151561062184611aa4565b151514610663576040517f08c379a000000000000000000000000000000000000000000000000000000000815260040161065a9061378c565b60405180910390fd5b600061066e84611b46565b90506001151561067d82611d88565b1515146106bf576040517f08c379a00000000000000000000000000000000000000000000000000000000081526004016106b6906137f8565b60405180910390fd5b806080015192505050919050565b6106d5611a77565b60000160009054906101000a900473ffffffffffffffffffffffffffffffffffffffff1673ffffffffffffffffffffffffffffffffffffffff163373ffffffffffffffffffffffffffffffffffffffff1614610766576040517f08c379a000000000000000000000000000000000000000000000000000000000815260040161075d90613864565b60405180910390fd5b6107708282611d9d565b5050565b60008161078081611a15565b6107bf576040517f08c379a00000000000000000000000000000000000000000000000000000000081526004016107b690613720565b60405180910390fd5b6107c7611a77565b600b0160008473ffffffffffffffffffffffffffffffffffffffff1673ffffffffffffffffffffffffffffffffffffffff16815260200190815260200160002054915050919050565b600061081a611a77565b60000160009054906101000a900473ffffffffffffffffffffffffffffffffffffffff1673ffffffffffffffffffffffffffffffffffffffff163373ffffffffffffffffffffffffffffffffffffffff16146108ab576040517f08c379a00000000000000000000000000000000000000000000000000000000081526004016108a290613864565b60405180910390fd5b6108b3611a77565b600a0160006108c0611a77565b60010160009054906101000a900473ffffffffffffffffffffffffffffffffffffffff1673ffffffffffffffffffffffffffffffffffffffff1673ffffffffffffffffffffffffffffffffffffffff16815260200190815260200160002060003373ffffffffffffffffffffffffffffffffffffffff1673ffffffffffffffffffffffffffffffffffffffff16815260200190815260200160002054905090565b60608161096d81611a15565b6109ac576040517f08c379a00000000000000000000000000000000000000000000000000000000081526004016109a390613720565b60405180910390fd5b6109b4611a77565b60020160008473ffffffffffffffffffffffffffffffffffffffff1673ffffffffffffffffffffffffffffffffffffffff168152602001908152602001600020805480602002602001604051908101604052809291908181526020016000905b82821015610b4b57838290600052602060002090600602016040518060c0016040529081600082015481526020016001820160009054906101000a900473ffffffffffffffffffffffffffffffffffffffff1673ffffffffffffffffffffffffffffffffffffffff1673ffffffffffffffffffffffffffffffffffffffff1681526020016002820160009054906101000a900473ffffffffffffffffffffffffffffffffffffffff1673ffffffffffffffffffffffffffffffffffffffff1673ffffffffffffffffffffffffffffffffffffffff168152602001600382015481526020016004820160009054906101000a900460ff166001811115610b1c57610b1b612ad2565b5b6001811115610b2e57610b2d612ad2565b5b815260200160058201548152505081526020019060010190610a14565b50505050915050919050565b610b5f612524565b81610b6981611a15565b610ba8576040517f08c379a0000000000000000000000000000000000000000000000000000000008152600401610b9f90613720565b60405180910390fd5b610bb0611a77565b60070160008473ffffffffffffffffffffffffffffffffffffffff1673ffffffffffffffffffffffffffffffffffffffff168152602001908152602001600020604051806101200160405290816000820160009054906101000a900473ffffffffffffffffffffffffffffffffffffffff1673ffffffffffffffffffffffffffffffffffffffff1673ffffffffffffffffffffffffffffffffffffffff168152602001600182018054610c6290613425565b80601f0160208091040260200160405190810160405280929190818152602001828054610c8e90613425565b8015610cdb5780601f10610cb057610100808354040283529160200191610cdb565b820191906000526020600020905b815481529060010190602001808311610cbe57829003601f168201915b50505050508152602001600282018054610cf490613425565b80601f0160208091040260200160405190810160405280929190818152602001828054610d2090613425565b8015610d6d5780601f10610d4257610100808354040283529160200191610d6d565b820191906000526020600020905b815481529060010190602001808311610d5057829003601f168201915b50505050508152602001600382018054610d8690613425565b80601f0160208091040260200160405190810160405280929190818152602001828054610db290613425565b8015610dff5780601f10610dd457610100808354040283529160200191610dff565b820191906000526020600020905b815481529060010190602001808311610de257829003601f168201915b50505050508152602001600482018054610e1890613425565b80601f0160208091040260200160405190810160405280929190818152602001828054610e4490613425565b8015610e915780601f10610e6657610100808354040283529160200191610e91565b820191906000526020600020905b815481529060010190602001808311610e7457829003601f168201915b505050505081526020016005820160009054906101000a900460ff166001811115610ebf57610ebe612ad2565b5b6001811115610ed157610ed0612ad2565b5b81526020016005820160019054906101000a900460ff161515151581526020016005820160029054906101000a900460ff16151515158152602001600682015481525050915050919050565b606081610f2981611a15565b610f68576040517f08c379a0000000000000000000000000000000000000000000000000000000008152600401610f5f90613720565b60405180910390fd5b610f70611a77565b60040160008473ffffffffffffffffffffffffffffffffffffffff1673ffffffffffffffffffffffffffffffffffffffff168152602001908152602001600020805480602002602001604051908101604052809291908181526020016000905b828210156110cc57838290600052602060002090600502016040518060a001604052908160008201548152602001600182015481526020016002820160009054906101000a900473ffffffffffffffffffffffffffffffffffffffff1673ffffffffffffffffffffffffffffffffffffffff1673ffffffffffffffffffffffffffffffffffffffff1681526020016003820160009054906101000a900473ffffffffffffffffffffffffffffffffffffffff1673ffffffffffffffffffffffffffffffffffffffff1673ffffffffffffffffffffffffffffffffffffffff16815260200160048201548152505081526020019060010190610fd0565b50505050915050919050565b6060816110e481611a15565b611123576040517f08c379a000000000000000000000000000000000000000000000000000000000815260040161111a90613720565b60405180910390fd5b61112b611a77565b60030160008473ffffffffffffffffffffffffffffffffffffffff1673ffffffffffffffffffffffffffffffffffffffff168152602001908152602001600020805480602002602001604051908101604052809291908181526020016000905b8282101561130f57838290600052602060002090600502016040518060a001604052908160008201548152602001600182015481526020016002820160009054906101000a900473ffffffffffffffffffffffffffffffffffffffff1673ffffffffffffffffffffffffffffffffffffffff1673ffffffffffffffffffffffffffffffffffffffff1681526020016003820160009054906101000a900473ffffffffffffffffffffffffffffffffffffffff1673ffffffffffffffffffffffffffffffffffffffff1673ffffffffffffffffffffffffffffffffffffffff16815260200160048201805461127e90613425565b80601f01602080910402602001604051908101604052809291908181526020018280546112aa90613425565b80156112f75780601f106112cc576101008083540402835291602001916112f7565b820191906000526020600020905b8154815290600101906020018083116112da57829003601f168201915b5050505050815250508152602001906001019061118b565b50505050915050919050565b3361132581611a15565b611364576040517f08c379a000000000000000000000000000000000000000000000000000000000815260040161135b90613720565b60405180910390fd5b600061136e611a77565b60070160003373ffffffffffffffffffffffffffffffffffffffff1673ffffffffffffffffffffffffffffffffffffffff1681526020019081526020016000209050858160010190816113c19190613602565b50848160020190816113d39190613602565b50838160050160006101000a81548160ff021916908360018111156113fb576113fa612ad2565b5b0217905550828160040190816114119190613602565b503373ffffffffffffffffffffffffffffffffffffffff167f0a069cb19d168bc7a049b956ce2d15e1fa917e5024d1584c4a7d683d9774b609426040516114589190612a7c565b60405180910390a2505050505050565b61147061259c565b8161147a81611a15565b6114b9576040517f08c379a00000000000000000000000000000000000000000000000000000000081526004016114b090613720565b60405180910390fd5b6114c1611a77565b60050160008473ffffffffffffffffffffffffffffffffffffffff1673ffffffffffffffffffffffffffffffffffffffff1681526020019081526020016000206040518060a001604052908160008201548152602001600182015481526020016002820154815260200160038201805480602002602001604051908101604052809291908181526020016000905b82821015611587578382906000526020600020016040518060200160405290816000820154815250508152602001906001019061154f565b50505050815260200160048201604051806080016040529081600082015481526020016001820180546115b990613425565b80601f01602080910402602001604051908101604052809291908181526020018280546115e590613425565b80156116325780601f1061160757610100808354040283529160200191611632565b820191906000526020600020905b81548152906001019060200180831161161557829003601f168201915b505050505081526020016002820154815260200160038201548152505081525050915050919050565b611663611a77565b60000160009054906101000a900473ffffffffffffffffffffffffffffffffffffffff1673ffffffffffffffffffffffffffffffffffffffff163373ffffffffffffffffffffffffffffffffffffffff16146116f4576040517f08c379a00000000000000000000000000000000000000000000000000000000081526004016116eb90613864565b60405180910390fd5b6116fc612155565b565b6000611708611a77565b60000160009054906101000a900473ffffffffffffffffffffffffffffffffffffffff1673ffffffffffffffffffffffffffffffffffffffff163373ffffffffffffffffffffffffffffffffffffffff1614611799576040517f08c379a000000000000000000000000000000000000000000000000000000000815260040161179090613864565b60405180910390fd5b6117a1611a77565b600b0160003373ffffffffffffffffffffffffffffffffffffffff1673ffffffffffffffffffffffffffffffffffffffff16815260200190815260200160002054905090565b6117ef6125d1565b816117f981611a15565b611838576040517f08c379a000000000000000000000000000000000000000000000000000000000815260040161182f90613720565b60405180910390fd5b611840611a77565b60080160008473ffffffffffffffffffffffffffffffffffffffff1673ffffffffffffffffffffffffffffffffffffffff1681526020019081526020016000206040518060c001604052908160008201548152602001600182015481526020016002820160009054906101000a900460ff1660018111156118c4576118c3612ad2565b5b60018111156118d6576118d5612ad2565b5b8152602001600382015481526020016004820160009054906101000a900460ff16151515158152602001600582015481525050915050919050565b60008161191d81611a15565b61195c576040517f08c379a000000000000000000000000000000000000000000000000000000000815260040161195390613720565b60405180910390fd5b611964611a77565b600a016000611971611a77565b60010160009054906101000a900473ffffffffffffffffffffffffffffffffffffffff1673ffffffffffffffffffffffffffffffffffffffff1673ffffffffffffffffffffffffffffffffffffffff16815260200190815260200160002060008473ffffffffffffffffffffffffffffffffffffffff1673ffffffffffffffffffffffffffffffffffffffff16815260200190815260200160002054915050919050565b6000611a1f611a77565b60070160008373ffffffffffffffffffffffffffffffffffffffff1673ffffffffffffffffffffffffffffffffffffffff16815260200190815260200160002060050160019054906101000a900460ff169050919050565b6000807fd9e35282e2215880e2e89e7d63345ded769cf6489d8c377c2c5a8a3ce3eb68c390508091505090565b600081611ab081611a15565b611aef576040517f08c379a0000000000000000000000000000000000000000000000000000000008152600401611ae690613720565b60405180910390fd5b6000611af9611a77565b60050160008573ffffffffffffffffffffffffffffffffffffffff1673ffffffffffffffffffffffffffffffffffffffff1681526020019081526020016000206001015411915050919050565b611b4e61259c565b81611b5881611a15565b611b97576040517f08c379a0000000000000000000000000000000000000000000000000000000008152600401611b8e90613720565b60405180910390fd5b60011515611ba484611aa4565b151514611be6576040517f08c379a0000000000000000000000000000000000000000000000000000000008152600401611bdd9061378c565b60405180910390fd5b611bee611a77565b60050160008473ffffffffffffffffffffffffffffffffffffffff1673ffffffffffffffffffffffffffffffffffffffff1681526020019081526020016000206040518060a001604052908160008201548152602001600182015481526020016002820154815260200160038201805480602002602001604051908101604052809291908181526020016000905b82821015611cb45783829060005260206000200160405180602001604052908160008201548152505081526020019060010190611c7c565b5050505081526020016004820160405180608001604052908160008201548152602001600182018054611ce690613425565b80601f0160208091040260200160405190810160405280929190818152602001828054611d1290613425565b8015611d5f5780601f10611d3457610100808354040283529160200191611d5f565b820191906000526020600020905b815481529060010190602001808311611d4257829003601f168201915b505050505081526020016002820154815260200160038201548152505081525050915050919050565b60008082608001516000015114159050919050565b611da5611a77565b60000160009054906101000a900473ffffffffffffffffffffffffffffffffffffffff1673ffffffffffffffffffffffffffffffffffffffff163373ffffffffffffffffffffffffffffffffffffffff1614611e36576040517f08c379a0000000000000000000000000000000000000000000000000000000008152600401611e2d90613864565b60405180910390fd5b6000611e40611a77565b60000160009054906101000a900473ffffffffffffffffffffffffffffffffffffffff1690506000611e70611a77565b600a0160008573ffffffffffffffffffffffffffffffffffffffff1673ffffffffffffffffffffffffffffffffffffffff16815260200190815260200160002060008373ffffffffffffffffffffffffffffffffffffffff1673ffffffffffffffffffffffffffffffffffffffff1681526020019081526020016000205490508373ffffffffffffffffffffffffffffffffffffffff1663095ea7b330836040518363ffffffff1660e01b8152600401611f2b929190613893565b6020604051808303816000875af1158015611f4a573d6000803e3d6000fd5b505050506040513d601f19601f82011682018060405250810190611f6e91906138e8565b508373ffffffffffffffffffffffffffffffffffffffff166323b872dd611f93611a77565b60000160009054906101000a900473ffffffffffffffffffffffffffffffffffffffff1685846040518463ffffffff1660e01b8152600401611fd793929190613915565b6020604051808303816000875af1158015611ff6573d6000803e3d6000fd5b505050506040513d601f19601f8201168201806040525081019061201a91906138e8565b506000612025611a77565b600a0160008673ffffffffffffffffffffffffffffffffffffffff1673ffffffffffffffffffffffffffffffffffffffff16815260200190815260200160002060008473ffffffffffffffffffffffffffffffffffffffff1673ffffffffffffffffffffffffffffffffffffffff168152602001908152602001600020819055508373ffffffffffffffffffffffffffffffffffffffff168373ffffffffffffffffffffffffffffffffffffffff166120dc611a77565b60000160009054906101000a900473ffffffffffffffffffffffffffffffffffffffff1673ffffffffffffffffffffffffffffffffffffffff167fb2ad6250d7505f22d8551d1ed6d4d111add1b892387d3981cd1165515cb7c03f844260405161214792919061394c565b60405180910390a450505050565b61215d611a77565b60000160009054906101000a900473ffffffffffffffffffffffffffffffffffffffff1673ffffffffffffffffffffffffffffffffffffffff163373ffffffffffffffffffffffffffffffffffffffff16146121ee576040517f08c379a00000000000000000000000000000000000000000000000000000000081526004016121e590613864565b60405180910390fd5b60004711612231576040517f08c379a0000000000000000000000000000000000000000000000000000000008152600401612228906139c1565b60405180910390fd5b600061223b611a77565b60000160009054906101000a900473ffffffffffffffffffffffffffffffffffffffff1673ffffffffffffffffffffffffffffffffffffffff1661227d611a77565b600b01600061228a611a77565b60000160009054906101000a900473ffffffffffffffffffffffffffffffffffffffff1673ffffffffffffffffffffffffffffffffffffffff1673ffffffffffffffffffffffffffffffffffffffff168152602001908152602001600020546040516122f590613a12565b60006040518083038185875af1925050503d8060008114612332576040519150601f19603f3d011682016040523d82523d6000602084013e612337565b606091505b505090508061237b576040517f08c379a000000000000000000000000000000000000000000000000000000000815260040161237290613a73565b60405180910390fd5b6000612385611a77565b600b016000612392611a77565b60000160009054906101000a900473ffffffffffffffffffffffffffffffffffffffff1673ffffffffffffffffffffffffffffffffffffffff1673ffffffffffffffffffffffffffffffffffffffff168152602001908152602001600020819055506123fc611a77565b60000160009054906101000a900473ffffffffffffffffffffffffffffffffffffffff1673ffffffffffffffffffffffffffffffffffffffff163073ffffffffffffffffffffffffffffffffffffffff167f9e58d7240769dbba1b2a980c767b35e78639e4b9fe99787327d9bd90a498e04b612476611a77565b600b016000612483611a77565b60000160009054906101000a900473ffffffffffffffffffffffffffffffffffffffff1673ffffffffffffffffffffffffffffffffffffffff1673ffffffffffffffffffffffffffffffffffffffff16815260200190815260200160002054426040516124f192919061394c565b60405180910390a350565b6040518060800160405280600081526020016060815260200160008152602001600081525090565b604051806101200160405280600073ffffffffffffffffffffffffffffffffffffffff168152602001606081526020016060815260200160608152602001606081526020016000600181111561257d5761257c612ad2565b5b8152602001600015158152602001600015158152602001600081525090565b6040518060a00160405280600081526020016000815260200160008152602001606081526020016125cb6124fc565b81525090565b6040518060c001604052806000815260200160008152602001600060018111156125fe576125fd612ad2565b5b815260200160008152602001600015158152602001600081525090565b6000604051905090565b600080fd5b600080fd5b600080fd5b600080fd5b6000601f19601f8301169050919050565b7f4e487b7100000000000000000000000000000000000000000000000000000000600052604160045260246000fd5b61268282612639565b810181811067ffffffffffffffff821117156126a1576126a061264a565b5b80604052505050565b60006126b461261b565b90506126c08282612679565b919050565b600067ffffffffffffffff8211156126e0576126df61264a565b5b6126e982612639565b9050602081019050919050565b82818337600083830152505050565b6000612718612713846126c5565b6126aa565b90508281526020810184848401111561273457612733612634565b5b61273f8482856126f6565b509392505050565b600082601f83011261275c5761275b61262f565b5b813561276c848260208601612705565b91505092915050565b6002811061278257600080fd5b50565b60008135905061279481612775565b92915050565b600080600080600060a086880312156127b6576127b5612625565b5b600086013567ffffffffffffffff8111156127d4576127d361262a565b5b6127e088828901612747565b955050602086013567ffffffffffffffff8111156128015761280061262a565b5b61280d88828901612747565b945050604086013567ffffffffffffffff81111561282e5761282d61262a565b5b61283a88828901612747565b935050606061284b88828901612785565b925050608086013567ffffffffffffffff81111561286c5761286b61262a565b5b61287888828901612747565b9150509295509295909350565b600073ffffffffffffffffffffffffffffffffffffffff82169050919050565b60006128b082612885565b9050919050565b6128c0816128a5565b81146128cb57600080fd5b50565b6000813590506128dd816128b7565b92915050565b6000602082840312156128f9576128f8612625565b5b6000612907848285016128ce565b91505092915050565b6000819050919050565b61292381612910565b82525050565b600081519050919050565b600082825260208201905092915050565b60005b83811015612963578082015181840152602081019050612948565b60008484015250505050565b600061297a82612929565b6129848185612934565b9350612994818560208601612945565b61299d81612639565b840191505092915050565b60006080830160008301516129c0600086018261291a565b50602083015184820360208601526129d8828261296f565b91505060408301516129ed604086018261291a565b506060830151612a00606086018261291a565b508091505092915050565b60006020820190508181036000830152612a2581846129a8565b905092915050565b60008060408385031215612a4457612a43612625565b5b6000612a52858286016128ce565b9250506020612a63858286016128ce565b9150509250929050565b612a7681612910565b82525050565b6000602082019050612a916000830184612a6d565b92915050565b600081519050919050565b600082825260208201905092915050565b6000819050602082019050919050565b612acc816128a5565b82525050565b7f4e487b7100000000000000000000000000000000000000000000000000000000600052602160045260246000fd5b60028110612b1257612b11612ad2565b5b50565b6000819050612b2382612b01565b919050565b6000612b3382612b15565b9050919050565b612b4381612b28565b82525050565b60c082016000820151612b5f600085018261291a565b506020820151612b726020850182612ac3565b506040820151612b856040850182612ac3565b506060820151612b98606085018261291a565b506080820151612bab6080850182612b3a565b5060a0820151612bbe60a085018261291a565b50505050565b6000612bd08383612b49565b60c08301905092915050565b6000602082019050919050565b6000612bf482612a97565b612bfe8185612aa2565b9350612c0983612ab3565b8060005b83811015612c3a578151612c218882612bc4565b9750612c2c83612bdc565b925050600181019050612c0d565b5085935050505092915050565b60006020820190508181036000830152612c618184612be9565b905092915050565b60028110612c7a57612c79612ad2565b5b50565b6000819050612c8b82612c69565b919050565b6000612c9b82612c7d565b9050919050565b612cab81612c90565b82525050565b60008115159050919050565b612cc681612cb1565b82525050565b600061012083016000830151612ce56000860182612ac3565b5060208301518482036020860152612cfd828261296f565b91505060408301518482036040860152612d17828261296f565b91505060608301518482036060860152612d31828261296f565b91505060808301518482036080860152612d4b828261296f565b91505060a0830151612d6060a0860182612ca2565b5060c0830151612d7360c0860182612cbd565b5060e0830151612d8660e0860182612cbd565b50610100830151612d9b61010086018261291a565b508091505092915050565b60006020820190508181036000830152612dc08184612ccc565b905092915050565b600081519050919050565b600082825260208201905092915050565b6000819050602082019050919050565b60a082016000820151612e0a600085018261291a565b506020820151612e1d602085018261291a565b506040820151612e306040850182612ac3565b506060820151612e436060850182612ac3565b506080820151612e56608085018261291a565b50505050565b6000612e688383612df4565b60a08301905092915050565b6000602082019050919050565b6000612e8c82612dc8565b612e968185612dd3565b9350612ea183612de4565b8060005b83811015612ed2578151612eb98882612e5c565b9750612ec483612e74565b925050600181019050612ea5565b5085935050505092915050565b60006020820190508181036000830152612ef98184612e81565b905092915050565b600081519050919050565b600082825260208201905092915050565b6000819050602082019050919050565b600060a083016000830151612f45600086018261291a565b506020830151612f58602086018261291a565b506040830151612f6b6040860182612ac3565b506060830151612f7e6060860182612ac3565b5060808301518482036080860152612f96828261296f565b9150508091505092915050565b6000612faf8383612f2d565b905092915050565b6000602082019050919050565b6000612fcf82612f01565b612fd98185612f0c565b935083602082028501612feb85612f1d565b8060005b8581101561302757848403895281516130088582612fa3565b945061301383612fb7565b925060208a01995050600181019050612fef565b50829750879550505050505092915050565b600060208201905081810360008301526130538184612fc4565b905092915050565b6000806000806080858703121561307557613074612625565b5b600085013567ffffffffffffffff8111156130935761309261262a565b5b61309f87828801612747565b945050602085013567ffffffffffffffff8111156130c0576130bf61262a565b5b6130cc87828801612747565b93505060406130dd87828801612785565b925050606085013567ffffffffffffffff8111156130fe576130fd61262a565b5b61310a87828801612747565b91505092959194509250565b600081519050919050565b600082825260208201905092915050565b6000819050602082019050919050565b602082016000820151613158600085018261291a565b50505050565b600061316a8383613142565b60208301905092915050565b6000602082019050919050565b600061318e82613116565b6131988185613121565b93506131a383613132565b8060005b838110156131d45781516131bb888261315e565b97506131c683613176565b9250506001810190506131a7565b5085935050505092915050565b60006080830160008301516131f9600086018261291a565b5060208301518482036020860152613211828261296f565b9150506040830151613226604086018261291a565b506060830151613239606086018261291a565b508091505092915050565b600060a08301600083015161325c600086018261291a565b50602083015161326f602086018261291a565b506040830151613282604086018261291a565b506060830151848203606086015261329a8282613183565b915050608083015184820360808601526132b482826131e1565b9150508091505092915050565b600060208201905081810360008301526132db8184613244565b905092915050565b60c0820160008201516132f9600085018261291a565b50602082015161330c602085018261291a565b50604082015161331f6040850182612ca2565b506060820151613332606085018261291a565b5060808201516133456080850182612cbd565b5060a082015161335860a085018261291a565b50505050565b600060c08201905061337360008301846132e3565b92915050565b600082825260208201905092915050565b7f424f433a205573657220616c7265616479206578697374210000000000000000600082015250565b60006133c0601883613379565b91506133cb8261338a565b602082019050919050565b600060208201905081810360008301526133ef816133b3565b9050919050565b7f4e487b7100000000000000000000000000000000000000000000000000000000600052602260045260246000fd5b6000600282049050600182168061343d57607f821691505b6020821081036134505761344f6133f6565b5b50919050565b60008190508160005260206000209050919050565b60006020601f8301049050919050565b600082821b905092915050565b6000600883026134b87fffffffffffffffffffffffffffffffffffffffffffffffffffffffffffffffff8261347b565b6134c2868361347b565b95508019841693508086168417925050509392505050565b6000819050919050565b60006134ff6134fa6134f584612910565b6134da565b612910565b9050919050565b6000819050919050565b613519836134e4565b61352d61352582613506565b848454613488565b825550505050565b600090565b613542613535565b61354d818484613510565b505050565b5b818110156135715761356660008261353a565b600181019050613553565b5050565b601f8211156135b65761358781613456565b6135908461346b565b8101602085101561359f578190505b6135b36135ab8561346b565b830182613552565b50505b505050565b600082821c905092915050565b60006135d9600019846008026135bb565b1980831691505092915050565b60006135f283836135c8565b9150826002028217905092915050565b61360b82612929565b67ffffffffffffffff8111156136245761362361264a565b5b61362e8254613425565b613639828285613575565b600060209050601f83116001811461366c576000841561365a578287015190505b61366485826135e6565b8655506136cc565b601f19841661367a86613456565b60005b828110156136a25784890151825560018201915060208501945060208101905061367d565b868310156136bf57848901516136bb601f8916826135c8565b8355505b6001600288020188555050505b505050505050565b7f424f433a2055736572206e6f7420666f756e6421000000000000000000000000600082015250565b600061370a601483613379565b9150613715826136d4565b602082019050919050565b60006020820190508181036000830152613739816136fd565b9050919050565b7f424f433a204e6f20426972746864617920666f756e6421000000000000000000600082015250565b6000613776601783613379565b915061378182613740565b602082019050919050565b600060208201905081810360008301526137a581613769565b9050919050565b7f424f433a204e6f20476f616c20666f756e642100000000000000000000000000600082015250565b60006137e2601383613379565b91506137ed826137ac565b602082019050919050565b60006020820190508181036000830152613811816137d5565b9050919050565b7f424f433a204f776e6572206f6e6c79204f7065726174696f6e21000000000000600082015250565b600061384e601a83613379565b915061385982613818565b602082019050919050565b6000602082019050818103600083015261387d81613841565b9050919050565b61388d816128a5565b82525050565b60006040820190506138a86000830185613884565b6138b56020830184612a6d565b9392505050565b6138c581612cb1565b81146138d057600080fd5b50565b6000815190506138e2816138bc565b92915050565b6000602082840312156138fe576138fd612625565b5b600061390c848285016138d3565b91505092915050565b600060608201905061392a6000830186613884565b6139376020830185613884565b6139446040830184612a6d565b949350505050565b60006040820190506139616000830185612a6d565b61396e6020830184612a6d565b9392505050565b7f424f433a20496e73756666696369656e742045746865722042616c616e636521600082015250565b60006139ab602083613379565b91506139b682613975565b602082019050919050565b600060208201905081810360008301526139da8161399e565b9050919050565b600081905092915050565b50565b60006139fc6000836139e1565b9150613a07826139ec565b600082019050919050565b6000613a1d826139ef565b9150819050919050565b7f424f433a204574686572207769746864726177616c206661696c656421000000600082015250565b6000613a5d601d83613379565b9150613a6882613a27565b602082019050919050565b60006020820190508181036000830152613a8c81613a50565b905091905056fea2646970667358221220b8a028a94db7edd36bacb56b9e48ea01fcc0869aa5f439fb2cbd989ea7a4df1664736f6c634300081c0033",
  "linkReferences": {},
  "deployedLinkReferences": {}
}